:020000040800F2
:10000000000002201D480008E9270008EB2700082F
:10001000ED270008EF270008F12700080000000086
:10002000000000000000000000000000F3270008AE
:10003000F527000800000000F7270008F92700084E
:100040006D4800086D4800086D4800086D480008BC
:100050006D4800086D4800086D4800086D480008AC
:100060006D4800086D4800086D4800080128000828
:10007000112800086D480008212800086D48000874
:1000800031280008412800086D4800086D48000824
:100090006D4800086D4800086D4800086D4800086C
:1000A0006D4800086D4800086D4800086D4800085C
:1000B0006D4800086D4800086D4800086D4800084C
:1000C0006D4800086D4800086D4800086D4800083C
:1000D0006D480008512800086128000871280008B0
:1000E0006D4800086D4800086D4800086D4800081C
:1000F0006D4800086D4800086D4800088128000818
:100100006D4800086D4800086D4800086D480008FB
:100110006D480008912800086D4800086D480008E7
:100120006D480008A1280008B12800086D480008A3
:100130006D48000800000000000000006D48000845
:100140006D4800086D4800086D4800086D480008BB
:100150006D480008C1280008D1280008E1280008DF
:100160006D4800086D4800086D4800086D4800089B
:100170006D4800086D4800086D4800080000000048
:10018000000000006D4800080000000000000000B2
:100190006D48000800000000000000006D480008E5
:1001A0000000000000000000000000006D48000892
:1001B0006D4800086D4800086D4800086D4800084B
:0401C0006D4800087E
:1001C80010B5054C237833B9044B13B10448AFF389
:1001D80000800123237010BD5C0000200000000097
:1001E800B452000808B5034B1BB103490348AFF3E9
:1001F800008008BD0000000060000020B452000824
:1002080081F0004102E000BF83F0004330B54FEABF
:1002180041044FEA430594EA050F08BF90EA020F2C
:100228001FBF54EA000C55EA020C7FEA645C7FEABF
:10023800655C00F0E2804FEA5454D4EB5555B8BFE2
:100248006D420CDD2C4480EA020281EA030382EA53
:10025800000083EA010180EA020281EA0303362DE5
:1002680088BF30BD11F0004F4FEA01314FF4801CB8
:100278004CEA113102D0404261EB410113F0004FCA
:100288004FEA03334CEA133302D0524263EB430381
:1002980094EA050F00F0A780A4F10104D5F1200E1F
:1002A8000DDB02FA0EFC22FA05F2801841F100017A
:1002B80003FA0EF2801843FA05F359410EE0A5F14E
:1002C80020050EF1200E012A03FA0EFC28BF4CF07F
:1002D800020C43FA05F3C01851EBE37101F0004535
:1002E80007D54FF0000EDCF1000C7EEB00006EEB42
:1002F8000101B1F5801F1BD3B1F5001F0CD34908CC
:100308005FEA30004FEA3C0C04F101044FEA445222
:1003180012F5800F80F09A80BCF1004F08BF5FEAA9
:10032800500C50F1000041EB045141EA050130BD89
:100338005FEA4C0C404141EB0101013C28BFB1F59B
:10034800801FE9D291F0000F04BF01460020B1FAE6
:1003580081F308BF2033A3F10B03B3F120020CDAB9
:100368000C3208DD02F1140CC2F10C0201FA0CF097
:1003780021FA02F10CE002F11402D8BFC2F1200CFC
:1003880001FA02F120FA0CFCDCBF41EA0C019040B2
:10039800E41AA2BF01EB0451294330BD6FEA0404FB
:1003A8001F3C1CDA0C340EDC04F11404C4F12002E6
:1003B80020FA04F001FA02F340EA030021FA04F3F8
:1003C80045EA030130BDC4F10C04C4F1200220FA4F
:1003D80002F001FA04F340EA0300294630BD21FA8D
:1003E80004F0294630BD94F0000F83F4801306BF53
:1003F80081F480110134013D4EE77FEA645C18BF47
:100408007FEA655C29D094EA050F08BF90EA020FDD
:1004180005D054EA000C04BF1946104630BD91EAD5
:10042800030F1EBF0021002030BD5FEA545C05D1D8
:100438004000494128BF41F0004130BD14F5800417
:100448003CBF01F5801130BD01F0004545F0FE418B
:1004580041F470014FF0000030BD7FEA645C1ABFC0
:10046800194610467FEA655C1CBF0B46024650EAF7
:10047800013406BF52EA033591EA030F41F4002123
:1004880030BD00BF90F0000F04BF0021704730B5A9
:100498004FF4806404F132044FF000054FF000017E
:1004A80050E700BF90F0000F04BF0021704730B53F
:1004B8004FF4806404F1320410F0004548BF404214
:1004C8004FF000013EE700BF42004FEAE2014FEA69
:1004D80031014FEA02701FBF12F07F4393F07F4F44
:1004E80081F06051704732F07F4208BF704793F047
:1004F8007F4F04BF41F40021704730B54FF460745A
:1005080001F0004521F000411CE700BF50EA01025C
:1005180008BF704730B54FF000050AE050EA010205
:1005280008BF704730B511F0004502D5404261EB75
:1005380041014FF4806404F132045FEA915C3FF4B6
:10054800D8AE4FF003025FEADC0C18BF03325FEA53
:10055800DC0C18BF033202EBDC02C2F1200300FA04
:1005680003FC20FA02F001FA03FE40EA0E0021FA29
:1005780002F11444BDE600BF70B54FF0FF0C4CF417
:10058800E06C1CEA11541DBF1CEA135594EA0C0FC9
:1005980095EA0C0F00F0DEF82C4481EA030621EA04
:1005A8004C5123EA4C5350EA013518BF52EA03353F
:1005B80041F4801143F4801338D0A0FB02CE4FF0F1
:1005C8000005E1FB02E506F00042E0FB03E54FF021
:1005D8000006E1FB03569CF0000F18BF4EF0010E19
:1005E800A4F1FF04B6F5007F64F5407404D25FEA15
:1005F8004E0E6D4146EB060642EAC62141EA5551C8
:100608004FEAC52040EA5E504FEACE2EB4F1FD0C09
:1006180088BFBCF5E06F1ED8BEF1004F08BF5FEA87
:10062800500E50F1000041EB045170BD06F0004639
:1006380046EA010140EA020081EA0301B4EB5C04E6
:10064800C2BFD4EB0C0541EA045170BD41F48011DE
:100658004FF0000E013C00F3AB8014F1360FDEBF03
:10066800002001F0004170BDC4F10004203C35DADF
:100678000C341BDC04F11404C4F1200500FA05F362
:1006880020FA04F001FA05F240EA020001F0004203
:1006980021F0004110EBD37021FA04F642EB060179
:1006A8005EEA430E08BF20EAD37070BDC4F10C04A3
:1006B800C4F1200500FA04F320FA05F001FA04F267
:1006C80040EA020001F0004110EBD37041F1000153
:1006D8005EEA430E08BF20EAD37070BDC4F120055E
:1006E80000FA05F24EEA020E20FA04F301FA05F2C6
:1006F80043EA020321FA04F001F0004121FA04F26E
:1007080020EA020000EBD3705EEA430E08BF20EA3D
:10071800D37070BD94F0000F0FD101F00046400077
:1007280041EB010111F4801F08BF013CF7D041EAF9
:10073800060195F0000F18BF704703F000465200FD
:1007480043EB030313F4801F08BF013DF7D043EACE
:100758000603704794EA0C0F0CEA135518BF95EA84
:100768000C0F0CD050EA410618BF52EA4306D1D10B
:1007780081EA030101F000414FF0000070BD50EA2A
:10078800410606BF1046194652EA430619D094EAB4
:100798000C0F02D150EA013613D195EA0C0F05D19E
:1007A80052EA03361CBF104619460AD181EA0301F2
:1007B80001F0004141F0FE4141F470014FF00000AA
:1007C80070BD41F0FE4141F4780170BD70B54FF045
:1007D800FF0C4CF4E06C1CEA11541DBF1CEA1355C5
:1007E80094EA0C0F95EA0C0F00F0A7F8A4EB0504A7
:1007F80081EA030E52EA03354FEA013100F088809E
:100808004FEA03334FF0805545EA131343EA126366
:100818004FEA022245EA111545EA10654FEA00261B
:100828000EF000419D4208BF964244F1FD0404F5D4
:10083800407402D25B084FEA3202B61A65EB030530
:100848005B084FEA32024FF480104FF4002CB6EBED
:10085800020E75EB030E22BFB61A754640EA0C006D
:100868005B084FEA3202B6EB020E75EB030E22BFAD
:10087800B61A754640EA5C005B084FEA3202B6EBEE
:10088800020E75EB030E22BFB61A754640EA9C00AD
:100898005B084FEA3202B6EB020E75EB030E22BF7D
:1008A800B61A754640EADC0055EA060E18D04FEA3B
:1008B800051545EA16754FEA06164FEAC30343EADB
:1008C80052734FEAC2025FEA1C1CC0D111F4801FA8
:1008D8000BD141EA00014FF000004FF0004CB6E7A1
:1008E80011F4801F04BF01430020B4F1FD0C88BF40
:1008F800BCF5E06F3FF6AFAEB5EB030C04BFB6EB4B
:10090800020C5FEA500C50F1000041EB045170BD3D
:100918000EF0004E4EEA113114EB5C04C2BFD4EB6A
:100928000C0541EA045170BD41F480114FF0000EEE
:10093800013C90E645EA060E8DE60CEA135594EA6A
:100948000C0F08BF95EA0C0F3FF43BAF94EA0C0F6D
:100958000AD150EA01347FF434AF95EA0C0F7FF4E2
:1009680025AF104619462CE795EA0C0F06D152EA36
:1009780003353FF4FDAE1046194622E750EA41061A
:1009880018BF52EA43067FF4C5AE50EA41047FF42B
:100998000DAF52EA43057FF4EBAE12E74FF0FF3C90
:1009A80006E000BF4FF0010C02E000BF4FF0010C61
:1009B8004DF804CD4FEA410C7FEA6C5C4FEA430CDA
:1009C80018BF7FEA6C5C1BD001B050EA410C0CBF29
:1009D80052EA430C91EA030F02BF90EA020F00208B
:1009E800704710F1000F91EA030F58BF994208BFF2
:1009F80090422CBFD8176FEAE37040F001007047AF
:100A08004FEA410C7FEA6C5C02D150EA013C07D105
:100A18004FEA430C7FEA6C5CD6D152EA033CD3D050
:100A28005DF8040B704700BF8446104662468C464A
:100A38001946634600E000BF01B5FFF7B7FF00287D
:100A480048BF10F1000F01BD4DF808EDFFF7F4FFA6
:100A58000CBF012000205DF808FB00BF4DF808ED31
:100A6800FFF7EAFF34BF012000205DF808FB00BF54
:100A78004DF808EDFFF7E0FF94BF012000205DF876
:100A880008FB00BF4DF808EDFFF7CEFF94BF01202B
:100A980000205DF808FB00BF4DF808EDFFF7C4FF24
:100AA80034BF012000205DF808FB00BF4FEA410277
:100AB80012F5001215D211D56FF47873B3EB6252A8
:100AC80012D94FEAC12343F0004343EA505311F0CF
:100AD800004F23FA02F018BF404270474FF0000061
:100AE800704750EA013005D111F0004008BF6FF09F
:100AF800004070474FF00000704700BF4A0011D215
:100B080012F5001211D20DD56FF47873B3EB62525F
:100B18000ED44FEAC12343F0004343EA505323FA6B
:100B280002F070474FF00000704750EA013002D1E0
:100B38004FF0FF3070474FF0000070474FEA410216
:100B4800B2F1E04324BFB3F5001CDCF1FE5C0DD923
:100B580001F0004C4FEAC0024CEA5070B2F1004F6D
:100B680040EB830008BF20F00100704711F0804F70
:100B780021D113F13872BCBF01F00040704741F435
:100B880080114FEA5252C2F11802C2F1200C10FA39
:100B98000CF320FA02F018BF40F001004FEAC1231D
:100BA8004FEAD32303FA0CFC40EA0C0023FA02F3C1
:100BB8004FEA4303CCE77FEA625307D150EA013397
:100BC8001EBF4FF0FE4040F44000704701F0004067
:100BD80040F0FE4040F40000704700BF53B94AB9E6
:100BE800002908BF00281CBF4FF0FF314FF0FF302D
:100BF80001F0F6B8ADF1080C6DE904CE00F006F886
:100C0800DDF804E0DDE9022304B070472DE9F04780
:100C1800089D0C46002B4ED194468C458646B2FA68
:100C280082F262D94AB1C2F12003914020FA03F35B
:100C38000CFA02FC194300FA02FE4FEA1C471FFA9D
:100C48008CF6B1FBF7F44FEA1E4307FB141143EA95
:100C5800014304FB06F199420AD91CEB030304F192
:100C6800FF3080F01281994240F20F81023C6344C8
:100C7800591A1FFA8EF3B1FBF7F007FB101143EA7C
:100C8800014300FB06F69E420AD91CEB030300F160
:100C9800FF3180F0FC809E4240F2F98063440238C4
:100CA8009B1B40EA044000211DB1D3400022C5E946
:100CB8000032BDE8F0878B4205D90DB1C5E90001C6
:100CC80000210846F5E7B3FA83F1002946D1A3428B
:100CD80002D39042C0F0F080861A64EB030301202F
:100CE800002DE6D0C5E90063E3E7002A40F09080D4
:100CF800A1EB0C044FEA1C481FFA8CF70121B4FB46
:100D0800F8F64FEA1E4308FB164443EA044307FB80
:100D180006F0984208D91CEB030306F1FF3402D20F
:100D2800984200F2CD8026461C1A1FFA8EF3B4FBB7
:100D3800F8F008FB104443EA044300FB07F79F421E
:100D480008D91CEB030300F1FF3402D29F4200F2E2
:100D5800B0802046DB1B40EA0640A5E7C1F120062B
:100D68008B4022FA06F71F4320FA06FC04FA01F327
:100D780043EA0C03F44000FA01F8380C4FEA13492F
:100D8800B4FBF0FE1FFA87FC00FB1E4449EA04444A
:100D98000EFB0CF9A14502FA01F20AD93C190EF131
:100DA800FF3A80F08480A14540F28180AEF1020EC6
:100DB8003C44A4EB09041FFA83F9B4FBF0F300FBED
:100DC800134449EA044403FB0CFCA44507D93C1925
:100DD80003F1FF3067D2A44565D9023B3C4443EA9E
:100DE8000E40A0FB0293A4EB0C049C42CE469C460A
:100DF80051D34ED055B1B8EB0E0364EB0C0404FA92
:100E080006F6CB401E43CC40C5E90064002150E7FC
:100E1800C2F1200320FA03F10CFA02FC24FA03F3CE
:100E280094400C434FEA1C4800FA02FE1FFA8CF764
:100E3800B3FBF8F008FB1031230C43EA014300FB35
:100E480007F1994208D91CEB030300F1FF362CD2B5
:100E580099422AD9023863445B1AA4B2B3FBF8F169
:100E680008FB113344EA034401FB07F3A34208D902
:100E78001CEB040401F1FF3613D2A34211D9023945
:100E88006444E41A41EA004139E70446F0E60846BA
:100E980006E7C845AED2B9EB020E63EB070C013882
:100EA800A8E73146EDE7034699E73046D4E7D6464A
:100EB8007FE7634402384DE70646234608460FE7B6
:100EC800023E634430E700BF03685A004CBF43F05A
:100ED800004323F000431844704700BF2DE9F8434E
:100EE80049B34F1E044615463E464FF0000909EB2C
:100EF800060101EBD171491004EBC1084046FFF728
:100F0800E3FF8F4203464FEAC1000FD00830AB42DF
:100F1800204407D8FFF7D8FF0138A84208D201F1CA
:100F28000109E4E7894506D04E1EE0E7AB42F9D84F
:100F38004046BDE8F8834FF000084046BDE8F88316
:100F4800012807D0022807D0044B00280CBF1846F8
:100F58000020704702487047024870471116000881
:100F6800151600081916000830B5214B83B0044641
:100F78008D1E1BB301A92846AFF3008088B30199E1
:100F88002A46FFF7ABFF014658B3FFF79DFF4B68B2
:100F9800A064012B28D0002B01F104001FDBFFF710
:100FA80093FF002323650368E064002B0DDBFFF744
:100FB8008BFF03460020236103B030BD0D4B0E4963
:100FC800C91AC91018460191DAE7C3F30360FFF79D
:100FD800B7FF034628B10020236103B030BD0123C9
:100FE800E0E700230920E6E700230520E3E700BF48
:100FF8000000000088540008905500080368DA07CC
:1010080010B5044606D49B0700F1480009D500F046
:1010180069FC2368590709D51A070ED5DB0613D5CD
:1010280010BD00F057FC23685907F5D404F1D0002F
:1010380000F060FC23681A07F0D404F5A87000F0EB
:1010480061FC2368DB06EBD404F5E870BDE81040CA
:1010580000F09CBC092070470346006800B11844A2
:10106800704700BF704700BF70B504460E46316C2C
:101078002046FFF779FF054688B9326C626123691B
:1010880032462146012098470828F0D0072806D183
:101098002846316CFFF7E6FF301D00F00FFC04F026
:1010A800A3F800BF2DE9F0470D1DD0F80C80D0F84B
:1010B8001890074614460FCDADF5727D0DF10C0C56
:1010C800ACE80F000FCDACE80F000FCDACE80F0077
:1010D80095E80F0002AE4FF0000E8CE80F00C6F83E
:1010E80000E020E0336C7B614FF4F07231467AA85F
:1010F80004F0CEF83B697AAA394650469847889B4F
:1011080073642146CDE9006905463B463A4601200D
:10111800C047044618BB4FF4F0727AA9304604F071
:10112800B7F8082D19D1316C3846FFF71DFF09347F
:101138005FFA84FA05460028D4D0B36B73643A4644
:10114800CDE900693B464AF010010120C04730B99B
:1011580028460DF5727DBDE8F087072D05D00925D5
:1011680028460DF5727DBDE8F0872046316CFFF703
:1011780079FF03A800F0A2FB406C7047F0B5CB6B79
:101188000B6401F1040C0E460546BCE80F00F9B0EB
:1011980001AC0FC4BCE80F000FC4BCE80F000FC4BB
:1011A8009CE80F004FF0FF3784E80F00009706E037
:1011B8002B696A46294698470828044608D1109999
:1011C8002846FFF7D1FE0028F2D0092079B0F0BDFB
:1011D8006846FFF713FF062CF7D131462846FFF77C
:1011E80043FF00BFC160D96B8261196400221946B0
:1011F80058E700BF70B5C66843690B64AEB90369A8
:101208000A4604460D46014602209847072805D09D
:1012180008280FD129462046FFF726FF3046296CBB
:10122800FFF720FF281D00F049FB0122FFF73AFFD6
:1012380003F0DAFF03F0D8FFC2681AB1CA6B0A6478
:1012480000222FE79AE700BF704700BF8368014676
:101258000BB1012018477047012910D009D883B96C
:101268000F2A0ED800EB820218465368009A1360C2
:101278007047033901298CBF0220012070470846B6
:1012880070470220704700BF00B585B00A460023AA
:1012980003A900911946FFF7DFFF039805B05DF831
:1012A80004FB00BF012910D009D883B90F2A0ED832
:1012B800009900EB820209685160184670470339AB
:1012C80001298CBF02200120704708467047022080
:1012D800704700BF10B584B0002303AC039200949C
:1012E8000A461946FFF7DEFF04B010BD70B5D36B90
:1012F800136402F1040C05460C46BCE80F00ADF57A
:101308000E7D0DF15C0EAEE80F00BCE80F00AEE8F4
:101318000F00BCE80F00AEE80F009CE80F004FF08C
:10132800FF368EE80F00169610E0FFF7D3FF214630
:1013380016A8A847034616AA6946082083B9049B3D
:101348009847052806460CD0092809D026996846EA
:10135800FFF70AFE03466A460C2116A8002BE4D0C4
:10136800092616A8FFF74AFE30460DF50E7D70BD1A
:101378002DE9F04F9346CA6C89B00D4652F8041B0C
:10138800069200F0030C002B79D00C0C8DF81D4050
:101398000904E4B2059102EB840202212F6D8DF855
:1013A8001C10BCF1020F08BFAA6B17F001070CD084
:1013B80005A9584600F084FB18B9082009B0BDE813
:1013C800F08F092009B0BDE8F08F1668002EEFD025
:1013D80000F008010191B246029764469946B9F1B6
:1013E800020F48D0B2F800A0568802F10408AA6C8F
:1013F80026F001030F2158469F18FFF745FF874243
:1014080037D82AF001023A44824294BF00220122CE
:10141800730003F002030AF0010A43EA0A03012BEE
:1014280047D0022B31D0002BCBD114B1002A40F089
:10143800C98008F10402D2F800A0BAF1000FCED199
:1014480005A95846029F00F03BFB0028B9D1002FA0
:10145800B3D00F215846FFF717FF0E210246584612
:10146800FFF738FF674A0F215846FFF733FF072079
:10147800A8E70022CCE7566802F10808B7E7090296
:1014880005918DF81D30032188E7D8F8006026F013
:101498000043002C44D122B1019A002A5AD0002BD3
:1014A80058D0002E01DA08F10408013308EB830252
:1014B800C1E7ECB9CAB1D8F80430D8F80020991CB3
:1014C8004FEAD2723FF47DAF05F158010133049120
:1014D80000F08B8008F10400FFF7BEFD04AB014665
:1014E8002846AFF30080002857D108F10802A2E788
:1014F8000D215846FFF7C8FE2B6A8342F5D1AB6A27
:101508009845F2D14046FFF7DFFC0F2102465846C6
:10151800FFF7E0FE2A4600215846FFF7DBFEA6E764
:101528000D2158460393FFF7AFFE2A6A039B8242B8
:10153800B7D1AA6A9045B4D100270422C5E90B7235
:101548004244AB626A63D8F80020BA4255DB0122F4
:101558000292AAE7039408F1040A002605F1580745
:101568001C460DE050460497FFF776FD0022014621
:1015780004AB284601360AF1040AAFF30080E0B94B
:10158800A642EFD10D215846FFF77EFE049BC5F811
:101598002880C5E90803062014E704460D215846AB
:1015A800FFF772FE049E2862022C04BFEE6205F16A
:1015B8002C06C5E90968062004E72346D8F8006028
:1015C800039C6EE74046FFF77FFC08F104020446DF
:1015D800AA632846AFF3008000283FF4F2AE224603
:1015E8000F215846FFF776FE41E70C4658460D2175
:1015F800FFF74AFE26462862DBE7581C08EB800006
:1016080081E700BF000000000023B1E60123AFE638
:101618000223ADE62DE9F0430646C3B015461C4645
:10162800042900F2D180DFE801F0AC51CF2A030091
:10163800002C40F0C980102A00F2C6800368DC063E
:1016480000F1E78020AF384600F0AAF9B46B3946BC
:1016580000234FF0010C0CFA03F22A42204603F152
:10166800010303D050F8042B0A600446042B01F14F
:101678000401F0D1B463384600F088F999E0032CEE
:1016880040F0A28094B204EB1243102B4FEA1245AB
:1016980000F29A8003681F0700F1C38020AF384624
:1016A80000F052F9B26B07EBC50154B10B46D01AE2
:1016B80001EBC401E4001D5843F8045B8B42FAD1E6
:1016C8002244B263384600F01DF972E0012C4FEA5B
:1016D800124895B271D0052C76D108EB0509B9F1FD
:1016E800200F71D8B8F10F0F72D8B9F1100F036835
:1016F80000F29F80D90708D523F00103304643F054
:10170800020340F8483B00F0F1F820AF384600F0FB
:10171800EDF8B36B002D00F0B9806D006A1E07EB81
:10172800C80100250132043903EB820253F8040B87
:1017380041F8040F9342F9D1002D00F0A1804146F1
:10174800102938BF10216B0010396F46013B07EB99
:10175800C1010133043902EB830352F8040B41F849
:10176800040F9A42F9D1012C00F08880B8F10F0FCC
:10177800B26302D820A800F0B5F8384600F0BAF8ED
:1017880017E00CBB806B23461FFA82FC0124371D2F
:1017980004FA03F111EA0C0F024604D052F8041BB4
:1017A80047F8231010460133102BF1D1AC0400D4B4
:1017B800B063002043B0BDE8F08308EB0503102BAD
:1017C80002D8B8F1100F14D1022043B0BDE8F0835D
:1017D800002DEED003685A075CD46F46384600F0F7
:1017E8008DF8B26B6B00A8F11001013B07EBC1014A
:1017F800AFE70368DA0759D420AF384600F06EF82F
:10180800B36B002D89D10433B363384600F062F816
:10181800CFE723F01003036000F5E87000F0C0F88C
:1018280010E723F00803036000F5A87000F08CF8B7
:1018380034E7D90708D523F0010343F0020340F841
:10184800483B00F053F83368580706D5304623F074
:10185800040340F8D03B00F051F820AF384600F0C0
:1018680045F8684600F04AF8C8F110025200B36B18
:10187800A9F11005013A07EBC80153E720AFC2E709
:10188800012CC0D0B8F10F0FB36392D8384600F0DE
:1018980029F88EE723F0040340F8D03B6F4600F0A8
:1018A8002DF8384600F02AF8B26B9BE7304623F053
:1018B800030340F8483B00F011F89DE700F13401BC
:1018C80091E838009C46A6464CF8045D90E8FF0F66
:1018D800E54600BD90EC210B704700BF80EC210B62
:1018E800704700BF90EC200B704700BF80EC200BC6
:1018F800704700BFD0EC200B704700BFC0EC200B36
:10190800704700BFF0EC0201F0EC0211F0EC02218C
:10191800F0EC0231F0EC0241F0EC0251F0EC026123
:10192800F0EC0271F0EC0281F0EC0291F0EC02A113
:10193800F0EC02B1F0EC02C1F0EC02D1F0EC02E103
:10194800F0EC02F1704700BFE0EC0201E0EC02119C
:10195800E0EC0221E0EC0231E0EC0241E0EC025163
:10196800E0EC0261E0EC0271E0EC0281E0EC029153
:10197800E0EC02A1E0EC02B1E0EC02C1E0EC02D143
:10198800E0EC02E1E0EC02F1704700BFB0FC01813D
:10199800B0FC0191B0FC01A1B0FC01B1704700BFDF
:1019A800A0FC0181A0FC0191A0FC01A1A0FC01B157
:1019B800704700BFEC4600B52DE900502DE9FF1F28
:1019C8004FF000032DE90C0001A9FFF7D7FBDDF864
:1019D80040E012B0704700BFEC4600B52DE900505A
:1019E8002DE9FF1F4FF000032DE90C0001A9FFF7B7
:1019F80001FCDDF840E012B0704700BFEC4600B5CE
:101A08002DE900502DE9FF1F4FF000032DE90C00D0
:101A180001A9FFF711FCDDF840E012B0704700BFE4
:101A2800EC4600B52DE900502DE9FF1F4FF00003EB
:101A38002DE90C0001ABFFF7D5FBDDF840E012B053
:101A4800704700BFEC4600B52DE900502DE9FF1F97
:101A58004FF000032DE90C0001AAFFF747FCDDF861
:101A680040E012B0704700BF027A03467AB9427A62
:101A7800A2B14168013A10B44272086803220C1DF1
:101A88001A7202025C60000E10BC1A60704700688F
:101A9800013A1A7202021A60000E7047B0207047AD
:101AA80000B585B0002303AA009219460C22FFF75F
:101AB800D3FB039805B05DF804FB00BFF0E700BF57
:101AC8002DE9F043064685B00D464FF0000828463C
:101AD800FFF7CAFFB028044600F0DA80070646D5AB
:101AE80000F0F003802B5ED0B02B73D01BD8902B66
:101AF80000F09B80A02B12D1C34303F007034FF4DF
:101B08007F621A41010702F47F6201D542F48042E4
:101B1800002319463046FFF77DFD0028D7D009205D
:101B280005B0BDE8F083C02B6DD1C62800F09380C6
:101B3800C72800F0B28000F0F803C02B00F0D28074
:101B4800C82800F0DD80C928E9D12846FFF78CFFB6
:101B5800020300F00F0002F4702201300243012159
:101B680005233046FFF756FD0028B0D0D7E783009D
:101B7800DBB21F1D0DF10C0900231946CDF80090AA
:101B88000D223046FFF768FB039BCDF800906006F6
:101B98004CBFDF1BFF1800230D2219463046039760
:101BA800FFF780FB93E72846FFF75EFF24022043F8
:101BB800B0F5004FB3D004010023A2B21946304655
:101BC800FFF728FD0028AAD114F4004F18BF4FF0E2
:101BD80001087CE7B12851D0B22800F0AD80B328C5
:101BE8006DD000F0FC03B42B99D000F0070201324D
:101BF800012342F4002219463046FFF70BFD002866
:101C08003FF465AF8BE700F0F803D02B87D100F0E5
:101C180007020132052342F4002201213046FFF772
:101C2800F9FC00283FF453AF79E700F00D030D2BC2
:101C38003FF475AF03AF002300F00F021946009779
:101C48003046FFF709FB002300970D22194630465E
:101C5800FFF728FB3BE72846FFF706FF020300F0E3
:101C68000F00013002F47022032302431946304664
:101C7800FFF7D0FC00283FF42AAF50E72846FFF7CB
:101C8800F3FE431EDBB20E2B02467FF641AF46E75A
:101C9800B8F1000F40D0002042E72846FFF7E4FEE5
:101CA800431EDBB20E2B02463FF639AF0023042158
:101CB8003046FFF7AFFC00283FF409AF2FE728466E
:101CC800FFF7D2FE020300F00F00013002F4702289
:101CD8000123024319463046FFF79CFC00283FF4D5
:101CE800F6AE1CE700F00F020132032342F4202273
:101CF80019463046FFF78EFC00283FF4E8AE0EE7A1
:101D08002846FFF7B1FE00F0F00200F00F03103292
:101D1800013343EA023222E703AC434641460E222E
:101D280000943046FFF798FA009443460F22414644
:101D38003046FFF7B7FAAEE700230DF10C090D2284
:101D48001946CDF800903046FFF786FA2846FFF787
:101D58008BFE0206039C4FF002070BD500F07F00B4
:101D6800B840044428460394FFF77EFE030607F1B3
:101D78000707F3D400FA07F204F50174224400239C
:101D88000392CDF800900D2219463046FFF78AFAE3
:101D98009DE600BF10B5C26C536884B04FF0030CC9
:101DA80008321C0208461B0E01A9019402928DF804
:101DB8000CC08DF80D30FFF783FE04B010BD00BFD6
:101DC80008B5FFF77BFE806C08BD00BF08B5FFF7BC
:101DD80075FEC06CC379023300EB830008BD00BFF9
:101DE800704700BF72B6FEE700B595B034220021F7
:101DF80007A803F0EBF800230293039304930593D9
:101E080006930093214A116C41F080511164126CC1
:101E180002F080520092009A01931D4A116841F421
:101E280040411160126802F440420192019A022274
:101E3800079201210A9110210B910D920E9308230C
:101E48000F93B423109311921292139207A801F0E2
:101E58007FF9A0B901F0F4FE98B90F230293022389
:101E68000393002304934FF4A0530593069305218D
:101E780002A801F003F830B915B05DF804FBFFF7CC
:101E8800B1FFFFF7AFFFFFF7ADFF00BF003802401B
:101E98000070004008B501F0B3FFFFF7A5FF00F0A0
:101EA80015F800F043F800F01BF900F063F900F0B2
:101EB800ABF900F0C3F900F0DBF900F0F3F900F03A
:101EC8000BFA02F031FD02F027FEFEE784B0002293
:101ED8000092154B196B41F001011963196B01F060
:101EE8000101009100990192196B41F002011963F7
:101EF800196B01F00201019101990292196B41F0ED
:101F080004011963196B01F004010291029903920B
:101F18001A6B42F008021A631B6B03F00803039361
:101F2800039B04B0704700BF0038024010B582B070
:101F380000240094324B1A6B42F400121A631A6B95
:101F480002F400120092009A01941A6B42F4800283
:101F58001A631B6B03F480030193019B22462146FD
:101F68000B2001F0FFFE0B2001F00CFF224621465A
:101F78000C2001F0F7FE0C2001F004FF2246214658
:101F88000E2001F0EFFE0E2001F0FCFE2246214655
:101F9800102001F0E7FE102001F0F4FE2246214651
:101FA800112001F0DFFE112001F0ECFE224621464F
:101FB8002F2001F0D7FE2F2001F0E4FE2246214613
:101FC800392001F0CFFE392001F0DCFE22462146FF
:101FD8003A2001F0C7FE3A2001F0D4FE22462146FD
:101FE800452001F0BFFE452001F0CCFE22462146E7
:101FF800462001F0B7FE462001F0C4FE02B010BD35
:102008000038024082B00368B3F1804F04D00F4A11
:1020180093420ED002B07047002300930C4B1A6C09
:1020280042F001021A641B6C03F001030093009B49
:10203800F0E700230193064B1A6C42F002021A647F
:102048001B6C03F002030193019BE3E700040040CB
:102058000038024000B589B0002303930493059328
:10206800069307930368B3F1804F05D0194A93424A
:102078001AD009B05DF804FB00230193164B1A6BC4
:1020880042F002021A631B6B03F002030193019BE7
:1020980040F204430393022304930123079303A903
:1020A8000E4801F077FAE4E7002302930A4B1A6B13
:1020B80042F002021A631B6B03F002030293029BB5
:1020C8000323039302230493079303A9034801F00E
:1020D80061FACEE7000400400038024000040240E4
:1020E80000B58BB0002308930993019302930393DF
:1020F80004930593069307931D484FF080420260AE
:1021080009224260836041F63F72C26003618361C5
:1021180000F00AFDF8B900230893099308A91448A8
:1021280000F066FED0B96023019300230293039365
:102138000593082201A90E4800F05AFD88B90C221F
:1021480001A90B4800F054FD70B90948FFF782FF58
:102158000BB05DF804FBFFF745FEDCE7FFF742FE36
:10216800E1E7FFF73FFEEAE7FFF73CFEEDE700BFD8
:10217800C000002000B58BB0002308930993019399
:102188000293039304930593069307931C481D4AEF
:10219800026009224260836041F63F72C2600361B7
:1021A800836100F0C1FCF8B900230893099308A9DA
:1021B800134800F01DFED0B9602301930023029359
:1021C80003930593082201A90D4800F011FD88B971
:1021D8000C2201A90A4800F00BFD70B90848FFF766
:1021E80039FF0BB05DF804FBFFF7FCFDDCE7FFF7F8
:1021F800F9FDE1E7FFF7F6FDEAE7FFF7F3FDEDE7A5
:10220800780000200004004008B50A480A4B036023
:102218004FF46133436000238360C36003610C2281
:1022280042618361C36101F064FF00B908BDFFF733
:10223800D9FDFBE7E80500200050004008B50A4832
:102248000A4B03604FF46133436000238360C3602B
:1022580003610C2242618361C36101F04AFF00B946
:1022680008BDFFF7BFFDFBE7A005002000100140F7
:1022780008B50A480A4B03604FF4613343600023F2
:102288008360C36003610C2242618361C36101F012
:1022980030FF00B908BDFFF7A5FDFBE75805002092
:1022A8000044004008B50A480A4B03604FF4613304
:1022B800436000238360C36003610C224261836131
:1022C800C36101F016FF00B908BDFFF78BFDFBE7FE
:1022D800100500200048004008B50A480A4B036072
:1022E8004FF46133436000238360C36003610C22B1
:1022F80042618361C36101F0FCFE00B908BDFFF7CC
:1023080071FDFBE7C8040020001401402DE9F041ED
:1023180090B0044600230B930C930D930E930F93E8
:1023280003687A4A934212D0794A934200F08A802D
:10233800784A934200F00C81774A934200F06B810F
:10234800764A934200F0CB8110B0BDE8F0810025B9
:102358000095734B1A6C42F480121A641A6C02F4DA
:1023680080120092009A01951A6B42F004021A63D7
:102378001A6B02F004020192019A02951A6B42F05C
:1023880008021A631B6B03F008030293029B4FF4C5
:1023980080530B934FF00208CDF8308003270E9737
:1023A80008260F960BA95F4801F0F4F804230B9355
:1023B800CDF830800D950E970F960BA95A4801F06D
:1023C800E9F85A485A4B03604FF000634360856050
:1023D800C5604FF480630361456185614FF4807384
:1023E800C3610562456201F045FA28BB4F4BE363C0
:1023F8009C635048504B03604FF000634360402398
:1024080083600023C3604FF480620261436183618B
:102418004FF48072C2610362436201F02BFA70B913
:10242800444BA3639C6300221146352001F09AFCBB
:10243800352001F0A7FC87E7FFF7D4FCD6E7FFF7C4
:10244800D1FCEDE700250395354B5A6C42F010029C
:102458005A645A6C02F010020392039A04951A6B9C
:1024680042F001021A631B6B03F001030493049BFF
:102478004FF4C0630B9302230C9303230E9307239B
:102488000F930BA92D4801F085F82D482D4B0360BB
:102498004FF0006343608560C5604FF4806303615B
:1024A800456185614FF48073C3610562456201F03F
:1024B800E1F928BB224BE3639C632348234B036069
:1024C8004FF000634360402383600023C3604FF4F0
:1024D80080620261436183614FF48072C26103626A
:1024E800436201F0C7F970B9174BA3639C630022DC
:1024F8001146252001F036FC252001F043FC23E796
:10250800FFF770FCD6E7FFF76DFCEDE700500040E1
:102518000010014000440040004800400014014001
:102528000038024000080240000C02406804002005
:102538001060024008040020B86002400000024019
:10254800A80300204064024048030020B864024009
:1025580000250595934B1A6C42F400321A641A6CE4
:1025680002F400320592059A06951A6B42F00102B0
:102578001A631B6B03F001030693069B0C230B9352
:1025880002230C9303230E9307230F930BA986486A
:1025980001F000F88548864B03604FF00063436004
:1025A8008560C5604FF480630361456185614FF4C0
:1025B8008073C3610562456201F05CF928BB7B4BFF
:1025C800E3639C637B487C4B03604FF0006343608C
:1025D800402383600023C3604FF48062026143613B
:1025E80083614FF48072C2610362436201F042F971
:1025F80070B9704BA3639C6300221146262001F03A
:10260800B1FB262001F0BEFB9EE6FFF7EBFBD6E709
:10261800FFF7E8FBEDE700250795624B1A6C42F4DB
:1026280080221A641A6C02F480220792079A08958D
:102638001A6B42F004021A631B6B03F0040308933D
:10264800089B4FF440630B9302230C9303230E93D0
:1026580007230F930BA9594800F09CFF5848594B82
:1026680003604FF0006343608560C5604FF480638A
:102678000361456185614FF48073C36105624562FA
:1026880001F0F8F828BB4E4BE3639C634E484F4B70
:1026980003604FF000634360402383600023C360FE
:1026A8004FF480620261436183614FF48072C261BA
:1026B8000362436201F0DEF870B9434BA3639C6385
:1026C80000221146272001F04DFB272001F05AFB7C
:1026D8003AE6FFF787FBD6E7FFF784FBEDE700252F
:1026E8000995304B5A6C42F020025A645A6C02F039
:1026F80020020992099A0A951A6B42F004021A6399
:102708001B6B03F004030A930A9BC0230B93022359
:102718000C9303230E9308230F930BA9274800F06B
:1027280039FF2B482B4B03604FF0206343608560D3
:10273800C5604FF480630361456185614FF4807320
:10274800C3610562456201F095F828BB204BE3633D
:102758009C632148214B03604FF020634360402372
:1027680083600023C3604FF4806202614361836128
:102778004FF48072C2610362436201F07BF870B962
:10278800154BA3639C6300221146472001F0EAFA27
:10279800472001F0F7FAD7E5FFF724FBD6E7FFF764
:1027A80021FBEDE70038024000000240E80200206B
:1027B8008860024088020020A060024000080240B1
:1027C8002802002028600240C8010020586002400A
:1027D800680100202864024008010020A06402402B
:1027E800FEE7FEE7FEE7FEE7FEE770477047704743
:1027F80008B501F01FFB08BD08B5024801F032F921
:1028080008BD00BF6804002008B5024801F02AF995
:1028180008BD00BF2802002008B5024801F022F9CF
:1028280008BD00BFC801002008B5024801F01AF928
:1028380008BD00BFE802002008B5024801F012F9FF
:1028480008BD00BF8802002008B5024801F0A0FDBD
:1028580008BD00BFA005002008B5024801F098FD9A
:1028680008BD00BF5805002008B5024801F090FDDA
:1028780008BD00BF1005002008B5024801F0F2F8B5
:1028880008BD00BF0804002008B5024801F080FD1B
:1028980008BD00BFE805002008B5024801F0E2F8CD
:1028A80008BD00BF6801002008B5024801F0DAF849
:1028B80008BD00BFA803002008B5024801F0D2F8FF
:1028C80008BD00BF0801002008B5024801F0CAF899
:1028D80008BD00BF4803002008B5024801F058FDB4
:1028E80008BD00BFC804002082B0002100910B4B36
:1028F8005A6C42F480425A645A6C02F48042009244
:10290800009A01911A6C42F080521A641B6C03F011
:1029180080530193019B02B0704700BF003802400A
:1029280030B4036A026A22F00102026242688469D2
:1029380024F0730C0C6844EA0C0423F0020C8B6836
:1029480043EA0C03114DA84203D005F58065A8425F
:1029580005D123F00803CD682B4323F004030B4D66
:10296800A84203D005F58065A84207D122F4407239
:102978004D6945EA020C8A6942EA0C0242608461A8
:102988004A684263036230BC704700BF00000140E0
:1029980030B4036A026A22F4807202624268C4692F
:1029A80024F0730C0C6844EA0C0523F400738C685B
:1029B80043EA0423114CA04203D004F58064A042EA
:1029C80006D123F40063CC6843EA042323F480632C
:1029D8000A4CA04203D004F58064A04207D122F437
:1029E80040524C6942EA04128C6942EA041242607D
:1029F800C5614A68C263036230BC70470000014089
:102A080030B4036A026A22F4805202624468C269DE
:102A180022F4E6420D6842EA052223F400538D6849
:102A280043EA0533094DA84203D005F58065A8425D
:102A380004D124F480444D6944EA85144460C26199
:102A48004A680264036230BC704700BF000001405E
:102A58000368344A904212D0B0F1804F0FD0A2F5EB
:102A68007C4290420BD002F58062904207D002F57A
:102A78008062904203D002F57842904203D123F05D
:102A880070034A681343274A90422AD0B0F1804F16
:102A980027D0A2F57C42904223D002F58062904272
:102AA8001FD002F5806290421BD002F57842904216
:102AB80017D002F57052904213D002F5806290420E
:102AC8000FD002F5806290420BD0A2F59832904266
:102AD80007D002F58062904203D002F580629042EE
:102AE80003D123F44073CA68134323F080034A696F
:102AF800134303608B68C3620B688362094B984277
:102B080003D003F58063984201D10B690363012365
:102B18004361036913F0010F03D0036923F0010334
:102B2800036170470000014040B310B5044690F8B7
:102B38003D30F3B1022384F83D30214651F8040BAF
:102B4800FFF786FF012384F8463084F83E3084F886
:102B58003F3084F8403084F8413084F8423084F8BB
:102B6800433084F8443084F8453084F83D30002000
:102B780010BD80F83C30FFF745FADBE701207047CD
:102B880030B4036A026A22F0100202624468826961
:102B980022F4E6420D6842EA052223F020038D68FC
:102BA80043EA0513114DA84203D005F58065A842F4
:102BB80006D123F08003CD6843EA051323F04003D0
:102BC8000A4DA84203D005F58065A84207D124F430
:102BD80040644D6944EA85048D6944EA850444608B
:102BE80082614A688263036230BC7047000001401A
:102BF80038B590F83C30012B66D004460D460123C9
:102C080080F83C300C2A5AD8DFE802F007595959A5
:102C18001B5959593059595944000068FFF780FE2B
:102C28002268936943F0080393612268936923F04B
:102C3800040393612268936929690B439361002017
:102C48003EE00068FFF79CFF2268936943F4006345
:102C580093612268936923F480639361226893697E
:102C6800296943EA01239361002029E00068FFF7FE
:102C78008FFE2268D36943F00803D3612268D369C1
:102C880023F00403D3612268D36929690B43D36114
:102C9800002015E00068FFF7B3FE2268D36943F40B
:102CA8000063D3612268D36923F48063D361226807
:102CB800D369296943EA0123D361002000E0012098
:102CC800002384F83C3038BD0220FCE701F01F01E6
:102CD8004FF0010C0CFA01FC036A23EA0C030362AF
:102CE800036A8A40134303627047000010B5044624
:102CF8000846002942D194F83E30DBB2013B18BFA8
:102D08000123002B6ED1002851D1022384F83E30D4
:102D1800012201462068FFF7D9FF2368334A93420E
:102D280003D002F58062934203D15A6C42F4004208
:102D38005A6423682D4A934249D0B3F1804F46D054
:102D4800A2F57C42934242D002F5806293423ED083
:102D580002F5806293423AD002F57842934236D027
:102D680002F57052934232D0A2F5943293422ED09B
:102D78001A6842F001021A60002032E0042908D0E3
:102D880008290DD094F84130DBB2013B18BF01236C
:102D9800B7E794F83F30DBB2013B18BF0123B0E737
:102DA80094F84030DBB2013B18BF0123A9E704289F
:102DB80005D0082807D0022384F84130A8E7022369
:102DC80084F83F30A4E7022384F84030A0E79A68EB
:102DD80002F00702062A07D01A6842F001021A60B8
:102DE800002010BD0120FCE70020FAE700000140A8
:102DF80090F83C20012A3DD010B40346012280F807
:102E08003C20022280F83D2002685068946820F037
:102E1800700C086840EA0C0050601A681648824234
:102E28001AD0B2F1804F17D0A0F57C40824213D05F
:102E380000F5806082420FD000F5806082420BD09E
:102E480000F57840824207D000F57050824203D0E6
:102E5800A0F59430824204D124F0800449682143CB
:102E68009160012283F83D20002083F83C005DF842
:102E7800044B70470220704700000140002800F012
:102E88009B8070B50D4604464F4B1B6803F00F033B
:102E98008B4208D2CBB24C4A1370136803F00F036D
:102EA8008B4240F08B80236813F0020F17D013F089
:102EB800040F04D0454A936843F4E05393602368B1
:102EC80013F0080F04D0414A936843F460439360B9
:102ED8003E4A936823F0F003A1680B43936023688C
:102EE80013F0010F32D06368012B21D09A1E012AFA
:102EF80025D9364A126812F0020F61D033498A6820
:102F080022F0030213438B6000F0A0FF06462F4B0C
:102F18009B6803F00C036268B3EB820F16D000F0D5
:102F280095FF801B41F288339842F0D9032042E094
:102F3800264A126812F4003FE0D101203BE0234A00
:102F4800126812F0007FD9D1012034E01E4B1B68B3
:102F580003F00F03AB4207D9EAB21B4B1A701B6888
:102F680003F00F03AB422DD1236813F0040F06D0F2
:102F7800164A936823F4E053E1680B43936023688F
:102F880013F0080F07D0114A936823F460432169AE
:102F980043EAC103936000F047F80C4B9B68C3F306
:102FA80003130B4AD35CD8400A4B18600A4B1868C5
:102FB80000F000FF002070BD012070470120FAE7F3
:102FC8000120F8E70120F6E7003C02400038024003
:102FD800DC5200080800002004000020014B18689B
:102FE800704700BF0800002008B5FFF7F7FF044B43
:102FF8009B68C3F38223034AD35CD84008BD00BF53
:1030080000380240D452000808B5FFF7E7FF044B28
:103018009B68C3F34233034AD35CD84008BD00BF62
:1030280000380240D452000808B5464B9B6803F0AC
:103038000C03082B07D00C2B45D0042B01D0424899
:1030480008BD4248FCE73F4B5A6802F03F025B6804
:1030580013F4800F12D03B4B5968C1F388113B48D9
:103068000023A1FB0001FDF7B9FD364B5B68C3F3F4
:10307800014301335B00B0FBF3F0E1E7314B5868E3
:10308800C0F388104FEA401CBCEB000C6EEB0E0E30
:103098004FEA8E1343EA9C634FEA8C11B1EB0C01A3
:1030A80063EB0E03DB0043EA5173C90011EB000C1C
:1030B80043F10003990200234FEA8C2041EA9C5116
:1030C800FDF78CFDD1E71F4B5A6802F03F025B68A1
:1030D80013F4800F10D01B4B5968C1F388111B489B
:1030E8000023A1FB0001FDF779FD164B5B68C3F3D4
:1030F8000273B0FBF3F0A3E7124B5868C0F38810D3
:103108004FEA401CBCEB000C6EEB0E0E4FEA8E1320
:1031180043EA9C634FEA8C11B1EB0C0163EB0E039D
:10312800DB0043EA5173C90011EB000C43F10003C3
:10313800990200234FEA8C2041EA9C51FDF74EFD8D
:10314800D3E700BF003802400024F40040787D0136
:10315800002800F0018270B582B00446036813F0BD
:10316800010F41D0994B9B6803F00C03042B32D01C
:10317800964B9B6803F00C03082B27D0934B9B6856
:1031880003F00C030C2B59D06368B3F5803F5BD078
:10319800B3F5A02F5ED08D4B1A6822F480321A60E6
:1031A8001A6822F480221A606368002B5CD000F051
:1031B8004DFE0546854B1B6813F4003F14D100F003
:1031C80045FE401B6428F5D90320CCE17F4B5B68A2
:1031D80013F4800FD2D07D4B1B6813F4003F03D04B
:1031E8006368002B00F0BA81236813F0020F60D0E7
:1031F800764B9B6813F00C0F4AD0744B9B6803F016
:103208000C03082B3FD0714B9B6803F00C030C2B6D
:1032180069D0E368002B75D06D4B01221A6000F06D
:1032280015FE0546694B1B6813F0020F61D100F0CB
:103238000DFE401B0228F5D9032094E1634B5B681F
:1032480013F4800FA0D0C6E7604A136843F48033B4
:103258001360A9E75D4B1A6842F480221A601A6865
:1032680042F480321A609FE700F0F0FD0546574BA4
:103278001B6813F4003FB7D000F0E8FD401B64283A
:10328800F5D903206FE1514B5B6813F4800FBAD175
:103298004E4B1B6813F0020F03D0E368012B40F07C
:1032A8005F814A4A136823F0F803216943EAC1039E
:1032B8001360236813F0080F49D06369002B33D0DB
:1032C800434B0122C3F8802E00F0C0FD05463F4B5A
:1032D8005B6F13F0020F3AD100F0B8FD401B0228D3
:1032E800F5D903203FE1394B5B6813F4800F90D187
:1032F800CEE7364A136823F0F803216943EAC1038D
:103308001360D6E7324B00221A6000F09FFD054695
:103318002E4B1B6813F0020FCBD000F097FD401B1B
:103328000228F5D903201EE1294B0022C3F8802E7C
:1033380000F08CFD0546254B5B6F13F0020F06D09D
:1033480000F084FD401B0228F5D903200BE1236817
:1033580013F0040F76D01D4B1B6C13F0805F33D134
:1033680000230193194B1A6C42F080521A641B6CAB
:1033780003F080530193019B0125164B1B6813F43E
:10338800807F29D0A368012B3AD0052B3ED00F4B64
:103398001A6F22F001021A671A6F22F004021A67E4
:1033A800A368002B3CD000F051FD0646074B1B6F6D
:1033B80013F0020F45D100F049FD801B41F288331C
:1033C8009842F3D90320CEE00025D6E70038024022
:1033D80000004742007000406B4A136843F4807352
:1033E800136000F033FD0646674B1B6813F4807FBB
:1033F800C8D100F02BFD801B0228F5D90320B2E0CC
:10340800624A136F43F001031367C9E75F4B1A6FF2
:1034180042F004021A671A6F42F001021A67BFE706
:1034280000F014FD0646594B1B6F13F0020F08D02D
:1034380000F00CFD801B41F288339842F3D9032039
:1034480091E0EDB9A369002B00F08C804F4A926897
:1034580002F00C02082A54D0022B17D04C4B002241
:103468001A6600F0F3FC0446484B1B6813F0007F13
:1034780045D000F0EBFC001B0228F5D9032072E0D0
:10348800424A136C23F080531364DBE7404B00225D
:103498001A6600F0DBFC05463C4B1B6813F0007F06
:1034A80006D000F0D3FC401B0228F5D903205AE0CF
:1034B800E369226A1343626A43EA8213A26A5208E2
:1034C800013A43EA0243E26A43EA0263226B43EAAF
:1034D80002732E4A53602E4B01221A6600F0B6FC86
:1034E80004462A4B1B6813F0007F06D100F0AEFC9F
:1034F800001B0228F5D9032035E0002033E0002026
:1035080031E0012B31D0214B5B6803F48001E26983
:1035180091422CD103F03F02216A8A4229D1616A83
:1035280047F6C0721A40B2EB811F24D103F4403130
:10353800A26A5208013AB1EB024F1ED103F0706241
:10354800E16AB2EB016F1AD103F0E043226BB3EBEF
:10355800027F16D1002006E001207047012002E01A
:10356800012000E0002002B070BD0120FBE701202F
:10357800F9E70120F7E70120F5E70120F3E701204B
:10358800F1E70120EFE700BF00700040003802407B
:103598000000474200230F2B00F2E38070B582B091
:1035A80065E085684FEA430E032404FA0EF425EA21
:1035B8000405CC6804FA0EF42C438460446824EAB9
:1035C80002044A68C2F300129A40224342605CE057
:1035D800DC08083450F8242003F00705AD004FF04C
:1035E8000F0E0EFA05FE22EA0E0E0A69AA4042EAFA
:1035F8000E0240F824205CE0062200E0002202FAD5
:103608000EF22A430234574D45F82420564A94684E
:103618006FEA0C0224EA0C054E6816F4801F01D0EC
:103628004CEA0405504CA560E46802EA04054E68BB
:1036380016F4001F01D04CEA04054B4CE5606468A1
:1036480002EA04054E6816F4003F01D04CEA04056E
:10365800454C6560246822404D6815F4803F01D0D0
:103668004CEA0402404C226001330F2B77D8012228
:103678009A400C6804EA020C32EA0404F4D14C685B
:1036880004F00304013C012C8BD94A6802F00302C0
:10369800032A09D0C4685D000322AA4024EA020470
:1036A8008A68AA402243C2604A6802F00302022ADA
:1036B8008ED004684FEA430E032202FA0EF224EA7F
:1036C80002044A6802F0030202FA0EF22243026080
:1036D8004A6812F4403FC7D000220192234A546C32
:1036E80044F480445464526C02F480420192019A7A
:1036F8009C08A51C1B4A52F8255003F0030E4FEAFC
:103708008E0E0F2202FA0EF225EA0205184A90429E
:103718003FF474AF02F58062904216D002F58062E1
:10372800904214D002F58062904212D002F5806275
:10373800904210D002F5806290420ED002F580626D
:1037480090423FF459AF072259E7012257E7022276
:1037580055E7032253E7042251E705224FE702B059
:1037680070BD704700380140003C014000380240FD
:103778000000024030B405682C6824F480242C60D2
:10378800046863608368402B05D003689960036808
:10379800DA6030BC704703689A600368D960F8E75C
:1037A80010B40368D9B210390C4AA2FB01421209BD
:1037B8000B4CA25CC2655F2909D923F47F7323F0FF
:1037C800030304338365806D5DF8044B704723F46D
:1037D8007F7323F003038365F5E700BFABAAAAAAAA
:1037E800CC520008836A826992B9012B0AD0022B55
:1037F80002D00BB100207047C36A13F0807F28D134
:1038080000207047C36AB3F1C07F24D000207047FE
:10381800B2F5005F09D0022B25D9032B25D1C36A45
:1038280013F0807F23D100207047032B03D8DFE8F3
:1038380003F01404140A00207047C36A13F0807F51
:103848000DD100207047C36AB3F1C07F09D00020B2
:103858007047012070470120704701207047012000
:1038680070470120704701207047002070470120F1
:103878007047000070B5044600F0E8FA002C5BD0F1
:103888000546022384F83530002384F83430226852
:10389800136823F00103136023681A6812F0010FFC
:1038A8000AD000F0D3FA431B052BF5D92023636512
:1038B800032084F8350070BD1A68204911406268F9
:1038C800A0680243E068024320690243606902433A
:1038D800A0690243E0690243206A02430A43616A1D
:1038E80004291ED01A602668756925F00705636AE1
:1038F8001D43042B07D1A36A1D43E36A1BB120466D
:10390800FFF770FF90B975612046FFF749FFE26D38
:103918003F239340836000206065012384F835309D
:10392800C9E7E16A206B01430A43DBE7402363658B
:10393800012084F83500BEE70120BCE73F8010F085
:1039480038B50446856D90F8340001282BD0012045
:1039580084F8340094F83500C0B2012804D000235C
:1039680084F83430022038BD022084F83500002065
:1039780060652046FFF7FEFEE26D3F239340AB6093
:103988002268136843F016031360236C23B122687E
:10399800136843F0080313602268136843F00103B7
:1039A80013600020DFE70220DDE770B50446866D6E
:1039B80000F04CFA94F83530DBB2022B06D08023A5
:1039C8006365002384F83430012070BD0546226801
:1039D800136823F0160313602268536923F08003E9
:1039E8005361236CE3B12268136823F00803136062
:1039F8002268136823F00103136023681B6813F01F
:103A0800010F11D000F022FA431B052BF5D9202312
:103A18006365032084F83500002384F83430D4E744
:103A2800A36C002BDFD1E3E7E26D3F239340B36043
:103A3800012384F83530002084F83400C5E790F875
:103A48003530DBB2022B03D0802343650120704759
:103A5800052380F835300268136823F001031360EA
:103A680000207047F0B583B0044600230193724BE1
:103A78001D68724BA3FB0535AD0A876D3E68C26DA4
:103A880008239340334210D003681A6812F0040FD9
:103A98000BD01A6822F004021A60C26D0823934002
:103AA800BB60436D43F001034365E26D012393401E
:103AB800334209D02268526912F0800F04D0BB60EB
:103AC800636D43F002036365E26D04239340334260
:103AD80009D02268126812F0020F04D0BB60636D2F
:103AE80043F004036365E26D10239340334224D00E
:103AF8002268126812F0080F1FD0BB6023681A688A
:103B080012F4802F0DD01B6813F4002F04D1236CFE
:103B18009BB12046984710E0A36C73B120469847A4
:103B28000BE01A6812F4807F03D11A6822F00802A9
:103B38001A60236C0BB120469847E26D202393400E
:103B4800334255D02268126812F0100F50D0BB6073
:103B580094F83530DBB2052B0ED023681A6812F4BE
:103B6800802F33D01B6813F4002F2AD1636C002BED
:103B78003ED0204698473BE02268136823F016039E
:103B880013602268536923F080035361236CA3B147
:103B98002268136823F008031360E26D3F23934003
:103BA800BB60012384F83530002384F83430236D5A
:103BB800002B3FD0204698473CE0A36C002BE7D170
:103BC800EBE7E36BA3B12046984711E01A6812F4BB
:103BD800807F09D11A6822F010021A60012384F844
:103BE8003530002384F83430E36B0BB12046984716
:103BF800636DFBB1636D13F0010F17D0052384F8D3
:103C080035302268136823F001031360019B0133E8
:103C18000193AB4204D823681B6813F0010FF5D158
:103C2800012384F83530002384F83430E36C0BB179
:103C38002046984703B0F0BD08000020B5814E1B10
:103C480010B582B000230193194B1A6C42F08052D0
:103C58001A641B6C03F080530193019B154B0122DE
:103C68001A6400F0F3F80446134B5B6813F4803FC2
:103C780008D100F0EBF8001BB0F57A7FF4D90320E7
:103C880002B010BD0B4B01225A6400F0DFF8044665
:103C9800094B5B6813F4003F07D100F0D7F8001B0D
:103CA800B0F57A7FF4D90320EAE70020E8E700BFFF
:103CB8000038024000000E4200700040002807DB78
:103CC80000F01F02400901239340024A42F82030C5
:103CD800704700BF00E100E0002808DB0901C9B215
:103CE80000F1604000F5614080F80013704700F073
:103CF8000F000901C9B2014B1954704714ED00E0D7
:103D080000B500F00700C0F1070CBCF1040F28BF94
:103D18004FF0040C031D062B0FD9C31E4FF0FF3EB6
:103D28000EFA0CF021EA000199400EFA03FE22EA8D
:103D38000E0241EA02005DF804FB0023EEE70000F2
:103D4800074AD36823F4E0631B041B0C000200F449
:103D5800E060034343F0BF6343F40033D36070472C
:103D680000ED00E010B50446054BD868C0F302200A
:103D7800FFF7C6FF01462046FFF7AEFF10BD00BFA4
:103D880000ED00E008B5FFF799FF08BD0138B0F174
:103D9800807F0BD24FF0E0235861054AF02182F86A
:103DA80023100020986107221A617047012070478C
:103DB80000ED00E010B504460E4B1A784FF47A7304
:103DC800B3FBF2F30C4A1068B0FBF3F0FFF7DEFF29
:103DD80068B90F2C01D901200AE0002221464FF0D2
:103DE800FF30FFF7BFFF054B1C60002000E00120FB
:103DF80010BD00BF000000200800002004000020C3
:103E080008B50B4B1A6842F400721A601A6842F43B
:103E180080621A601A6842F480721A600320FFF701
:103E28008FFF0F20FFF7C6FFFEF75EFD002008BDDD
:103E3800003C0240034A1168034B1B780B44136093
:103E4800704700BF3006002000000020014B1868B2
:103E5800704700BF3006002038B50446FFF7F6FF6C
:103E68000546B4F1FF3F02D0044B1B781C44FFF712
:103E7800EDFF401BA042FAD338BD00BF0000002070
:103E8800026802F10C0353E8003F23F0C0030C3230
:103E980042E800310029F3D1202380F841307047EF
:103EA800026802F10C0353E8003F23F490730C32CC
:103EB80042E800310029F3D1026802F1140353E803
:103EC800003F23F00103143242E800310029F3D106
:103ED800036B012B05D0202380F8423000230363B5
:103EE8007047026802F10C0353E8003F23F0100307
:103EF8000C3242E800310029F3D1ECE790F8413068
:103F0800DBB2212B01D0022070478368B3F5805FB4
:103F180017D0036A5A1C02621A7803685A60C38C65
:103F28009BB2013B9BB2C3844BB90268D36823F0B0
:103F38008003D3600268D36843F04003D360002055
:103F480070470369002BE4D1036A1B880268C3F336
:103F580008035360036A02330362E0E710B50446BE
:103F68000268136923F44053C1680B4313618368E3
:103F780002691A4343691A43C3691A430168CB6843
:103F880023F4164323F00C031343CB6002685369F0
:103F980023F4407381690B4353610368314A9342A8
:103FA80006D002F58062934202D0FFF71DF801E0C7
:103FB800FFF72AF8E369B3F5004F29D00021031869
:103FC80049411B1841F10001C90041EA5371DB0066
:103FD800181863684FEA83024FEA937341F10001AE
:103FE800FCF7FCFD204AA2FB00314909642303FBCE
:103FF80011031B013233A2FB03235B0903F0F00218
:1040080002EB011203F00F03216813448B6010BD0B
:104018000023021843EB0301121841F10001C90003
:1040280041EA5271D200101841F1000162689218F9
:104038005B41FCF7D3FD0C4AA2FB0031490964231C
:1040480003FB1103DB003233A2FB03235B095A0095
:1040580002F4F87202EB011203F00703216813441B
:104068008B60D4E7001001401F85EB512DE9F04328
:1040780083B005460E4617469946DDF828802B681A
:104088001C6836EA04040CBF01240024BC4228D171
:10409800B8F1FF3FF3D0FFF7D9FEA0EB0900404588
:1040A80023D8B8F1000F22D02B68DA6812F0040F79
:1040B800E5D0802EE3D0402EE1D01A6812F0080F28
:1040C800DDD0002401941A6801925B680193019B7A
:1040D8002846FFF7E5FE08236B6485F84040012079
:1040E80000E0002003B0BDE8F0830320FAE70320D6
:1040F800F8E760B310B5044690F8413013B32423B1
:1041080084F841302268D36823F40053D3602046F2
:10411800FFF724FF2268136923F490431361226890
:10412800536923F02A0353612268D36843F4005388
:10413800D36000206064202384F8413084F8423042
:10414800606310BD80F84030FEF7E0F8D7E7012043
:1041580070472DE9F04182B01E4690F84130DBB23D
:10416800202B56D104460D469046002955D00AB951
:1041780001204FE000234364212380F84130FFF7FA
:1041880065FE0746A4F82480A4F82680A368B3F542
:10419800805F02D04FF0000814E023692BB34FF082
:1041A80000080FE0202384F84130032032E038F87B
:1041B800023B2268C3F308035360E28C92B2013ACF
:1041C80092B2E284E38C9BB293B100963B46002204
:1041D80080212046FFF74AFF0028E3D1002DE6D0D2
:1041E80015F8012B23685A60E7E7A8460025E9E798
:1041F80000963B46002240212046FFF737FF18B9BA
:10420800202384F8413005E0202384F8413003203E
:1042180000E0022002B0BDE8F0810120FAE7704713
:1042280008B50168CA6822F04002CA60202280F8F6
:104238004120FFF7F4FF002008BD70477047704722
:1042480010B5846B23685A6994F84130DBB2212B8E
:1042580010D023685A6902F0400294F84230DBB269
:10426800222B11D0636C43F0100363642046FFF7E0
:10427800E6FF10BD02F08002002AEAD00023E384A2
:104288002046FFF7FDFDE4E7002AEBD00023E38595
:104298002046FFF705FEE5E708B5806B0023C385D8
:1042A800C384FFF7CCFF08BD704790F84230DBB2FB
:1042B800222B69D18368B3F5805F4FD0826AB3F54A
:1042C800805F04D0002B56D10369002B53D10368BB
:1042D8005B681370836A01338362C38D9BB2013BB1
:1042E8009BB2C385002B51D100B583B00268D36857
:1042F80023F02003D3600268D36823F48073D3606B
:104308000268536923F001035361202380F8423087
:1043180000234363036B012B33D10023036302683B
:1043280002F10C0353E8003F23F010030C3242E87B
:1043380000310029F3D103681A6812F0100F06D073
:10434800002201921A6801925B680193019B818D9A
:10435800FFF7AAFF002003B05DF804FB0269002AFA
:10436800ACD1826A03685B68C3F308031380836A6D
:1043780002338362B1E703685B6803F07F0313705D
:10438800A8E7FFF75AFFE5E70220704700207047CB
:1043980010B582B0044602681368D068516913F0FA
:1043A8000F0F09D113F0200F0CD010F0200F09D0F7
:1043B8002046FFF77AFF16E011F0010115D110F43D
:1043C800907F12D1216B012979D013F0800F03D08F
:1043D80010F0800F40F0148113F0400F03D010F05C
:1043E800400F40F0118102B010BD13F0010F06D04C
:1043F80010F4807F03D0626C42F00102626413F013
:10440800040F04D019B1626C42F00202626413F026
:10441800020F04D019B1626C42F00402626413F016
:10442800080F07D010F0200F00D119B1626C42F0CC
:1044380008026264626C002AD5D013F0200F02D003
:1044480010F0200F29D123685B6903F04003626CE8
:1044580012F0080F00D163B32046FFF721FD23684F
:104468005B6913F0400F20D0226802F1140353E86F
:10447800003F23F04003143242E800310029F3D111
:10448800E36B73B1624A1A65E06BFFF7D8FA00284C
:10449800A9D0E06B036D9847A5E72046FFF705FF15
:1044A800D1E72046FFF7CBFE9DE72046FFF7C7FE82
:1044B80099E72046FFF7C3FE0023636493E713F0F0
:1044C800100F82D010F0100F3FF47FAF002301933C
:1044D8001368019353680193019B536913F0400FCC
:1044E80052D0E26B13685B689BB2002B3FF47BAF42
:1044F800A18D99427FF677AFE385D369B3F5807FC5
:1045080037D0226802F10C0353E8003F23F480738C
:104518000C3242E800310029F3D1226802F1140379
:1045280053E8003F23F00103143242E80031002928
:10453800F3D1226802F1140353E8003F23F040034B
:10454800143242E800310029F3D1202384F84230A4
:1045580000232363226802F10C0353E8003F23F091
:1045680010030C3242E800310029F3D1E06BFFF769
:104578001CFA02236363A18DE38D9BB2C91A89B229
:104588002046FFF791FE2EE7A18DE38D9BB2C91A55
:1045980089B2E38D9BB2002B3FF425AF00293FF48D
:1045A80022AF226802F10C0353E8003F23F4907312
:1045B8000C3242E800300028F3D1226802F11403DB
:1045C80053E8003F23F00103143242E8003000288A
:1045D800F3D1202384F8423000232363226802F1B8
:1045E8000C0353E8003F23F010030C3242E800307C
:1045F8000028F3D1022363632046FFF755FEF2E655
:104608002046FFF77BFCEEE62046FFF709FEEAE6C8
:10461800A142000808B5806B01234363036B012B9B
:1046280002D0FFF70BFE08BD818D4908FFF73CFE5D
:10463800F9E708B50346806B1B681B6813F4807F95
:104648002BD10023C385026802F10C0353E8003F15
:1046580023F480730C3242E800310029F3D1026858
:1046680002F1140353E8003F23F00103143242E837
:1046780000310029F3D1026802F1140353E8003F26
:1046880023F04003143242E800310029F3D12023FB
:1046980080F84230036B012B07D000234363036B80
:1046A800012B0FD0FFF7C9FD08BD026802F10C030A
:1046B80053E8003F23F010030C3242E80031002990
:1046C800F3D1EAE7818DFFF7EFFDEDE730B583B071
:1046D800044613468162828500254564222280F8BB
:1046E8004220C26B1F48D063E26B1F481064E26B24
:1046F8001E48D064E26B156520680A46011DE06B10
:10470800FFF71EF9019523681A6801925B68019307
:10471800019B23695BB1226802F10C0353E8003F57
:1047280043F480730C3242E800310029F3D1226847
:1047380002F1140353E8003F43F00103143242E846
:1047480000310029F3D1226802F1140353E8003F35
:1047580043F04003143242E800310029F3D100202D
:1047680003B030BD3B4600081D460008494200081A
:1047780008B590F84230DBB2202B08D149B10AB90C
:10478800012008BD00230363FFF7A0FFF9E702201B
:10479800F7E70120F5E70000034AD2F8883043F430
:1047A8007003C2F88830704700ED00E010B503468A
:1047B8000C4A0D490D48006840B10C480068034494
:1047C800521A934206D8094A136010BD0748084C8C
:1047D8000460F2E700F002FC0C2303604FF0FF30A6
:1047E800F3E700BF000002200004000034060020A8
:1047F800580800200120704708B500F0EFFB162389
:1048080003604FF0FF3008BD08B54FF0FF31FFF7E8
:10481800F3FFFEE7DFF834D0FFF7BEFF0C480D4981
:104828000D4A002302E0D458C4500433C4188C4203
:10483800F9D30A4A0A4C002301E013600432A24269
:10484800FBD300F0D1FBFDF725FB704700000220E9
:10485800000000205C0000209C5500085C0000203F
:1048680058080020FEE70000012800D0704708B56E
:104878004FF6FF73994200D008BD034800F058FA7C
:10488800024800F0F9F9F7E7440600204006002046
:10489800D0B50446B5EEC00AF1EE10FA10D4F7EE22
:1048A800007AB4EEE70AF1EE10FA02DD00261D4F99
:1048B80008E010EE100AFBF707FE06460F4601E077
:1048C80000260027A068FBF7DDFD32463B46FBF7D4
:1048D80053FEFCF7EBF807EE900AF8EEE77A636808
:1048E80033B923681B68FCEEE77AC3ED0D7AD0BDB7
:1048F800042B08D0082B0DD023681B68FCEEE77A40
:10490800C3ED107AF3E723681B68FCEEE77AC3ED82
:104918000E7AECE723681B68FCEEE77AC3ED0F7AA2
:10492800E5E700BF0000F03F38B52DED028B744C71
:10493800204600F071FAB7EE000A04F15400FFF7C0
:10494800A7FF9FED708A2BE0B0EE480A00F080F9CF
:10495800B1EE400A3EE0B0EE480A00F079F9B1EE57
:10496800400A52E0B0EE480A00F072F9B1EE400A8F
:1049780066E0B0EE480A00F06BF9B1EE400A624812
:10498800FFF786FF0520FFF767FA53A3D3E9002353
:1049980020462946FBF73AFCFCF7D0F808EE100A47
:1049A80018EE100AFBF790FD04460D464CA3D3E918
:1049B8000023FCF753F800285ED0B0EE480A00F058
:1049C80047F9B5EEC00AF1EE10FABDDDB0EE480ABF
:1049D80000F03EF94D48FFF75BFF43A3D3E90023FE
:1049E80020462946FBF712FCFCF7A8F808EE100A47
:1049F800B0EE480A00F02CF9B5EEC00AF1EE10FA54
:104A0800A9DDB0EE480A00F023F94148FFF740FF5E
:104A180037A3D3E9002320462946FBF7F7FBFCF729
:104A28008DF808EE100AB0EE480A00F011F9B5EE5C
:104A3800C00AF1EE10FA95DDB0EE480A00F008F968
:104A48003448FFF725FF2CA3D3E900232046294645
:104A5800FBF7DCFBFCF772F808EE100AB0EE480A28
:104A680000F0F6F8B5EEC00AF1EE10FA81DDB0EE0E
:104A7800480A00F0EDF882E79FED228A234CB0EE59
:104A8800480A2046FFF704FFB0EE480A04F1100078
:104A9800FFF7FEFEB0EE480A04F12000FFF7F8FE2B
:104AA800B0EE480A04F13000FFF7F2FE00240DE0F2
:104AB80004F0010300EE103AB8EEC00A1448FFF7FC
:104AC800E7FE6420FFF7C8F90134E4B2042CEFD9FB
:104AD800BDEC028B38BD00BF1A271792BF15A03F47
:104AE800182D4454FB212940182D4454FB21E93F3B
:104AF80065732D3852C1F03F182D4454FB21F93FFE
:104B08004406002000000000A806002078060020C7
:104B1800880600209806002038B513E0174800F0F2
:104B2800C1F807EE900AF8EE677A9FED157A67EEFE
:104B3800877AF7EE006A86EEA77ABDEEC77A114B40
:104B480083ED007A0D4D284600F0A6F80E4C20465D
:104B580000F0A6F95A2363842823A384284600F08A
:104B6800A1F880B2094B1880B0F5FA7FD6D2034875
:104B780000F098F8B0F5FA7FF9D3CFE740060020A7
:104B8800BD37863538060020440600203C06002044
:104B980008B54FF6FF710120FFF766FE08BD01E07A
:104BA80000F5B4700028FBDB01E0A0F5B470B0F5A7
:104BB800B47FFADC7047000008B5FFF7F0FF214A20
:104BC80082FB00320244C317C3EBA2135A2202FB32
:104BD8001303A0F15A02592A01D8C3F15A03A0F5C8
:104BE8008772592A01D8C3F15A035A2813D9A0F158
:104BF8005B02592A15D9A0F1B502592A17D9A0F292
:104C08000F1058281BD8104A02EB830393ED000AB3
:104C1800B1EE400A04E00C4A02EB830393ED000A6C
:104C280008BD094A02EB830393ED000AF8E7064A38
:104C380002EB830393ED000AB1EE400AF0E79FED23
:104C4800030AEDE7B7600BB6EC520008000000005D
:104C580008B510EE100AFBF737FC05A3D3E90023CB
:104C6800FBF78AFCFBF722FFFFF7A6FF08BD00BF92
:104C7800F8C1631ADCA54C40064AD2F8FC3043F070
:104C88008073C2F8FC30A2F55D42136843F001035B
:104C98001360704700ED00E0014B5B6803607047EC
:104CA800001000E008B52DED028B0D4B5B68026823
:104CB8009B1A07EE903AB8EE678AFEF7B5F907EE49
:104CC800100AB8EE477AC8EE077A9FED067A67EEC3
:104CD800877AFCEEE77A17EE900ABDEC028B08BDE6
:104CE800001000E0002474490246B0F80CC00368C4
:104CF800DB6B1B685B689BB2ACEB03039BB241891F
:104D0800994208D04368585C013191FBFCF30CFBD5
:104D18001311518170470020704710B5044641684F
:104D28000068FDF7E3FF2368DB68A36010BD00009F
:104D3800F8B50446334B436308218163D868E063C0
:104D480063640C22A264E0642F4B6365A265DA6891
:104D5800E2656366A166E2662C4B63674FF4807078
:104D680000F026FAA0670025A4F87C50A4F87E502D
:104D78004FF48076A4F8806084F88250244BC4F8FD
:104D88008430304600F014FAC4F88800A4F88C5037
:104D9800A4F88E50A4F8906084F892501D4FC4F87F
:104DA8009470304600F004FAC4F89800A4F89C50B7
:104DB800A4F89E50A4F8A06084F8A250C4F8A47087
:104DC800304600F0F5F9C4F8A800A4F8AC50A4F8EF
:104DD800AE50A4F8B06084F8B250C4F8B47030464D
:104DE80000F0E6F9C4F8B800A4F8BC50A4F8BE5026
:104DF800A4F8C06084F8C25004F1C400FFF73CFF77
:104E08002046F8BDC000002078000020A005002042
:104E1800580500201005002038B50446002580F804
:104E28008250B0F88020816F406FFFF7A1FC84F8B2
:104E38009250B4F89020D4F88810D4F88400FFF782
:104E480097FC84F8A250B4F8A020D4F89810D4F8AD
:104E58009400FFF78DFC84F8B250B4F8B020D4F871
:104E6800A810D4F8A400FFF783FC84F8C250B4F863
:104E7800C020D4F8B810D4F8B400FFF779FC04F1D6
:104E88003400FFF74AFF04F14400FFF746FF04F13E
:104E98005400FFF742FF04F16400FFF73EFF38BDFE
:104EA80030B585B0044604E004F19400FFF71CFF18
:104EB8002080B4F8A030D4F89420D26B12685268DD
:104EC80092B29B1A9BB2B4F89E209342ECD104F1A3
:104ED800C4052846FFF7E6FEB0F57A7F01D205B093
:104EE80030BDFF238DF80030B4F9222093B283F44B
:104EF80000431B0A8DF801308DF80220B4F92430E4
:104F08008DF80330B4F92600FBF7CCFA00222D4BBC
:104F1800FBF732FB00222C4BFBF778F9FBF7EEFD91
:104F28008DF80400B4F92800FBF7BCFA0022254BE1
:104F3800FBF722FB0022244BFBF768F9FBF7DEFDA9
:104F48008DF80500B4F92A00FBF7ACFA00221D4BD6
:104F5800FBF712FB00221C4BFBF758F9FBF7CEFDC1
:104F68008DF80600B4F92C00FBF79CFA0022154BCB
:104F7800FBF702FB0022144BFBF748F9FBF7BEFDD9
:104F88008DF8070094F830308DF8083094F82E30FA
:104F98007F338DF8093094F82F307F338DF80A303D
:104FA800637A8DF80B30AA238DF80C3064230D2218
:104FB8006946D4F89400FFF7CCF82846FFF76CFE52
:104FC8008DE700BF0000E03F0080564002440346E2
:104FD800934200D1704703F8011BF9E7014B1868A9
:104FE800704700BF0C00002070B50D4D0D4C641BC0
:104FF800A4100026A64209D10B4D0C4C00F056F91E
:10500800641BA4100026A64205D170BD55F8043BC8
:1050180098470136EEE755F8043B98470136F2E722
:1050280090550008905500089055000898550008BC
:105038007047704770B50F4E0C463168054611B978
:1050480000F0A6F830602146284600F0A1F8431C7D
:1050580003D14FF0FF34204670BDC41C24F0030474
:10506800A042F8D0211A284600F092F80130F2D177
:10507800EFE700BF480800202DE9F843CD1C25F0D4
:10508800030508350C2D38BF0C25002D064601DB1D
:10509800A94204D90C2333600020BDE8F883DFF867
:1050A800D48000F069F8D8F800301C4644BB294683
:1050B8003046FFF7BFFF431C044658D1D8F80040DC
:1050C8002746002F43D1002C4BD023683946304661
:1050D80004EB030900F05CF8814542D121686D1AA0
:1050E80029463046FFF7A6FF01303AD023682B4403
:1050F8002360D8F800305A6862BBC8F800700FE027
:105108002268521B20D40B2A17D96119A3422560A3
:1051180018BF5960636808BFC8F8001062514B6037
:10512800304600F02FF804F10B00231D20F0070093
:10513800C21A1CBF1B1AA350AFE76268A3420CBF78
:10514800C8F800205A60EBE723466468AEE73C469F
:105158007F68B6E71A465B68A342FBD10023536019
:10516800DEE70C233360304600F00CF894E7056066
:10517800D6E700BF4C0800200148FFF759BF00BF21
:10518800440800200148FFF754BF00BF440800202E
:1051980038B5064D0023044608462B60FFF706FB8A
:1051A800431C02D12B6803B1236038BD500800208E
:1051B80000F000B8012838BF012010B50446204689
:1051C80000F01AF800B110BD00F006F808B900F0B8
:1051D8000BF88047F3E70000024B1868BFF35B8FBA
:1051E800704700BF5408002008B5062000F034F8C6
:1051F8000120FFF709FB0000024B01461868FFF782
:105208003BBF00BF0C0000201F2938B505460C46DF
:1052180004D9162303604FF0FF3038BDC26B12B1BA
:1052280052F821304BB9284600F030F822460146A2
:105238002846BDE8384000F017B8012B0AD0591CA1
:1052480003D1162303600120E7E7002142F8241068
:10525800204698470020E0E7024B01461868FFF710
:10526800D3BF00BF0C00002038B5074D002304460B
:10527800084611462B60FFF7BFFA431C02D12B6882
:1052880003B1236038BD00BF50080020FFF7B2BA51
:105298000A44914200F1FF3300D1704710B511F86C
:1052A800014B03F8014F9142F9D110BDF8B500BF89
:1052B800F8BC08BC9E467047F8B500BFF8BC08BCEF
:0452C8009E46704747
:1052CC000006101600061016000000000102030470
:1052DC00000000000000000001020304060708099A
:1052EC000000000059F88E3CC6F20E3D3A5E563D69
:1052FC007BDC8E3DB67EB23D0513D63DA296F93DC4
:10530C0065830E3E5B30203ED4D0313E6F63433E0E
:10531C00CDE6543E9259663E60BA773EEE83843EAB
:10532C0057208D3EBEB1953E7A379E3EDFB0A63EED
:10533C00441DAF3E017CB73E6FCCBF3EE90DC83E6D
:10534C00C93FD03E6C61D83E2F72E03E7171E83E91
:10535C00945EF03EF738F83E0000003F89D9033FD9
:10536C00CAA8073F776D0B3F44270F3FE8D5123F84
:10537C001879163F8D101A3FFE9B1D3F241B213FB1
:10538C00BB8D243F7CF3273F254C2B3F72972E3F40
:10539C0022D5313FF304353FA726383FFF393B3F39
:1053AC00BD3E3E3FA634413F7D1B443F0AF3463F82
:1053BC0013BB493F60734C3FBD1B4F3FF3B3513F91
:1053CC00CE3B543F1DB3563FAE19593F516F5B3F17
:1053DC00D7B35D3F14E75F3FDA08623F0119643FC2
:1053EC005E17663FCA03683F1DDE693F35A66B3FFB
:1053FC00EC5B6D3F20FF6E3FB28F703F810D723FB3
:10540C007178733F63D0743F3F15763FEA46773F20
:10541C004D65783F5170793FE2677A3FEB4B7B3FAC
:10542C005C1C7C3F25D97C3F35827D3F81177E3FBC
:10543C00FD987E3F9E067F3F5C607F3F2FA67F3F9F
:0C544C0014D87F3F05F67F3F0000803F32
:1054580080C90181B0A908B10000000080C901819C
:10546800008408B10000000008B10181B0B00084D8
:105478000000000008B10181B0B000840000000005
:105488008CB7FF7F01000000E0BAFF7FB0A902805F
:105498006CBBFF7FB0B0A880BCBBFF7F01000000E1
:1054A800C8BBFF7FB0B0AA80FCBBFF7FAE71B280E3
:1054B800C8BCFF7F01000000C4BCFF7FAB3F388041
:1054C80024BDFF7F010000002CBDFF7FB0B0AA8083
:1054D80068BDFF7F0100000014BEFF7FAA0DB280E7
:1054E80090BEFF7FB0AF088020C1FF7F01000000A1
:1054F80024C1FF7FAD3F0280C4C3FF7F01000000CD
:10550800A0C5FF7F00840480B4C5FF7F01000000B0
:10551800B0C5FF7FB0AD04807CC8FF7FB0A8038012
:10552800A0C8FF7F44FFFF7FA4C8FF7F48FFFF7F1D
:10553800B0C8FF7F01000000F0F3FF7F14FFFF7F7A
:10554800D8F5FF7FA908B18048F6FF7F0100000069
:1055580054F7FF7F08FFFF7F90F7FF7F01000000EF
:10556800BAF7FF7FB0B0A880C8F7FF7FAB08B1805B
:10557800A8F8FF7FA908B18028F9FF7FB0A90480A7
:085588004CFAFF7F0100000056
:08559000ED010008994B000831
:04559800C90100083D
:10559C0001000000100000000024F40010000020A6
:1055AC00000000000C07002074070020DC0700201E
:1055BC0000000000000000000000000000000000DF
:1055CC0000000000000000000000000000000000CF
:1055DC0000000000000000000000000000000000BF
:0C55EC00000000000000000000000000B3
:040000050800481D8A
:00000001FF
