:020000040800F2
:10000000000002200D3700082123000823230008E8
:1000100025230008272300082923000800000000EA
:100020000000000000000000000000002B2300087A
:100030002D230008000000002F23000831230008B2
:100040005D3700085D3700085D3700085D37000840
:100050005D3700085D3700085D3700085D37000830
:100060005D3700085D3700085D3700085D37000820
:100070005D3700085D3700085D3700085D37000810
:100080005D3700085D3700085D3700085D37000800
:100090005D3700085D3700085D3700085D370008F0
:1000A0005D3700085D3700085D3700085D370008E0
:1000B0005D3700085D3700085D3700085D370008D0
:1000C0005D3700085D3700085D3700085D370008C0
:1000D0005D3700085D3700085D3700085D370008B0
:1000E0005D3700085D3700085D3700085D370008A0
:1000F0005D3700085D3700085D3700085D37000890
:100100005D3700085D3700085D3700085D3700087F
:100110005D3700085D3700085D3700085D3700086F
:100120005D3700085D3700085D3700085D3700085F
:100130005D37000800000000000000005D37000887
:100140005D3700085D3700085D3700085D3700083F
:100150005D3700085D3700085D3700085D3700082F
:100160005D3700085D3700085D3700085D3700081F
:100170005D3700085D3700085D37000800000000AB
:10018000000000005D3700080000000000000000D3
:100190005D37000800000000000000005D37000827
:1001A0000000000000000000000000005D370008B3
:1001B0005D3700085D3700085D3700085D370008CF
:0401C0005D3700089F
:1001C40010B5054C237833B9044B13B10448AFF38D
:1001D40000800123237010BD5C000020000000009B
:1001E400283A000808B5034B1BB103490348AFF391
:1001F400008008BD0000000060000020283A0008CC
:1002040081F0004102E000BF83F0004330B54FEAC3
:1002140041044FEA430594EA050F08BF90EA020F30
:100224001FBF54EA000C55EA020C7FEA645C7FEAC3
:10023400655C00F0E2804FEA5454D4EB5555B8BFE6
:100244006D420CDD2C4480EA020281EA030382EA57
:10025400000083EA010180EA020281EA0303362DE9
:1002640088BF30BD11F0004F4FEA01314FF4801CBC
:100274004CEA113102D0404261EB410113F0004FCE
:100284004FEA03334CEA133302D0524263EB430385
:1002940094EA050F00F0A780A4F10104D5F1200E23
:1002A4000DDB02FA0EFC22FA05F2801841F100017E
:1002B40003FA0EF2801843FA05F359410EE0A5F152
:1002C40020050EF1200E012A03FA0EFC28BF4CF083
:1002D400020C43FA05F3C01851EBE37101F0004539
:1002E40007D54FF0000EDCF1000C7EEB00006EEB46
:1002F4000101B1F5801F1BD3B1F5001F0CD34908D0
:100304005FEA30004FEA3C0C04F101044FEA445226
:1003140012F5800F80F09A80BCF1004F08BF5FEAAD
:10032400500C50F1000041EB045141EA050130BD8D
:100334005FEA4C0C404141EB0101013C28BFB1F59F
:10034400801FE9D291F0000F04BF01460020B1FAEA
:1003540081F308BF2033A3F10B03B3F120020CDABD
:100364000C3208DD02F1140CC2F10C0201FA0CF09B
:1003740021FA02F10CE002F11402D8BFC2F1200C00
:1003840001FA02F120FA0CFCDCBF41EA0C019040B6
:10039400E41AA2BF01EB0451294330BD6FEA0404FF
:1003A4001F3C1CDA0C340EDC04F11404C4F12002EA
:1003B40020FA04F001FA02F340EA030021FA04F3FC
:1003C40045EA030130BDC4F10C04C4F1200220FA53
:1003D40002F001FA04F340EA0300294630BD21FA91
:1003E40004F0294630BD94F0000F83F4801306BF57
:1003F40081F480110134013D4EE77FEA645C18BF4B
:100404007FEA655C29D094EA050F08BF90EA020FE1
:1004140005D054EA000C04BF1946104630BD91EAD9
:10042400030F1EBF0021002030BD5FEA545C05D1DC
:100434004000494128BF41F0004130BD14F580041B
:100444003CBF01F5801130BD01F0004545F0FE418F
:1004540041F470014FF0000030BD7FEA645C1ABFC4
:10046400194610467FEA655C1CBF0B46024650EAFB
:10047400013406BF52EA033591EA030F41F4002127
:1004840030BD00BF90F0000F04BF0021704730B5AD
:100494004FF4806404F132044FF000054FF0000182
:1004A40050E700BF90F0000F04BF0021704730B543
:1004B4004FF4806404F1320410F0004548BF404218
:1004C4004FF000013EE700BF42004FEAE2014FEA6D
:1004D40031014FEA02701FBF12F07F4393F07F4F48
:1004E40081F06051704732F07F4208BF704793F04B
:1004F4007F4F04BF41F40021704730B54FF460745E
:1005040001F0004521F000411CE700BF50EA010260
:1005140008BF704730B54FF000050AE050EA010209
:1005240008BF704730B511F0004502D5404261EB79
:1005340041014FF4806404F132045FEA915C3FF4BA
:10054400D8AE4FF003025FEADC0C18BF03325FEA57
:10055400DC0C18BF033202EBDC02C2F1200300FA08
:1005640003FC20FA02F001FA03FE40EA0E0021FA2D
:1005740002F11444BDE600BF70B54FF0FF0C4CF41B
:10058400E06C1CEA11541DBF1CEA135594EA0C0FCD
:1005940095EA0C0F00F0DEF82C4481EA030621EA08
:1005A4004C5123EA4C5350EA013518BF52EA033543
:1005B40041F4801143F4801338D0A0FB02CE4FF0F5
:1005C4000005E1FB02E506F00042E0FB03E54FF025
:1005D4000006E1FB03569CF0000F18BF4EF0010E1D
:1005E400A4F1FF04B6F5007F64F5407404D25FEA19
:1005F4004E0E6D4146EB060642EAC62141EA5551CC
:100604004FEAC52040EA5E504FEACE2EB4F1FD0C0D
:1006140088BFBCF5E06F1ED8BEF1004F08BF5FEA8B
:10062400500E50F1000041EB045170BD06F000463D
:1006340046EA010140EA020081EA0301B4EB5C04EA
:10064400C2BFD4EB0C0541EA045170BD41F48011E2
:100654004FF0000E013C00F3AB8014F1360FDEBF07
:10066400002001F0004170BDC4F10004203C35DAE3
:100674000C341BDC04F11404C4F1200500FA05F366
:1006840020FA04F001FA05F240EA020001F0004207
:1006940021F0004110EBD37021FA04F642EB06017D
:1006A4005EEA430E08BF20EAD37070BDC4F10C04A7
:1006B400C4F1200500FA04F320FA05F001FA04F26B
:1006C40040EA020001F0004110EBD37041F1000157
:1006D4005EEA430E08BF20EAD37070BDC4F1200562
:1006E40000FA05F24EEA020E20FA04F301FA05F2CA
:1006F40043EA020321FA04F001F0004121FA04F272
:1007040020EA020000EBD3705EEA430E08BF20EA41
:10071400D37070BD94F0000F0FD101F0004640007B
:1007240041EB010111F4801F08BF013CF7D041EAFD
:10073400060195F0000F18BF704703F00046520001
:1007440043EB030313F4801F08BF013DF7D043EAD2
:100754000603704794EA0C0F0CEA135518BF95EA88
:100764000C0F0CD050EA410618BF52EA4306D1D10F
:1007740081EA030101F000414FF0000070BD50EA2E
:10078400410606BF1046194652EA430619D094EAB8
:100794000C0F02D150EA013613D195EA0C0F05D1A2
:1007A40052EA03361CBF104619460AD181EA0301F6
:1007B40001F0004141F0FE4141F470014FF00000AE
:1007C40070BD41F0FE4141F4780170BD70B54FF049
:1007D400FF0C4CF4E06C1CEA11541DBF1CEA1355C9
:1007E40094EA0C0F95EA0C0F00F0A7F8A4EB0504AB
:1007F40081EA030E52EA03354FEA013100F08880A2
:100804004FEA03334FF0805545EA131343EA12636A
:100814004FEA022245EA111545EA10654FEA00261F
:100824000EF000419D4208BF964244F1FD0404F5D8
:10083400407402D25B084FEA3202B61A65EB030534
:100844005B084FEA32024FF480104FF4002CB6EBF1
:10085400020E75EB030E22BFB61A754640EA0C0071
:100864005B084FEA3202B6EB020E75EB030E22BFB1
:10087400B61A754640EA5C005B084FEA3202B6EBF2
:10088400020E75EB030E22BFB61A754640EA9C00B1
:100894005B084FEA3202B6EB020E75EB030E22BF81
:1008A400B61A754640EADC0055EA060E18D04FEA3F
:1008B400051545EA16754FEA06164FEAC30343EADF
:1008C40052734FEAC2025FEA1C1CC0D111F4801FAC
:1008D4000BD141EA00014FF000004FF0004CB6E7A5
:1008E40011F4801F04BF01430020B4F1FD0C88BF44
:1008F400BCF5E06F3FF6AFAEB5EB030C04BFB6EB4F
:10090400020C5FEA500C50F1000041EB045170BD41
:100914000EF0004E4EEA113114EB5C04C2BFD4EB6E
:100924000C0541EA045170BD41F480114FF0000EF2
:10093400013C90E645EA060E8DE60CEA135594EA6E
:100944000C0F08BF95EA0C0F3FF43BAF94EA0C0F71
:100954000AD150EA01347FF434AF95EA0C0F7FF4E6
:1009640025AF104619462CE795EA0C0F06D152EA3A
:1009740003353FF4FDAE1046194622E750EA41061E
:1009840018BF52EA43067FF4C5AE50EA41047FF42F
:100994000DAF52EA43057FF4EBAE12E74FEA410292
:1009A40012F5001215D211D56FF47873B3EB6252BD
:1009B40012D94FEAC12343F0004343EA505311F0E4
:1009C400004F23FA02F018BF404270474FF0000076
:1009D400704750EA013005D111F0004008BF6FF0B4
:1009E400004070474FF00000704700BF53B94AB948
:1009F400002908BF00281CBF4FF0FF314FF0FF3023
:100A040001F0F6B8ADF1080C6DE904CE00F006F87B
:100A1400DDF804E0DDE9022304B070472DE9F04776
:100A2400089D0C46002B4ED194468C458646B2FA5E
:100A340082F262D94AB1C2F12003914020FA03F351
:100A44000CFA02FC194300FA02FE4FEA1C471FFA93
:100A54008CF6B1FBF7F44FEA1E4307FB141143EA8B
:100A6400014304FB06F199420AD91CEB030304F188
:100A7400FF3080F01281994240F20F81023C6344BE
:100A8400591A1FFA8EF3B1FBF7F007FB101143EA72
:100A9400014300FB06F69E420AD91CEB030300F156
:100AA400FF3180F0FC809E4240F2F98063440238BA
:100AB4009B1B40EA044000211DB1D3400022C5E93C
:100AC4000032BDE8F0878B4205D90DB1C5E90001BC
:100AD40000210846F5E7B3FA83F1002946D1A34281
:100AE40002D39042C0F0F080861A64EB0303012025
:100AF400002DE6D0C5E90063E3E7002A40F09080CA
:100B0400A1EB0C044FEA1C481FFA8CF70121B4FB3B
:100B1400F8F64FEA1E4308FB164443EA044307FB76
:100B240006F0984208D91CEB030306F1FF3402D205
:100B3400984200F2CD8026461C1A1FFA8EF3B4FBAD
:100B4400F8F008FB104443EA044300FB07F79F4214
:100B540008D91CEB030300F1FF3402D29F4200F2D8
:100B6400B0802046DB1B40EA0640A5E7C1F1200621
:100B74008B4022FA06F71F4320FA06FC04FA01F31D
:100B840043EA0C03F44000FA01F8380C4FEA134925
:100B9400B4FBF0FE1FFA87FC00FB1E4449EA044440
:100BA4000EFB0CF9A14502FA01F20AD93C190EF127
:100BB400FF3A80F08480A14540F28180AEF1020EBC
:100BC4003C44A4EB09041FFA83F9B4FBF0F300FBE3
:100BD400134449EA044403FB0CFCA44507D93C191B
:100BE40003F1FF3067D2A44565D9023B3C4443EA94
:100BF4000E40A0FB0293A4EB0C049C42CE469C4600
:100C040051D34ED055B1B8EB0E0364EB0C0404FA87
:100C140006F6CB401E43CC40C5E90064002150E7F2
:100C2400C2F1200320FA03F10CFA02FC24FA03F3C4
:100C340094400C434FEA1C4800FA02FE1FFA8CF75A
:100C4400B3FBF8F008FB1031230C43EA014300FB2B
:100C540007F1994208D91CEB030300F1FF362CD2AB
:100C640099422AD9023863445B1AA4B2B3FBF8F15F
:100C740008FB113344EA034401FB07F3A34208D9F8
:100C84001CEB040401F1FF3613D2A34211D902393B
:100C94006444E41A41EA004139E70446F0E60846B0
:100CA40006E7C845AED2B9EB020E63EB070C013878
:100CB400A8E73146EDE7034699E73046D4E7D64640
:100CC4007FE7634402384DE70646234608460FE7AC
:100CD400023E634430E700BF03685A004CBF43F050
:100CE400004323F000431844704700BF2DE9F84344
:100CF40049B34F1E044615463E464FF0000909EB22
:100D0400060101EBD171491004EBC1084046FFF71D
:100D1400E3FF8F4203464FEAC1000FD00830AB42D5
:100D2400204407D8FFF7D8FF0138A84208D201F1C0
:100D34000109E4E7894506D04E1EE0E7AB42F9D845
:100D44004046BDE8F8834FF000084046BDE8F8830C
:100D5400012807D0022807D0044B00280CBF1846EE
:100D64000020704702487047024870471D1400086D
:100D7400211400082514000830B5214B83B0044623
:100D84008D1E1BB301A92846AFF3008088B30199D7
:100D94002A46FFF7ABFF014658B3FFF79DFF4B68A8
:100DA400A064012B28D0002B01F104001FDBFFF706
:100DB40093FF002323650368E064002B0DDBFFF73A
:100DC4008BFF03460020236103B030BD0D4B0E4959
:100DD400C91AC91018460191DAE7C3F30360FFF793
:100DE400B7FF034628B10020236103B030BD0123BF
:100DF400E0E700230920E6E700230520E3E700BF3E
:100E040000000000743A0008543B00080368DA0745
:100E140010B5044606D49B0700F1480009D500F03C
:100E240069FC2368590709D51A070ED5DB0613D5C3
:100E340010BD00F057FC23685907F5D404F1D00025
:100E440000F060FC23681A07F0D404F5A87000F0E1
:100E540061FC2368DB06EBD404F5E870BDE81040C0
:100E640000F09CBC092070470346006800B1184498
:100E7400704700BF704700BF70B504460E46316C22
:100E84002046FFF779FF054688B9326C6261236911
:100E940032462146012098470828F0D0072806D179
:100EA4002846316CFFF7E6FF301D00F00FFC02F01E
:100EB4006DFD00BF2DE9F0470D1DD0F80C80D0F872
:100EC4001890074614460FCDADF5727D0DF10C0C4C
:100ED400ACE80F000FCDACE80F000FCDACE80F006D
:100EE40095E80F0002AE4FF0000E8CE80F00C6F834
:100EF40000E020E0336C7B614FF4F07231467AA855
:100F040002F036FD3B697AAA394650469847889BD9
:100F140073642146CDE9006905463B463A46012003
:100F2400C047044618BB4FF4F0727AA9304602F069
:100F34001FFD082D19D1316C3846FFF71DFF093408
:100F44005FFA84FA05460028D4D0B36B73643A463A
:100F5400CDE900693B464AF010010120C04730B991
:100F640028460DF5727DBDE8F087072D05D00925CB
:100F740028460DF5727DBDE8F0872046316CFFF7F9
:100F840079FF03A800F0A2FB406C7047F0B5CB6B6F
:100F94000B6401F1040C0E460546BCE80F00F9B0E1
:100FA40001AC0FC4BCE80F000FC4BCE80F000FC4B1
:100FB4009CE80F004FF0FF3784E80F00009706E02D
:100FC4002B696A46294698470828044608D110998F
:100FD4002846FFF7D1FE0028F2D0092079B0F0BDF1
:100FE4006846FFF713FF062CF7D131462846FFF772
:100FF40043FF00BFC160D96B8261196400221946A6
:1010040058E700BF70B5C66843690B64AEB903699D
:101014000A4604460D46014602209847072805D093
:1010240008280FD129462046FFF726FF3046296CB1
:10103400FFF720FF281D00F049FB0122FFF73AFFCC
:1010440002F0A4FC02F0A2FCC2681AB1CA6B0A64E2
:1010540000222FE79AE700BF704700BF836801466C
:101064000BB1012018477047012910D009D883B962
:101074000F2A0ED800EB820218465368009A1360B8
:101084007047033901298CBF0220012070470846AC
:1010940070470220704700BF00B585B00A460023A0
:1010A40003A900911946FFF7DFFF039805B05DF827
:1010B40004FB00BF012910D009D883B90F2A0ED828
:1010C400009900EB820209685160184670470339A1
:1010D40001298CBF02200120704708467047022076
:1010E400704700BF10B584B0002303AC0392009492
:1010F4000A461946FFF7DEFF04B010BD70B5D36B86
:10110400136402F1040C05460C46BCE80F00ADF56F
:101114000E7D0DF15C0EAEE80F00BCE80F00AEE8EA
:101124000F00BCE80F00AEE80F009CE80F004FF082
:10113400FF368EE80F00169610E0FFF7D3FF214626
:1011440016A8A847034616AA6946082083B9049B33
:101154009847052806460CD0092809D026996846E0
:10116400FFF70AFE03466A460C2116A8002BE4D0BA
:10117400092616A8FFF74AFE30460DF50E7D70BD10
:101184002DE9F04F9346CA6C89B00D4652F8041B02
:10119400069200F0030C002B79D00C0C8DF81D4046
:1011A4000904E4B2059102EB840202212F6D8DF84B
:1011B4001C10BCF1020F08BFAA6B17F001070CD07A
:1011C40005A9584600F084FB18B9082009B0BDE809
:1011D400F08F092009B0BDE8F08F1668002EEFD01B
:1011E40000F008010191B246029764469946B9F1AC
:1011F400020F48D0B2F800A0568802F10408AA6C85
:1012040026F001030F2158469F18FFF745FF874238
:1012140037D82AF001023A44824294BF00220122C4
:10122400730003F002030AF0010A43EA0A03012BE4
:1012340047D0022B31D0002BCBD114B1002A40F07F
:10124400C98008F10402D2F800A0BAF1000FCED18F
:1012540005A95846029F00F03BFB0028B9D1002F96
:10126400B3D00F215846FFF717FF0E210246584608
:10127400FFF738FF674A0F215846FFF733FF07206F
:10128400A8E70022CCE7566802F10808B7E709028C
:1012940005918DF81D30032188E7D8F8006026F009
:1012A4000043002C44D122B1019A002A5AD0002BC9
:1012B40058D0002E01DA08F10408013308EB830248
:1012C400C1E7ECB9CAB1D8F80430D8F80020991CA9
:1012D4004FEAD2723FF47DAF05F158010133049116
:1012E40000F08B8008F10400FFF7BEFD04AB01465B
:1012F4002846AFF30080002857D108F10802A2E77E
:101304000D215846FFF7C8FE2B6A8342F5D1AB6A1C
:101314009845F2D14046FFF7DFFC0F2102465846BC
:10132400FFF7E0FE2A4600215846FFF7DBFEA6E75A
:101334000D2158460393FFF7AFFE2A6A039B8242AE
:10134400B7D1AA6A9045B4D100270422C5E90B722B
:101354004244AB626A63D8F80020BA4255DB0122EA
:101364000292AAE7039408F1040A002605F158073B
:101374001C460DE050460497FFF776FD0022014617
:1013840004AB284601360AF1040AAFF30080E0B941
:10139400A642EFD10D215846FFF77EFE049BC5F807
:1013A4002880C5E90803062014E704460D215846A1
:1013B400FFF772FE049E2862022C04BFEE6205F160
:1013C4002C06C5E90968062004E72346D8F800601E
:1013D400039C6EE74046FFF77FFC08F104020446D5
:1013E400AA632846AFF3008000283FF4F2AE2246F9
:1013F4000F215846FFF776FE41E70C4658460D216B
:10140400FFF74AFE26462862DBE7581C08EB8000FB
:1014140081E700BF000000000023B1E60123AFE62E
:101424000223ADE62DE9F0430646C3B015461C463B
:10143400042900F2D180DFE801F0AC51CF2A030087
:10144400002C40F0C980102A00F2C6800368DC0634
:1014540000F1E78020AF384600F0AAF9B46B3946B2
:1014640000234FF0010C0CFA03F22A42204603F148
:10147400010303D050F8042B0A600446042B01F145
:101484000401F0D1B463384600F088F999E0032CE4
:1014940040F0A28094B204EB1243102B4FEA1245A1
:1014A40000F29A8003681F0700F1C38020AF38461A
:1014B40000F052F9B26B07EBC50154B10B46D01AD8
:1014C40001EBC401E4001D5843F8045B8B42FAD1DC
:1014D4002244B263384600F01DF972E0012C4FEA51
:1014E400124895B271D0052C76D108EB0509B9F1F3
:1014F400200F71D8B8F10F0F72D8B9F1100F03682B
:1015040000F29F80D90708D523F00103304643F049
:10151400020340F8483B00F0F1F820AF384600F0F1
:10152400EDF8B36B002D00F0B9806D006A1E07EB77
:10153400C80100250132043903EB820253F8040B7D
:1015440041F8040F9342F9D1002D00F0A1804146E7
:10155400102938BF10216B0010396F46013B07EB8F
:10156400C1010133043902EB830352F8040B41F83F
:10157400040F9A42F9D1012C00F08880B8F10F0FC2
:10158400B26302D820A800F0B5F8384600F0BAF8E3
:1015940017E00CBB806B23461FFA82FC0124371D25
:1015A40004FA03F111EA0C0F024604D052F8041BAA
:1015B40047F8231010460133102BF1D1AC0400D4AA
:1015C400B063002043B0BDE8F08308EB0503102BA3
:1015D40002D8B8F1100F14D1022043B0BDE8F08353
:1015E400002DEED003685A075CD46F46384600F0ED
:1015F4008DF8B26B6B00A8F11001013B07EBC10140
:10160400AFE70368DA0759D420AF384600F06EF824
:10161400B36B002D89D10433B363384600F062F80C
:10162400CFE723F01003036000F5E87000F0C0F882
:1016340010E723F00803036000F5A87000F08CF8AD
:1016440034E7D90708D523F0010343F0020340F837
:10165400483B00F053F83368580706D5304623F06A
:10166400040340F8D03B00F051F820AF384600F0B6
:1016740045F8684600F04AF8C8F110025200B36B0E
:10168400A9F11005013A07EBC80153E720AFC2E7FF
:10169400012CC0D0B8F10F0FB36392D8384600F0D4
:1016A40029F88EE723F0040340F8D03B6F4600F09E
:1016B4002DF8384600F02AF8B26B9BE7304623F049
:1016C400030340F8483B00F011F89DE700F13401B2
:1016D40091E838009C46A6464CF8045D90E8FF0F5C
:1016E400E54600BD90EC210B704700BF80EC210B58
:1016F400704700BF90EC200B704700BF80EC200BBC
:10170400704700BFD0EC200B704700BFC0EC200B2B
:10171400704700BFF0EC0201F0EC0211F0EC022182
:10172400F0EC0231F0EC0241F0EC0251F0EC026119
:10173400F0EC0271F0EC0281F0EC0291F0EC02A109
:10174400F0EC02B1F0EC02C1F0EC02D1F0EC02E1F9
:10175400F0EC02F1704700BFE0EC0201E0EC021192
:10176400E0EC0221E0EC0231E0EC0241E0EC025159
:10177400E0EC0261E0EC0271E0EC0281E0EC029149
:10178400E0EC02A1E0EC02B1E0EC02C1E0EC02D139
:10179400E0EC02E1E0EC02F1704700BFB0FC018133
:1017A400B0FC0191B0FC01A1B0FC01B1704700BFD5
:1017B400A0FC0181A0FC0191A0FC01A1A0FC01B14D
:1017C400704700BFEC4600B52DE900502DE9FF1F1E
:1017D4004FF000032DE90C0001A9FFF7D7FBDDF85A
:1017E40040E012B0704700BFEC4600B52DE9005050
:1017F4002DE9FF1F4FF000032DE90C0001A9FFF7AD
:1018040001FCDDF840E012B0704700BFEC4600B5C3
:101814002DE900502DE9FF1F4FF000032DE90C00C6
:1018240001A9FFF711FCDDF840E012B0704700BFDA
:10183400EC4600B52DE900502DE9FF1F4FF00003E1
:101844002DE90C0001ABFFF7D5FBDDF840E012B049
:10185400704700BFEC4600B52DE900502DE9FF1F8D
:101864004FF000032DE90C0001AAFFF747FCDDF857
:1018740040E012B0704700BF027A03467AB9427A58
:10188400A2B14168013A10B44272086803220C1DE7
:101894001A7202025C60000E10BC1A607047006885
:1018A400013A1A7202021A60000E7047B0207047A3
:1018B40000B585B0002303AA009219460C22FFF755
:1018C400D3FB039805B05DF804FB00BFF0E700BF4D
:1018D4002DE9F043064685B00D464FF00008284632
:1018E400FFF7CAFFB028044600F0DA80070646D5A1
:1018F40000F0F003802B5ED0B02B73D01BD8902B5C
:1019040000F09B80A02B12D1C34303F007034FF4D4
:101914007F621A41010702F47F6201D542F48042DA
:10192400002319463046FFF77DFD0028D7D0092053
:1019340005B0BDE8F083C02B6DD1C62800F09380BC
:10194400C72800F0B28000F0F803C02B00F0D2806A
:10195400C82800F0DD80C928E9D12846FFF78CFFAC
:10196400020300F00F0002F470220130024301214F
:1019740005233046FFF756FD0028B0D0D7E7830093
:10198400DBB21F1D0DF10C0900231946CDF80090A0
:101994000D223046FFF768FB039BCDF800906006EC
:1019A4004CBFDF1BFF1800230D2219463046039756
:1019B400FFF780FB93E72846FFF75EFF24022043EE
:1019C400B0F5004FB3D004010023A2B2194630464B
:1019D400FFF728FD0028AAD114F4004F18BF4FF0D8
:1019E40001087CE7B12851D0B22800F0AD80B328BB
:1019F4006DD000F0FC03B42B99D000F00702013243
:101A0400012342F4002219463046FFF70BFD00285B
:101A14003FF465AF8BE700F0F803D02B87D100F0DB
:101A240007020132052342F4002201213046FFF768
:101A3400F9FC00283FF453AF79E700F00D030D2BB8
:101A44003FF475AF03AF002300F00F02194600976F
:101A54003046FFF709FB002300970D221946304654
:101A6400FFF728FB3BE72846FFF706FF020300F0D9
:101A74000F00013002F4702203230243194630465A
:101A8400FFF7D0FC00283FF42AAF50E72846FFF7C1
:101A9400F3FE431EDBB20E2B02467FF641AF46E750
:101AA400B8F1000F40D0002042E72846FFF7E4FEDB
:101AB400431EDBB20E2B02463FF639AF002304214E
:101AC4003046FFF7AFFC00283FF409AF2FE7284664
:101AD400FFF7D2FE020300F00F00013002F470227F
:101AE4000123024319463046FFF79CFC00283FF4CB
:101AF400F6AE1CE700F00F020132032342F4202269
:101B040019463046FFF78EFC00283FF4E8AE0EE796
:101B14002846FFF7B1FE00F0F00200F00F03103288
:101B2400013343EA023222E703AC434641460E2224
:101B340000943046FFF798FA009443460F2241463A
:101B44003046FFF7B7FAAEE700230DF10C090D227A
:101B54001946CDF800903046FFF786FA2846FFF77D
:101B64008BFE0206039C4FF002070BD500F07F00AA
:101B7400B840044428460394FFF77EFE030607F1A9
:101B84000707F3D400FA07F204F501742244002392
:101B94000392CDF800900D2219463046FFF78AFAD9
:101BA4009DE600BF10B5C26C536884B04FF0030CBF
:101BB40008321C0208461B0E01A9019402928DF8FA
:101BC4000CC08DF80D30FFF783FE04B010BD00BFCC
:101BD40008B5FFF77BFE806C08BD00BF08B5FFF7B2
:101BE40075FEC06CC379023300EB830008BD00BFEF
:101BF400704700BF72B6FEE700B595B034220021ED
:101C040007A801F083FE0023029303930493059332
:101C140006930093214A116C41F080511164126CB7
:101C240002F080520092009A01931D4A116841F417
:101C340040411160126802F440420192019A02226A
:101C4400079201210A9110210B910D920E93082302
:101C54000F93B423109311921292139207A800F0D9
:101C640065FEA0B901F07AF998B90F230293022313
:101C74000393002304934FF4A05305930693052183
:101C840002A800F00FFD30B915B05DF804FBFFF7B2
:101C9400B1FFFFF7AFFFFFF7ADFF00BF0038024011
:101CA4000070004008B501F027FAFFF7A5FF00F027
:101CB4000FF800F0ABF800F0F5F900F04DFA00F081
:101CC4009DFA00F0EDFA01F0A5FD01F0ABFDFEE791
:101CD4002DE9F04F8BB000240594069407940894E2
:101CE40009940194454B1A6B42F004021A631A6B6F
:101CF40002F004020192019A02941A6B42F001026A
:101D04001A631A6B02F001020292029A03941A6B8C
:101D140042F002021A631A6B02F002020392039A5F
:101D240004941A6B42F008021A631B6B03F0080355
:101D34000493049BDFF8D09022460321484601F027
:101D440007F92F4F22466021384601F001F9032597
:101D540005954FF0010BCDF818B00794089405A928
:101D6400484601F005F8059502260696079408955D
:101D74004FF00808CDF8248005A9384600F0F8FF94
:101D84000C2305930696079408954FF0070ACDF89F
:101D940024A005A9384600F0EBFF60230593CDF895
:101DA40018B00794089405A9384600F0E1FF4FF4F1
:101DB400C0630593069607940895CDF824A005A959
:101DC400384600F0D5FF4FF48053059306960794E8
:101DD4000895CDF8248005A9484600F0C9FF0423DE
:101DE4000593069607940895CDF8248005A905481F
:101DF40000F0BEFF0BB0BDE8F08F00BF003802401A
:101E040000000240000C02400008024000B585B00A
:101E1400002300930193029303931448144A02602D
:101E2400436083600361037680F82030C362114A03
:101E34008262C3600122C26180F83030426100F0E6
:101E44002FFB68B90E23009301230193002302930F
:101E54006946064800F050FB28B905B05DF804FB5C
:101E6400FFF7C8FEEEE7FFF7C5FEF6E778000020AF
:101E7400002001400100000F00B589B00023039346
:101E84000493059306930793026803F1804303F5D3
:101E940090339A4202D009B05DF804FB002101910D
:101EA40003F58C335A6C42F480725A645A6C02F40F
:101EB40080720192019A02911A6B42F004021A6331
:101EC4001B6B03F004030293029B3023039303234D
:101ED400049303A9014800F04BFFDCE7000802402B
:101EE40084B00368B3F1804F15D01F4A934220D0C9
:101EF4001E4A93422AD01E4A934218D100230393C8
:101F04001C4B1A6C42F040021A641B6C03F0400331
:101F14000393039B0BE000230093164B1A6C42F0CF
:101F240001021A641B6C03F001030093009B04B0CC
:101F34007047002301930F4B1A6C42F002021A649B
:101F44001B6C03F002030193019BF0E7002302934F
:101F5400084B1A6C42F004021A641B6C03F004036D
:101F64000293029BE3E700BF000400400008004026
:101F7400001800400038024030B58BB000230593B0
:101F840006930793089309930368B3F1804F0AD02B
:101F94003E4A93421FD03E4A934247D03D4A934221
:101FA4005BD00BB030BD002300933B4B1A6B42F067
:101FB40002021A631B6B03F002030093009B40F2BE
:101FC4000C530593022306930123099305A933486F
:101FD40000F0CEFEE5E7002501952F4B1A6B42F089
:101FE40004021A631A6B02F004020192019A029528
:101FF4001A6B42F002021A631B6B03F00203029392
:10200400029B4FF4A073059302240694099405A936
:10201400234800F0ADFE2023059306940795089508
:10202400099405A91D4800F0A3FEBAE70023039311
:10203400194B1A6B42F002021A631B6B03F0020382
:102044000393039B4FF43073059302230693099380
:1020540005A9124800F08CFEA3E7002304930E4B5D
:102064001A6B42F002021A631B6B03F0020304931F
:10207400049B4FF4404305930223069309230993D9
:1020840005A9064800F074FE8BE700BF0004004079
:1020940000080040001800400038024000040240DC
:1020A4000008024000B58BB0002308930993019304
:1020B40002930393049305930693079325484FF0E3
:1020C40080420260436083604FF0FF32C26003616C
:1020D400836101F055F958BB00230893099308A9BB
:1020E4001C4801F0B1FA30BB602301930022029234
:1020F4000392059201A9174801F0A6F9F0B9042248
:102104000DEB0201134801F09FF9D0B9082201A98F
:10211400104801F099F9B8B90C2201A90D4801F051
:1021240093F9A0B90B48FFF727FF0BB05DF804FB48
:10213400FFF760FDD0E7FFF75DFDD5E7FFF75AFD38
:10214400DDE7FFF757FDE1E7FFF754FDE4E7FFF7AD
:1021540051FDE7E79801002000B58BB000230893F8
:1021640009930193029303930493059306930793AE
:102174002048214A0260436083604FF6FF72C260C8
:102184000361836101F0FCF828BB002308930993E1
:1021940008A9184801F058FA00BB602301930022F3
:1021A40002920392059201A9124801F04DF9C0B9B7
:1021B40004220DEB02010F4801F046F9A0B90822F0
:1021C40001A90C4801F040F988B90A48FFF7D4FE88
:1021D4000BB05DF804FBFFF70DFDD6E7FFF70AFD32
:1021E400DBE7FFF707FDE3E7FFF704FDE7E7FFF7AA
:1021F40001FDEAE7500100200004004000B58BB067
:102204000023089309930193029303930493059382
:10221400069307932048214A0260436083604FF687
:10222400FF72C2600361836101F0AAF828BB002336
:102234000893099308A9184801F006FA00BB602323
:102244000193002202920392059201A9124801F01F
:10225400FBF8C0B904220DEB02010F4801F0F4F8B9
:10226400A0B90C2201A90C4801F0EEF888B90A487B
:10227400FFF782FE0BB05DF804FBFFF7BBFCD6E76B
:10228400FFF7B8FCDBE7FFF7B5FCE3E7FFF7B2FCC9
:10229400E7E7FFF7AFFCEAE7080100200008004089
:1022A40000B589B00023019302930393049305932B
:1022B400069307931748184A02600122426083601C
:1022C40040F28332C2600361836101F059F8B8B906
:1022D40060230193002202920392059201A90D4802
:1022E40001F0B2F878B904220DEB0201094801F0BB
:1022F400ABF858B90748FFF73FFE09B05DF804FB97
:10230400FFF778FCE4E7FFF775FCECE7FFF772FCF6
:10231400F0E700BFC000002000180040FEE7FEE721
:10232400FEE7FEE7FEE770477047704708B500F028
:10233400FDFE08BD82B0002100910B4B5A6C42F4A3
:1023440080425A645A6C02F480420092009A0191CD
:102354001A6C42F080521A641B6C03F08053019390
:10236400019B02B0704700BF003802404A4B5A68D4
:1023740022F440325A605A6841680A435A6002683B
:10238400536823F48073536002685368016943EA15
:10239400012353600268536823F04073536002685A
:1023A400536881680B4353600268936823F40063A5
:1023B400936002689368C1680B439360826A374BE9
:1023C4009A4257D00268936823F07063936002685E
:1023D4009368816A0B4393600268936823F04053C7
:1023E400936002689368C16A0B43936002689368C0
:1023F40023F00203936002689368017E43EA410379
:10240400936090F82030002B3FD00268536843F467
:10241400006353600268536823F4604353600168A7
:102424004B68426A013A43EA42334B600268D36A1A
:1024340023F47003D3620168CB6AC269013A43EAA8
:102444000253CB620268936823F4007393600268BA
:10245400936890F8301043EA4123936002689368CC
:1024640023F48063936002689368416943EA81239B
:10247400936070470268936823F070639360026806
:10248400936823F040539360B0E70268536823F4E1
:1024940000635360CAE700BF002301400100000F3E
:1024A40038B310B50446036C43B1236C13F0100F1A
:1024B4000BD00120002384F83C3010BDFFF7DCFC76
:1024C4000023636484F83C30EFE7236C23F48853DF
:1024D40023F0020343F0020323642046FFF746FF80
:1024E40000206064236C23F0030343F0010323649E
:1024F400E0E701207047000030B482B0002201926E
:1025040090F83C20012A00F0C0800346012280F8A4
:102514003C200A68092A40D90468E06892B202EBB8
:1025240042021E3A4FF0070C0CFA02F220EA0202B1
:10253400E2601C68E0680A8802EB42021E3A8D6879
:1025440005FA02F20243E2604A68062A3CD81C6893
:10255400606B02EB8202053A4FF01F0C0CFA02F298
:1025640020EA020262631C68606B4A6802EB820222
:10257400053AB1F800C00CFA02F20243626318682B
:10258400434A904250D01868414A904259D00020A2
:1025940083F83C0002B030BC70470468206992B2F2
:1025A40002EB42024FF0070C0CFA02F220EA02029C
:1025B40022611C6820690A8802EB42028D6805FAD0
:1025C40002F202432261BFE70C2A16D81D68286B69
:1025D40002EB8202233A1F2404FA02F220EA0202E6
:1025E4002A631D68286B4A6802EB8202233A0C882E
:1025F40004FA02F202432A63C1E71D68E86A02EBA7
:102604008202413A1F2404FA02F220EA0202EA6238
:102614001D68E86A4A6802EB8202413A0C8804FAAF
:1026240002F20243EA62AAE70A68122AABD1194A03
:10263400506820F400005060506840F480005060FE
:10264400A1E70A681448824201D0112A9FD1114A95
:10265400506820F480005060506840F400005060DE
:1026640009680D4A914292D10C4A12680C49A1FBA7
:102674000212920C02EB820252000192019A002A89
:1026840085D0019A013A0192F8E7022082E700BF5F
:102694000020014000230140120000100800002027
:1026A40083DE1B43002800F09B8070B50D46044672
:1026B4004F4B1B6803F00F038B4208D2CBB24C4A3A
:1026C4001370136803F00F038B4240F08B80236870
:1026D40013F0020F17D013F0040F04D0454A936887
:1026E40043F4E0539360236813F0080F04D0414A85
:1026F400936843F4604393603E4A936823F0F00385
:10270400A1680B439360236813F0010F32D0636810
:10271400012B21D09A1E012A25D9364A126812F0BB
:10272400020F61D033498A6822F0030213438B609D
:1027340000F008FD06462F4B9B6803F00C0362680B
:10274400B3EB820F16D000F0FDFC801B41F28833FE
:102754009842F0D9032042E0264A126812F4003F5E
:10276400E0D101203BE0234A126812F0007FD9D166
:10277400012034E01E4B1B6803F00F03AB4207D962
:10278400EAB21B4B1A701B6803F00F03AB422DD146
:10279400236813F0040F06D0164A936823F4E05319
:1027A400E1680B439360236813F0080F07D0114AC4
:1027B400936823F46043216943EAC103936000F002
:1027C40021F80C4B9B68C3F303130B4AD35CD8402A
:1027D4000A4B18600A4B186800F068FC002070BDB2
:1027E400012070470120FAE70120F8E70120F6E70D
:1027F400003C024000380240403A00080800002033
:102804000400002008B5464B9B6803F00C03082B1A
:1028140007D00C2B45D0042B01D0424808BD4248B8
:10282400FCE73F4B5A6802F03F025B6813F4800FE9
:1028340012D03B4B5968C1F388113B480023A1FBDC
:102844000001FEF7D3F8364B5B68C3F30143013351
:102854005B00B0FBF3F0E1E7314B5868C0F388103C
:102864004FEA401CBCEB000C6EEB0E0E4FEA8E13CD
:1028740043EA9C634FEA8C11B1EB0C0163EB0E034A
:10288400DB0043EA5173C90011EB000C43F1000370
:10289400990200234FEA8C2041EA9C51FEF7A6F8E6
:1028A400D1E71F4B5A6802F03F025B6813F4800FB4
:1028B40010D01B4B5968C1F388111B480023A1FB9E
:1028C4000001FEF793F8164B5B68C3F30273B0FB89
:1028D400F3F0A3E7124B5868C0F388104FEA401C8A
:1028E400BCEB000C6EEB0E0E4FEA8E1343EA9C63B6
:1028F4004FEA8C11B1EB0C0163EB0E03DB0043EAEE
:102904005173C90011EB000C43F100039902002339
:102914004FEA8C2041EA9C51FEF768F8D3E700BFE8
:10292400003802400024F40040787D01002800F0C3
:10293400018270B582B00446036813F0010F41D0E0
:10294400994B9B6803F00C03042B32D0964B9B6885
:1029540003F00C03082B27D0934B9B6803F00C0364
:102964000C2B59D06368B3F5803F5BD0B3F5A02F2F
:102974005ED08D4B1A6822F480321A601A6822F4F1
:1029840080221A606368002B5CD000F0DBFB0546F4
:10299400854B1B6813F4003F14D100F0D3FB401B9C
:1029A4006428F5D90320CCE17F4B5B6813F4800FD6
:1029B400D2D07D4B1B6813F4003F03D06368002B17
:1029C40000F0BA81236813F0020F60D0764B9B6845
:1029D40013F00C0F4AD0744B9B6803F00C03082BC4
:1029E4003FD0714B9B6803F00C030C2B69D0E36858
:1029F400002B75D06D4B01221A6000F0A3FB054635
:102A0400694B1B6813F0020F61D100F09BFB401B64
:102A14000228F5D9032094E1634B5B6813F4800F1B
:102A2400A0D0C6E7604A136843F480331360A9E773
:102A34005D4B1A6842F480221A601A6842F48032AC
:102A44001A609FE700F07EFB0546574B1B6813F4A2
:102A5400003FB7D000F076FB401B6428F5D9032073
:102A64006FE1514B5B6813F4800FBAD14E4B1B6876
:102A740013F0020F03D0E368012B40F05F814A4A50
:102A8400136823F0F803216943EAC1031360236840
:102A940013F0080F49D06369002B33D0434B012254
:102AA400C3F8802E00F04EFB05463F4B5B6F13F0DE
:102AB400020F3AD100F046FB401B0228F5D903204F
:102AC4003FE1394B5B6813F4800F90D1CEE7364A6F
:102AD400136823F0F803216943EAC1031360D6E7BE
:102AE400324B00221A6000F02DFB05462E4B1B686A
:102AF40013F0020FCBD000F025FB401B0228F5D9C0
:102B040003201EE1294B0022C3F8802E00F01AFB9B
:102B14000546254B5B6F13F0020F06D000F012FB45
:102B2400401B0228F5D903200BE1236813F0040F9E
:102B340076D01D4B1B6C13F0805F33D100230193BF
:102B4400194B1A6C42F080521A641B6C03F08053C8
:102B54000193019B0125164B1B6813F4807F29D038
:102B6400A368012B3AD0052B3ED00F4B1A6F22F0ED
:102B740001021A671A6F22F004021A67A368002B75
:102B84003CD000F0DFFA0646074B1B6F13F0020F30
:102B940045D100F0D7FA801B41F288339842F3D92B
:102BA4000320CEE00025D6E700380240000047426B
:102BB400007000406B4A136843F48073136000F0A4
:102BC400C1FA0646674B1B6813F4807FC8D100F036
:102BD400B9FA801B0228F5D90320B2E0624A136FC8
:102BE40043F001031367C9E75F4B1A6F42F0040215
:102BF4001A671A6F42F001021A67BFE700F0A2FADF
:102C04000646594B1B6F13F0020F08D000F09AFAD6
:102C1400801B41F288339842F3D9032091E0EDB947
:102C2400A369002B00F08C804F4A926802F00C02DA
:102C3400082A54D0022B17D04C4B00221A6600F0FD
:102C440081FA0446484B1B6813F0007F45D000F01E
:102C540079FA001B0228F5D9032072E0424A136C6A
:102C640023F080531364DBE7404B00221A6600F024
:102C740069FA05463C4B1B6813F0007F06D000F050
:102C840061FA401B0228F5D903205AE0E369226A5D
:102C94001343626A43EA8213A26A5208013A43EA7E
:102CA4000243E26A43EA0263226B43EA02732E4A56
:102CB40053602E4B01221A6600F044FA04462A4B54
:102CC4001B6813F0007F06D100F03CFA001B0228B9
:102CD400F5D9032035E0002033E0002031E0012B5A
:102CE40031D0214B5B6803F48001E26991422CD11D
:102CF40003F03F02216A8A4229D1616A47F6C07211
:102D04001A40B2EB811F24D103F44031A26A520865
:102D1400013AB1EB024F1ED103F07062E16AB2EBEB
:102D2400016F1AD103F0E043226BB3EB027F16D19B
:102D3400002006E001207047012002E0012000E0AD
:102D4400002002B070BD0120FBE70120F9E701205B
:102D5400F7E70120F5E70120F3E70120F1E701207F
:102D6400EFE700BF00700040003802400000474217
:102D740000230F2B00F2E38070B582B065E0856814
:102D84004FEA430E032404FA0EF425EA0405CC6842
:102D940004FA0EF42C438460446824EA02044A686A
:102DA400C2F300129A40224342605CE0DC0808341B
:102DB40050F8242003F00705AD004FF00F0E0EFA73
:102DC40005FE22EA0E0E0A69AA4042EA0E0240F803
:102DD40024205CE0062200E0002202FA0EF22A43DC
:102DE4000234574D45F82420564A94686FEA0C0281
:102DF40024EA0C054E6816F4801F01D04CEA040541
:102E0400504CA560E46802EA04054E6816F4001FFD
:102E140001D04CEA04054B4CE560646802EA040501
:102E24004E6816F4003F01D04CEA0405454C656039
:102E3400246822404D6815F4803F01D04CEA040216
:102E4400404C226001330F2B77D801229A400C6842
:102E540004EA020C32EA0404F4D14C6804F00304DA
:102E6400013C012C8BD94A6802F00302032A09D0E1
:102E7400C4685D000322AA4024EA02048A68AA40C6
:102E84002243C2604A6802F00302022A8ED0046818
:102E94004FEA430E032202FA0EF224EA02044A68BD
:102EA40002F0030202FA0EF2224302604A6812F4AC
:102EB400403FC7D000220192234A546C44F480441A
:102EC4005464526C02F480420192019A9C08A51C3D
:102ED4001B4A52F8255003F0030E4FEA8E0E0F22C0
:102EE40002FA0EF225EA0205184A90423FF474AF42
:102EF40002F58062904216D002F58062904214D0AE
:102F040002F58062904212D002F58062904210D0A5
:102F140002F5806290420ED002F5806290423FF446
:102F240059AF072259E7012257E7022255E7032246
:102F340053E7042251E705224FE702B070BD704702
:102F440000380140003C01400038024000000240CB
:102F54000AB18161704709048161704710B582B07C
:102F640000230193194B1A6C42F080521A641B6CB3
:102F740003F080530193019B154B01221A6400F066
:102F8400E1F80446134B5B6813F4803F08D100F06A
:102F9400D9F8001BB0F57A7FF4D9032002B010BD34
:102FA4000B4B01225A6400F0CDF80446094B5B68D0
:102FB40013F4003F07D100F0C5F8001BB0F57A7F89
:102FC400F4D90320EAE70020E8E700BF0038024014
:102FD40000000E4200700040002808DB0901C9B25D
:102FE40000F1604000F5614080F80013704700F084
:102FF4000F000901C9B2014B1954704714ED00E0E8
:1030040000B500F00700C0F1070CBCF1040F28BFA5
:103014004FF0040C031D062B0FD9C31E4FF0FF3EC7
:103024000EFA0CF021EA000199400EFA03FE22EA9E
:103034000E0241EA02005DF804FB0023EEE7000003
:10304400074AD36823F4E0631B041B0C000200F45A
:10305400E060034343F0BF6343F40033D36070473D
:1030640000ED00E010B50446054BD868C0F302201B
:10307400FFF7C6FF01462046FFF7AEFF10BD00BFB5
:1030840000ED00E00138B0F1807F0BD24FF0E02377
:103094005861054AF02182F8231000209861072224
:1030A4001A6170470120704700ED00E010B5044636
:1030B4000E4B1A784FF47A73B3FBF2F30C4A106890
:1030C400B0FBF3F0FFF7DEFF68B90F2C01D9012044
:1030D4000AE0002221464FF0FF30FFF7C3FF054B03
:1030E4001C60002000E0012010BD00BF0000002093
:1030F400080000200400002008B50B4B1A6842F4B5
:1031040000721A601A6842F480621A601A6842F403
:1031140080721A600320FFF793FF0F20FFF7C6FFAA
:10312400FFF708F9002008BD003C0240034A11687B
:10313400034B1B780B441360704700BFE001002071
:1031440000000020014B1868704700BFE001002018
:1031540038B50446FFF7F6FF0546B4F1FF3F02D049
:10316400044B1B781C44FFF7EDFF401BA042FAD32D
:1031740038BD00BF0000002030B4036A026A22F0A8
:10318400010202624268846924F0730C0C6844EA08
:103194000C0423F0020C8B6843EA0C03114DA84283
:1031A40003D005F58065A84205D123F00803CD6856
:1031B4002B4323F004030B4DA84203D005F580658F
:1031C400A84207D122F440724D6945EA020C8A698B
:1031D40042EA0C02426084614A684263036230BC82
:1031E400704700BF0000014030B4036A026A22F451
:1031F400807202624268C46924F0730C0C6844EA69
:103204000C0523F400738C6843EA0423114CA04298
:1032140003D004F58064A04206D123F40063CC6893
:1032240043EA042323F480630A4CA04203D004F548
:103234008064A04207D122F440524C6942EA04124D
:103244008C6942EA04124260C5614A68C26303623F
:1032540030BC70470000014030B4036A026A22F4B3
:10326400805202624468C26922F4E6420D6842EA6E
:10327400052223F400538D6843EA0533094DA8421F
:1032840003D005F58065A84204D124F480444D6937
:1032940044EA85144460C2614A680264036230BC33
:1032A400704700BF000001400368344A904212D0C6
:1032B400B0F1804F0FD0A2F57C4290420BD002F5C2
:1032C4008062904207D002F58062904203D002F5FA
:1032D4007842904203D123F070034A681343274A8B
:1032E40090422AD0B0F1804F27D0A2F57C42904280
:1032F40023D002F5806290421FD002F58062904292
:103304001BD002F57842904217D002F570529042D9
:1033140013D002F5806290420FD002F58062904291
:103324000BD0A2F59832904207D002F58062904209
:1033340003D002F58062904203D123F44073CA683B
:10334400134323F080034A69134303608B68C36209
:103354000B688362094B984203D003F5806398425B
:1033640001D10B69036301234361036913F0010F66
:1033740003D0036923F00103036170470000014097
:1033840040B310B5044690F83D30F3B1022384F8FD
:103394003D30214651F8040BFFF786FF012384F8E2
:1033A400463084F83E3084F83F3084F8403084F866
:1033B400413084F8423084F8433084F8443084F84F
:1033C400453084F83D30002010BD80F83C30FEF7D5
:1033D40087FDDBE70120704730B4036A026A22F0FC
:1033E400100202624468826922F4E6420D6842EAED
:1033F400052223F020038D6843EA0513114DA842EA
:1034040003D005F58065A84206D123F08003CD687A
:1034140043EA051323F040030A4DA84203D005F5FF
:103424008065A84207D124F440644D6944EA8504C8
:103434008D6944EA8504446082614A688263036258
:1034440030BC70470000014038B590F83C30012B87
:1034540066D004460D46012380F83C300C2A5AD825
:10346400DFE802F0075959591B595959305959592C
:1034740044000068FFF780FE2268936943F0080364
:1034840093612268936923F004039361226893692A
:1034940029690B43936100203EE00068FFF79CFF1D
:1034A4002268936943F4006393612268936923F467
:1034B4008063936122689369296943EA01239361D4
:1034C400002029E00068FFF78FFE2268D36943F0EB
:1034D4000803D3612268D36923F00403D36122680B
:1034E400D36929690B43D361002015E00068FFF715
:1034F400B3FE2268D36943F40063D3612268D369BD
:1035040023F48063D3612268D369296943EA0123E0
:10351400D361002000E00120002384F83C3038BD52
:103524000220FCE701F01F014FF0010C0CFA01FC32
:10353400036A23EA0C030362036A8A4013430362A7
:103544007047000010B504460846002942D194F89B
:103554003E30DBB2013B18BF0123002B6ED10028A3
:1035640051D1022384F83E30012201462068FFF73E
:10357400D9FF2368334A934203D002F58062934211
:1035840003D15A6C42F400425A6423682D4A934290
:1035940049D0B3F1804F46D0A2F57C42934242D049
:1035A40002F5806293423ED002F5806293423AD0A3
:1035B40002F57842934236D002F57052934232D0EB
:1035C400A2F5943293422ED01A6842F001021A6096
:1035D400002032E0042908D008290DD094F84130A5
:1035E400DBB2013B18BF0123B7E794F83F30DBB2ED
:1035F400013B18BF0123B0E794F84030DBB2013B34
:1036040018BF0123A9E7042805D0082807D00223FE
:1036140084F84130A8E7022384F83F30A4E702236A
:1036240084F84030A0E79A6802F00702062A07D01F
:103634001A6842F001021A60002010BD0120FCE764
:103644000020FAE70000014090F83C20012A3DD018
:1036540010B40346012280F83C20022280F83D2069
:1036640002685068946820F0700C086840EA0C0006
:1036740050601A68164882421AD0B2F1804F17D0AF
:10368400A0F57C40824213D000F5806082420FD0C6
:1036940000F5806082420BD000F57840824207D06A
:1036A40000F57050824203D0A0F59430824204D1D8
:1036B40024F08004496821439160012283F83D206D
:1036C400002083F83C005DF8044B704702207047EB
:1036D40000000140034AD2F8883043F47003C2F872
:1036E4008830704700ED00E00120704708B500F015
:1036F40015F9162303604FF0FF3008BD08B54FF0ED
:10370400FF31FFF7F3FFFEE7DFF834D0FFF7E2FF06
:103714000C480D490D4A002302E0D458C450043328
:10372400C4188C42F9D30A4A0A4C002301E01360FE
:103734000432A242FBD300F0F7F8FEF7B3FA704765
:1037440000000220000000205C000020603B000814
:103754005C00002054030020FEE70000012800D094
:10376400704708B54FF6FF73994200D008BD024870
:1037740000F0A0F8FAE700BFE4010020D0B5044649
:10378400B5EEC00AF1EE10FA10D4F7EE007AB4EEFA
:10379400E70AF1EE10FA02DD00261D4F08E010EEF4
:1037A400100AFCF791FE06460F4601E000260027AA
:1037B400A068FCF767FE32463B46FCF7DDFEFDF7EA
:1037C400EDF807EE900AF8EEE77A636833B92368F8
:1037D4001B68FCEEE77AC3ED0D7AD0BD042B08D04C
:1037E400082B0DD023681B68FCEEE77AC3ED107A32
:1037F400F3E723681B68FCEEE77AC3ED0E7AECE787
:1038040023681B68FCEEE77AC3ED0F7AE5E700BF97
:103814000000F03F08B5024800F06EF808BD00BF94
:10382400E401002070B52DED028B174C0122218993
:103834006068FFF78DFB04F11406B6EE000A30460B
:10384400FFF79CFF9FED118A04F12405B0EE480AAE
:103854002846FFF793FF4FF47A70FFF779FC0022B4
:1038640021896068FFF774FBB0EE480A3046FFF721
:1038740085FFB6EE000A2846FFF780FF4FF47A7002
:10388400FFF766FCD1E700BFE40100200000000060
:1038940008B54FF6FF710120FFF760FF08BD10B5B2
:1038A400044641680068FFF74DFE2368DB68A360A7
:1038B40010BD000010B504460C4860602021218131
:1038C4000022FFF745FB0A48E060402121820022E4
:1038D400FFF73EFB074B63610022A261DA68E261F5
:1038E40063620423A362E262204610BD000002402A
:1038F40000040240C000002010B504461430FFF755
:10390400CEFF04F12400FFF7CAFF10BD02440346B2
:10391400934200D1704703F8011BF9E7014B186883
:10392400704700BF0C00002070B50D4D0D4C641B9A
:10393400A4100026A64209D10B4D0C4C00F072F8DD
:10394400641BA4100026A64205D170BD55F8043BA3
:1039540098470136EEE755F8043B98470136F2E7FD
:10396400543B0008543B0008543B00085C3B0008EF
:103974000A44914200F1FF3300D1704710B511F8A9
:10398400014B03F8014F9142F9D110BD08B506204F
:1039940000F02CF80120FFF7B1FE1F2938B50546C9
:1039A4000C4604D9162303604FF0FF3038BDC26BB8
:1039B40012B152F821304BB9284600F031F82246B2
:1039C40001462846BDE8384000F018B8012B0AD05B
:1039D400591C03D1162303600120E7E7002142F8B4
:1039E4002410204698470020E0E70000024B0146DF
:1039F4001868FFF7D2BF00BF0C00002038B5074D90
:103A040000230446084611462B60FFF76FFE431C53
:103A140002D12B6803B1236038BD00BF50030020DE
:103A2400FFF762BEF8B500BFF8BC08BC9E467047FD
:0C3A3400F8B500BFF8BC08BC9E46704707
:103A4000000000000000000001020304060708094E
:103A500008B10181B0B000840000000008B101810C
:103A6000B0B000840000000008B10181B0B0008453
:043A70000000000052
:103A7400ACCFFF7F0100000000D3FF7FB0A902801C
:103A84008CD3FF7FB0B0A880DCD3FF7F010000009F
:103A9400E8D3FF7FB0B0AA801CD4FF7FAE71B280A0
:103AA400E8D4FF7F01000000E4D4FF7FAB3F3880FF
:103AB40044D5FF7F010000004CD5FF7FB0B0AA8041
:103AC40088D5FF7F0100000034D6FF7FAA0DB280A5
:103AD400B0D6FF7FB0AF088040D9FF7F010000005F
:103AE40044D9FF7FAD3F0280E4DBFF7F010000008B
:103AF400C0DDFF7F00840480D4DDFF7F010000006F
:103B0400D0DDFF7FB0AD04809CE0FF7FB0A80380D0
:103B1400C0E0FF7F44FFFF7FC4E0FF7F48FFFF7FDB
:103B2400D0E0FF7F01000000ECFCFF7F20FFFF7F5F
:103B3400F4FCFF7FAA80C98058FDFF7F01000000CC
:103B44005EFDFF7FB0B0A880C4FDFF7F01000000D0
:083B5400E901000895380008A2
:043B5C00C501000897
:103B600001000000100000000024F40010000020FC
:103B7000000000001802002080020020E80200205F
:103B80000000000000000000000000000000000035
:103B90000000000000000000000000000000000025
:103BA0000000000000000000000000000000000015
:0C3BB00000000000000000000000000009
:040000050800370DAB
:00000001FF
