:020000040800F2
:1000000000000220F947000871230008732300084C
:1000100075230008772300087923000800000000FA
:100020000000000000000000000000007B2300082A
:100030007D230008000000007F23000881230008C2
:10004000494800084948000849480008494800084C
:10005000494800084948000849480008494800083C
:10006000494800084948000849480008494800082C
:10007000494800084948000849480008494800081C
:10008000494800084948000849480008494800080C
:1000900049480008494800084948000849480008FC
:1000A00049480008892300084948000849480008D1
:1000B00049480008494800084948000849480008DC
:1000C00049480008494800084948000849480008CC
:1000D00049480008494800084948000849480008BC
:1000E00049480008494800084948000849480008AC
:1000F000494800084948000849480008494800089C
:10010000494800084948000849480008494800088B
:10011000494800084948000849480008494800087B
:1001200099230008A9230008494800084948000805
:10013000494800080000000000000000494800088D
:10014000494800084948000849480008494800084B
:1001500049480008B923000849480008C923000895
:10016000494800084948000849480008494800082B
:1001700049480008494800084948000800000000B4
:1001800000000000494800080000000000000000D6
:10019000494800080000000000000000494800082D
:1001A00000000000000000000000000049480008B6
:1001B00049480008494800084948000849480008DB
:0401C00049480008A2
:1001C80010B5054C237833B9044B13B10448AFF389
:1001D80000800123237010BD600000200000000093
:1001E8009C58000808B5034B1BB103490348AFF3FB
:1001F800008008BD00000000640000209C58000832
:1002080081F0004102E000BF83F0004330B54FEABF
:1002180041044FEA430594EA050F08BF90EA020F2C
:100228001FBF54EA000C55EA020C7FEA645C7FEABF
:10023800655C00F0E2804FEA5454D4EB5555B8BFE2
:100248006D420CDD2C4480EA020281EA030382EA53
:10025800000083EA010180EA020281EA0303362DE5
:1002680088BF30BD11F0004F4FEA01314FF4801CB8
:100278004CEA113102D0404261EB410113F0004FCA
:100288004FEA03334CEA133302D0524263EB430381
:1002980094EA050F00F0A780A4F10104D5F1200E1F
:1002A8000DDB02FA0EFC22FA05F2801841F100017A
:1002B80003FA0EF2801843FA05F359410EE0A5F14E
:1002C80020050EF1200E012A03FA0EFC28BF4CF07F
:1002D800020C43FA05F3C01851EBE37101F0004535
:1002E80007D54FF0000EDCF1000C7EEB00006EEB42
:1002F8000101B1F5801F1BD3B1F5001F0CD34908CC
:100308005FEA30004FEA3C0C04F101044FEA445222
:1003180012F5800F80F09A80BCF1004F08BF5FEAA9
:10032800500C50F1000041EB045141EA050130BD89
:100338005FEA4C0C404141EB0101013C28BFB1F59B
:10034800801FE9D291F0000F04BF01460020B1FAE6
:1003580081F308BF2033A3F10B03B3F120020CDAB9
:100368000C3208DD02F1140CC2F10C0201FA0CF097
:1003780021FA02F10CE002F11402D8BFC2F1200CFC
:1003880001FA02F120FA0CFCDCBF41EA0C019040B2
:10039800E41AA2BF01EB0451294330BD6FEA0404FB
:1003A8001F3C1CDA0C340EDC04F11404C4F12002E6
:1003B80020FA04F001FA02F340EA030021FA04F3F8
:1003C80045EA030130BDC4F10C04C4F1200220FA4F
:1003D80002F001FA04F340EA0300294630BD21FA8D
:1003E80004F0294630BD94F0000F83F4801306BF53
:1003F80081F480110134013D4EE77FEA645C18BF47
:100408007FEA655C29D094EA050F08BF90EA020FDD
:1004180005D054EA000C04BF1946104630BD91EAD5
:10042800030F1EBF0021002030BD5FEA545C05D1D8
:100438004000494128BF41F0004130BD14F5800417
:100448003CBF01F5801130BD01F0004545F0FE418B
:1004580041F470014FF0000030BD7FEA645C1ABFC0
:10046800194610467FEA655C1CBF0B46024650EAF7
:10047800013406BF52EA033591EA030F41F4002123
:1004880030BD00BF90F0000F04BF0021704730B5A9
:100498004FF4806404F132044FF000054FF000017E
:1004A80050E700BF90F0000F04BF0021704730B53F
:1004B8004FF4806404F1320410F0004548BF404214
:1004C8004FF000013EE700BF42004FEAE2014FEA69
:1004D80031014FEA02701FBF12F07F4393F07F4F44
:1004E80081F06051704732F07F4208BF704793F047
:1004F8007F4F04BF41F40021704730B54FF460745A
:1005080001F0004521F000411CE700BF50EA01025C
:1005180008BF704730B54FF000050AE050EA010205
:1005280008BF704730B511F0004502D5404261EB75
:1005380041014FF4806404F132045FEA915C3FF4B6
:10054800D8AE4FF003025FEADC0C18BF03325FEA53
:10055800DC0C18BF033202EBDC02C2F1200300FA04
:1005680003FC20FA02F001FA03FE40EA0E0021FA29
:1005780002F11444BDE600BF70B54FF0FF0C4CF417
:10058800E06C1CEA11541DBF1CEA135594EA0C0FC9
:1005980095EA0C0F00F0DEF82C4481EA030621EA04
:1005A8004C5123EA4C5350EA013518BF52EA03353F
:1005B80041F4801143F4801338D0A0FB02CE4FF0F1
:1005C8000005E1FB02E506F00042E0FB03E54FF021
:1005D8000006E1FB03569CF0000F18BF4EF0010E19
:1005E800A4F1FF04B6F5007F64F5407404D25FEA15
:1005F8004E0E6D4146EB060642EAC62141EA5551C8
:100608004FEAC52040EA5E504FEACE2EB4F1FD0C09
:1006180088BFBCF5E06F1ED8BEF1004F08BF5FEA87
:10062800500E50F1000041EB045170BD06F0004639
:1006380046EA010140EA020081EA0301B4EB5C04E6
:10064800C2BFD4EB0C0541EA045170BD41F48011DE
:100658004FF0000E013C00F3AB8014F1360FDEBF03
:10066800002001F0004170BDC4F10004203C35DADF
:100678000C341BDC04F11404C4F1200500FA05F362
:1006880020FA04F001FA05F240EA020001F0004203
:1006980021F0004110EBD37021FA04F642EB060179
:1006A8005EEA430E08BF20EAD37070BDC4F10C04A3
:1006B800C4F1200500FA04F320FA05F001FA04F267
:1006C80040EA020001F0004110EBD37041F1000153
:1006D8005EEA430E08BF20EAD37070BDC4F120055E
:1006E80000FA05F24EEA020E20FA04F301FA05F2C6
:1006F80043EA020321FA04F001F0004121FA04F26E
:1007080020EA020000EBD3705EEA430E08BF20EA3D
:10071800D37070BD94F0000F0FD101F00046400077
:1007280041EB010111F4801F08BF013CF7D041EAF9
:10073800060195F0000F18BF704703F000465200FD
:1007480043EB030313F4801F08BF013DF7D043EACE
:100758000603704794EA0C0F0CEA135518BF95EA84
:100768000C0F0CD050EA410618BF52EA4306D1D10B
:1007780081EA030101F000414FF0000070BD50EA2A
:10078800410606BF1046194652EA430619D094EAB4
:100798000C0F02D150EA013613D195EA0C0F05D19E
:1007A80052EA03361CBF104619460AD181EA0301F2
:1007B80001F0004141F0FE4141F470014FF00000AA
:1007C80070BD41F0FE4141F4780170BD70B54FF045
:1007D800FF0C4CF4E06C1CEA11541DBF1CEA1355C5
:1007E80094EA0C0F95EA0C0F00F0A7F8A4EB0504A7
:1007F80081EA030E52EA03354FEA013100F088809E
:100808004FEA03334FF0805545EA131343EA126366
:100818004FEA022245EA111545EA10654FEA00261B
:100828000EF000419D4208BF964244F1FD0404F5D4
:10083800407402D25B084FEA3202B61A65EB030530
:100848005B084FEA32024FF480104FF4002CB6EBED
:10085800020E75EB030E22BFB61A754640EA0C006D
:100868005B084FEA3202B6EB020E75EB030E22BFAD
:10087800B61A754640EA5C005B084FEA3202B6EBEE
:10088800020E75EB030E22BFB61A754640EA9C00AD
:100898005B084FEA3202B6EB020E75EB030E22BF7D
:1008A800B61A754640EADC0055EA060E18D04FEA3B
:1008B800051545EA16754FEA06164FEAC30343EADB
:1008C80052734FEAC2025FEA1C1CC0D111F4801FA8
:1008D8000BD141EA00014FF000004FF0004CB6E7A1
:1008E80011F4801F04BF01430020B4F1FD0C88BF40
:1008F800BCF5E06F3FF6AFAEB5EB030C04BFB6EB4B
:10090800020C5FEA500C50F1000041EB045170BD3D
:100918000EF0004E4EEA113114EB5C04C2BFD4EB6A
:100928000C0541EA045170BD41F480114FF0000EEE
:10093800013C90E645EA060E8DE60CEA135594EA6A
:100948000C0F08BF95EA0C0F3FF43BAF94EA0C0F6D
:100958000AD150EA01347FF434AF95EA0C0F7FF4E2
:1009680025AF104619462CE795EA0C0F06D152EA36
:1009780003353FF4FDAE1046194622E750EA41061A
:1009880018BF52EA43067FF4C5AE50EA41047FF42B
:100998000DAF52EA43057FF4EBAE12E74FF0FF3C90
:1009A80006E000BF4FF0010C02E000BF4FF0010C61
:1009B8004DF804CD4FEA410C7FEA6C5C4FEA430CDA
:1009C80018BF7FEA6C5C1BD001B050EA410C0CBF29
:1009D80052EA430C91EA030F02BF90EA020F00208B
:1009E800704710F1000F91EA030F58BF994208BFF2
:1009F80090422CBFD8176FEAE37040F001007047AF
:100A08004FEA410C7FEA6C5C02D150EA013C07D105
:100A18004FEA430C7FEA6C5CD6D152EA033CD3D050
:100A28005DF8040B704700BF8446104662468C464A
:100A38001946634600E000BF01B5FFF7B7FF00287D
:100A480048BF10F1000F01BD4DF808EDFFF7F4FFA6
:100A58000CBF012000205DF808FB00BF4DF808ED31
:100A6800FFF7EAFF34BF012000205DF808FB00BF54
:100A78004DF808EDFFF7E0FF94BF012000205DF876
:100A880008FB00BF4DF808EDFFF7CEFF94BF01202B
:100A980000205DF808FB00BF4DF808EDFFF7C4FF24
:100AA80034BF012000205DF808FB00BF4A0011D2C6
:100AB80012F5001211D20DD56FF47873B3EB6252B0
:100AC8000ED44FEAC12343F0004343EA505323FABC
:100AD80002F070474FF00000704750EA013002D131
:100AE8004FF0FF3070474FF0000070474FEA410267
:100AF800B2F1E04324BFB3F5001CDCF1FE5C0DD974
:100B080001F0004C4FEAC0024CEA5070B2F1004FBD
:100B180040EB830008BF20F00100704711F0804FC0
:100B280021D113F13872BCBF01F00040704741F485
:100B380080114FEA5252C2F11802C2F1200C10FA89
:100B48000CF320FA02F018BF40F001004FEAC1236D
:100B58004FEAD32303FA0CFC40EA0C0023FA02F311
:100B68004FEA4303CCE77FEA625307D150EA0133E7
:100B78001EBF4FF0FE4040F44000704701F00040B7
:100B880040F0FE4040F40000704700BF53B94AB936
:100B9800002908BF00281CBF4FF0FF314FF0FF307D
:100BA80001F0F6B8ADF1080C6DE904CE00F006F8D6
:100BB800DDF804E0DDE9022304B070472DE9F047D1
:100BC800089D0C46002B4ED194468C458646B2FAB9
:100BD80082F262D94AB1C2F12003914020FA03F3AC
:100BE8000CFA02FC194300FA02FE4FEA1C471FFAEE
:100BF8008CF6B1FBF7F44FEA1E4307FB141143EAE6
:100C0800014304FB06F199420AD91CEB030304F1E2
:100C1800FF3080F01281994240F20F81023C634418
:100C2800591A1FFA8EF3B1FBF7F007FB101143EACC
:100C3800014300FB06F69E420AD91CEB030300F1B0
:100C4800FF3180F0FC809E4240F2F9806344023814
:100C58009B1B40EA044000211DB1D3400022C5E996
:100C68000032BDE8F0878B4205D90DB1C5E9000116
:100C780000210846F5E7B3FA83F1002946D1A342DB
:100C880002D39042C0F0F080861A64EB030301207F
:100C9800002DE6D0C5E90063E3E7002A40F0908024
:100CA800A1EB0C044FEA1C481FFA8CF70121B4FB96
:100CB800F8F64FEA1E4308FB164443EA044307FBD1
:100CC80006F0984208D91CEB030306F1FF3402D260
:100CD800984200F2CD8026461C1A1FFA8EF3B4FB08
:100CE800F8F008FB104443EA044300FB07F79F426F
:100CF80008D91CEB030300F1FF3402D29F4200F233
:100D0800B0802046DB1B40EA0640A5E7C1F120067B
:100D18008B4022FA06F71F4320FA06FC04FA01F377
:100D280043EA0C03F44000FA01F8380C4FEA13497F
:100D3800B4FBF0FE1FFA87FC00FB1E4449EA04449A
:100D48000EFB0CF9A14502FA01F20AD93C190EF181
:100D5800FF3A80F08480A14540F28180AEF1020E16
:100D68003C44A4EB09041FFA83F9B4FBF0F300FB3D
:100D7800134449EA044403FB0CFCA44507D93C1975
:100D880003F1FF3067D2A44565D9023B3C4443EAEE
:100D98000E40A0FB0293A4EB0C049C42CE469C465A
:100DA80051D34ED055B1B8EB0E0364EB0C0404FAE2
:100DB80006F6CB401E43CC40C5E90064002150E74D
:100DC800C2F1200320FA03F10CFA02FC24FA03F31F
:100DD80094400C434FEA1C4800FA02FE1FFA8CF7B5
:100DE800B3FBF8F008FB1031230C43EA014300FB86
:100DF80007F1994208D91CEB030300F1FF362CD206
:100E080099422AD9023863445B1AA4B2B3FBF8F1B9
:100E180008FB113344EA034401FB07F3A34208D952
:100E28001CEB040401F1FF3613D2A34211D9023995
:100E38006444E41A41EA004139E70446F0E608460A
:100E480006E7C845AED2B9EB020E63EB070C0138D2
:100E5800A8E73146EDE7034699E73046D4E7D6469A
:100E68007FE7634402384DE70646234608460FE706
:100E7800023E634430E700BF03685A004CBF43F0AA
:100E8800004323F000431844704700BF2DE9F8439E
:100E980049B34F1E044615463E464FF0000909EB7C
:100EA800060101EBD171491004EBC1084046FFF778
:100EB800E3FF8F4203464FEAC1000FD00830AB4230
:100EC800204407D8FFF7D8FF0138A84208D201F11B
:100ED8000109E4E7894506D04E1EE0E7AB42F9D8A0
:100EE8004046BDE8F8834FF000084046BDE8F88367
:100EF800012807D0022807D0044B00280CBF184649
:100F0800002070470248704702487047C115000822
:100F1800C5150008C915000830B5214B83B0044633
:100F28008D1E1BB301A92846AFF3008088B3019931
:100F38002A46FFF7ABFF014658B3FFF79DFF4B6802
:100F4800A064012B28D0002B01F104001FDBFFF760
:100F580093FF002323650368E064002B0DDBFFF794
:100F68008BFF03460020236103B030BD0D4B0E49B3
:100F7800C91AC91018460191DAE7C3F30360FFF7ED
:100F8800B7FF034628B10020236103B030BD012319
:100F9800E0E700230920E6E700230520E3E700BF98
:100FA8000000000020590008705A00080368DA079A
:100FB80010B5044606D49B0700F1480009D500F097
:100FC80069FC2368590709D51A070ED5DB0613D51E
:100FD80010BD00F057FC23685907F5D404F1D00080
:100FE80000F060FC23681A07F0D404F5A87000F03C
:100FF80061FC2368DB06EBD404F5E870BDE810401B
:1010080000F09CBC092070470346006800B11844F2
:10101800704700BF704700BF70B504460E46316C7C
:101028002046FFF779FF054688B9326C626123696B
:1010380032462146012098470828F0D0072806D1D3
:101048002846316CFFF7E6FF301D00F00FFC04F076
:10105800BFFB00BF2DE9F0470D1DD0F80C80D0F87C
:101068001890074614460FCDADF5727D0DF10C0CA6
:10107800ACE80F000FCDACE80F000FCDACE80F00C7
:1010880095E80F0002AE4FF0000E8CE80F00C6F88E
:1010980000E020E0336C7B614FF4F07231467AA8AF
:1010A80004F0EAFB3B697AAA394650469847889B80
:1010B80073642146CDE9006905463B463A4601205E
:1010C800C047044618BB4FF4F0727AA9304604F0C2
:1010D800D3FB082D19D1316C3846FFF71DFF0934B1
:1010E8005FFA84FA05460028D4D0B36B73643A4695
:1010F800CDE900693B464AF010010120C04730B9EC
:1011080028460DF5727DBDE8F087072D05D0092525
:1011180028460DF5727DBDE8F0872046316CFFF753
:1011280079FF03A800F0A2FB406C7047F0B5CB6BC9
:101138000B6401F1040C0E460546BCE80F00F9B03B
:1011480001AC0FC4BCE80F000FC4BCE80F000FC40B
:101158009CE80F004FF0FF3784E80F00009706E087
:101168002B696A46294698470828044608D11099E9
:101178002846FFF7D1FE0028F2D0092079B0F0BD4B
:101188006846FFF713FF062CF7D131462846FFF7CC
:1011980043FF00BFC160D96B826119640022194600
:1011A80058E700BF70B5C66843690B64AEB90369F8
:1011B8000A4604460D46014602209847072805D0EE
:1011C80008280FD129462046FFF726FF3046296C0C
:1011D800FFF720FF281D00F049FB0122FFF73AFF27
:1011E80004F0F6FA04F0F4FAC2681AB1CA6B0A6499
:1011F80000222FE79AE700BF704700BF83680146C7
:101208000BB1012018477047012910D009D883B9BC
:101218000F2A0ED800EB820218465368009A136012
:101228007047033901298CBF022001207047084606
:1012380070470220704700BF00B585B00A460023FA
:1012480003A900911946FFF7DFFF039805B05DF881
:1012580004FB00BF012910D009D883B90F2A0ED882
:10126800009900EB820209685160184670470339FB
:1012780001298CBF022001207047084670470220D0
:10128800704700BF10B584B0002303AC03920094EC
:101298000A461946FFF7DEFF04B010BD70B5D36BE0
:1012A800136402F1040C05460C46BCE80F00ADF5CA
:1012B8000E7D0DF15C0EAEE80F00BCE80F00AEE845
:1012C8000F00BCE80F00AEE80F009CE80F004FF0DD
:1012D800FF368EE80F00169610E0FFF7D3FF214681
:1012E80016A8A847034616AA6946082083B9049B8E
:1012F8009847052806460CD0092809D0269968463B
:10130800FFF70AFE03466A460C2116A8002BE4D014
:10131800092616A8FFF74AFE30460DF50E7D70BD6A
:101328002DE9F04F9346CA6C89B00D4652F8041B5C
:10133800069200F0030C002B79D00C0C8DF81D40A0
:101348000904E4B2059102EB840202212F6D8DF8A5
:101358001C10BCF1020F08BFAA6B17F001070CD0D4
:1013680005A9584600F084FB18B9082009B0BDE863
:10137800F08F092009B0BDE8F08F1668002EEFD075
:1013880000F008010191B246029764469946B9F106
:10139800020F48D0B2F800A0568802F10408AA6CDF
:1013A80026F001030F2158469F18FFF745FF874293
:1013B80037D82AF001023A44824294BF002201221F
:1013C800730003F002030AF0010A43EA0A03012B3F
:1013D80047D0022B31D0002BCBD114B1002A40F0DA
:1013E800C98008F10402D2F800A0BAF1000FCED1EA
:1013F80005A95846029F00F03BFB0028B9D1002FF1
:10140800B3D00F215846FFF717FF0E210246584662
:10141800FFF738FF674A0F215846FFF733FF0720C9
:10142800A8E70022CCE7566802F10808B7E70902E6
:1014380005918DF81D30032188E7D8F8006026F063
:101448000043002C44D122B1019A002A5AD0002B23
:1014580058D0002E01DA08F10408013308EB8302A2
:10146800C1E7ECB9CAB1D8F80430D8F80020991C03
:101478004FEAD2723FF47DAF05F158010133049170
:1014880000F08B8008F10400FFF7BEFD04AB0146B5
:101498002846AFF30080002857D108F10802A2E7D8
:1014A8000D215846FFF7C8FE2B6A8342F5D1AB6A77
:1014B8009845F2D14046FFF7DFFC0F210246584617
:1014C800FFF7E0FE2A4600215846FFF7DBFEA6E7B5
:1014D8000D2158460393FFF7AFFE2A6A039B824209
:1014E800B7D1AA6A9045B4D100270422C5E90B7286
:1014F8004244AB626A63D8F80020BA4255DB012245
:101508000292AAE7039408F1040A002605F1580795
:101518001C460DE050460497FFF776FD0022014671
:1015280004AB284601360AF1040AAFF30080E0B99B
:10153800A642EFD10D215846FFF77EFE049BC5F861
:101548002880C5E90803062014E704460D215846FB
:10155800FFF772FE049E2862022C04BFEE6205F1BA
:101568002C06C5E90968062004E72346D8F8006078
:10157800039C6EE74046FFF77FFC08F1040204462F
:10158800AA632846AFF3008000283FF4F2AE224653
:101598000F215846FFF776FE41E70C4658460D21C5
:1015A800FFF74AFE26462862DBE7581C08EB800056
:1015B80081E700BF000000000023B1E60123AFE689
:1015C8000223ADE62DE9F0430646C3B015461C4696
:1015D800042900F2D180DFE801F0AC51CF2A0300E2
:1015E800002C40F0C980102A00F2C6800368DC068F
:1015F80000F1E78020AF384600F0AAF9B46B39460D
:1016080000234FF0010C0CFA03F22A42204603F1A2
:10161800010303D050F8042B0A600446042B01F19F
:101628000401F0D1B463384600F088F999E0032C3E
:1016380040F0A28094B204EB1243102B4FEA1245FB
:1016480000F29A8003681F0700F1C38020AF384674
:1016580000F052F9B26B07EBC50154B10B46D01A32
:1016680001EBC401E4001D5843F8045B8B42FAD136
:101678002244B263384600F01DF972E0012C4FEAAB
:10168800124895B271D0052C76D108EB0509B9F14D
:10169800200F71D8B8F10F0F72D8B9F1100F036885
:1016A80000F29F80D90708D523F00103304643F0A4
:1016B800020340F8483B00F0F1F820AF384600F04C
:1016C800EDF8B36B002D00F0B9806D006A1E07EBD2
:1016D800C80100250132043903EB820253F8040BD8
:1016E80041F8040F9342F9D1002D00F0A180414642
:1016F800102938BF10216B0010396F46013B07EBEA
:10170800C1010133043902EB830352F8040B41F899
:10171800040F9A42F9D1012C00F08880B8F10F0F1C
:10172800B26302D820A800F0B5F8384600F0BAF83D
:1017380017E00CBB806B23461FFA82FC0124371D7F
:1017480004FA03F111EA0C0F024604D052F8041B04
:1017580047F8231010460133102BF1D1AC0400D404
:10176800B063002043B0BDE8F08308EB0503102BFD
:1017780002D8B8F1100F14D1022043B0BDE8F083AD
:10178800002DEED003685A075CD46F46384600F047
:101798008DF8B26B6B00A8F11001013B07EBC1019A
:1017A800AFE70368DA0759D420AF384600F06EF87F
:1017B800B36B002D89D10433B363384600F062F867
:1017C800CFE723F01003036000F5E87000F0C0F8DD
:1017D80010E723F00803036000F5A87000F08CF808
:1017E80034E7D90708D523F0010343F0020340F892
:1017F800483B00F053F83368580706D5304623F0C5
:10180800040340F8D03B00F051F820AF384600F010
:1018180045F8684600F04AF8C8F110025200B36B68
:10182800A9F11005013A07EBC80153E720AFC2E759
:10183800012CC0D0B8F10F0FB36392D8384600F02E
:1018480029F88EE723F0040340F8D03B6F4600F0F8
:101858002DF8384600F02AF8B26B9BE7304623F0A3
:10186800030340F8483B00F011F89DE700F134010C
:1018780091E838009C46A6464CF8045D90E8FF0FB6
:10188800E54600BD90EC210B704700BF80EC210BB2
:10189800704700BF90EC200B704700BF80EC200B16
:1018A800704700BFD0EC200B704700BFC0EC200B86
:1018B800704700BFF0EC0201F0EC0211F0EC0221DD
:1018C800F0EC0231F0EC0241F0EC0251F0EC026174
:1018D800F0EC0271F0EC0281F0EC0291F0EC02A164
:1018E800F0EC02B1F0EC02C1F0EC02D1F0EC02E154
:1018F800F0EC02F1704700BFE0EC0201E0EC0211ED
:10190800E0EC0221E0EC0231E0EC0241E0EC0251B3
:10191800E0EC0261E0EC0271E0EC0281E0EC0291A3
:10192800E0EC02A1E0EC02B1E0EC02C1E0EC02D193
:10193800E0EC02E1E0EC02F1704700BFB0FC01818D
:10194800B0FC0191B0FC01A1B0FC01B1704700BF2F
:10195800A0FC0181A0FC0191A0FC01A1A0FC01B1A7
:10196800704700BFEC4600B52DE900502DE9FF1F78
:101978004FF000032DE90C0001A9FFF7D7FBDDF8B4
:1019880040E012B0704700BFEC4600B52DE90050AA
:101998002DE9FF1F4FF000032DE90C0001A9FFF707
:1019A80001FCDDF840E012B0704700BFEC4600B51E
:1019B8002DE900502DE9FF1F4FF000032DE90C0021
:1019C80001A9FFF711FCDDF840E012B0704700BF35
:1019D800EC4600B52DE900502DE9FF1F4FF000033C
:1019E8002DE90C0001ABFFF7D5FBDDF840E012B0A4
:1019F800704700BFEC4600B52DE900502DE9FF1FE8
:101A08004FF000032DE90C0001AAFFF747FCDDF8B1
:101A180040E012B0704700BF027A03467AB9427AB2
:101A2800A2B14168013A10B44272086803220C1D41
:101A38001A7202025C60000E10BC1A6070470068DF
:101A4800013A1A7202021A60000E7047B0207047FD
:101A580000B585B0002303AA009219460C22FFF7AF
:101A6800D3FB039805B05DF804FB00BFF0E700BFA7
:101A78002DE9F043064685B00D464FF0000828468C
:101A8800FFF7CAFFB028044600F0DA80070646D5FB
:101A980000F0F003802B5ED0B02B73D01BD8902BB6
:101AA80000F09B80A02B12D1C34303F007034FF42F
:101AB8007F621A41010702F47F6201D542F4804235
:101AC800002319463046FFF77DFD0028D7D00920AE
:101AD80005B0BDE8F083C02B6DD1C62800F0938017
:101AE800C72800F0B28000F0F803C02B00F0D280C5
:101AF800C82800F0DD80C928E9D12846FFF78CFF07
:101B0800020300F00F0002F47022013002430121A9
:101B180005233046FFF756FD0028B0D0D7E78300ED
:101B2800DBB21F1D0DF10C0900231946CDF80090FA
:101B38000D223046FFF768FB039BCDF80090600646
:101B48004CBFDF1BFF1800230D22194630460397B0
:101B5800FFF780FB93E72846FFF75EFF2402204348
:101B6800B0F5004FB3D004010023A2B219463046A5
:101B7800FFF728FD0028AAD114F4004F18BF4FF032
:101B880001087CE7B12851D0B22800F0AD80B32815
:101B98006DD000F0FC03B42B99D000F0070201329D
:101BA800012342F4002219463046FFF70BFD0028B6
:101BB8003FF465AF8BE700F0F803D02B87D100F036
:101BC80007020132052342F4002201213046FFF7C3
:101BD800F9FC00283FF453AF79E700F00D030D2B13
:101BE8003FF475AF03AF002300F00F0219460097CA
:101BF8003046FFF709FB002300970D2219463046AF
:101C0800FFF728FB3BE72846FFF706FF020300F033
:101C18000F00013002F470220323024319463046B4
:101C2800FFF7D0FC00283FF42AAF50E72846FFF71B
:101C3800F3FE431EDBB20E2B02467FF641AF46E7AA
:101C4800B8F1000F40D0002042E72846FFF7E4FE35
:101C5800431EDBB20E2B02463FF639AF00230421A8
:101C68003046FFF7AFFC00283FF409AF2FE72846BE
:101C7800FFF7D2FE020300F00F00013002F47022D9
:101C88000123024319463046FFF79CFC00283FF425
:101C9800F6AE1CE700F00F020132032342F42022C3
:101CA80019463046FFF78EFC00283FF4E8AE0EE7F1
:101CB8002846FFF7B1FE00F0F00200F00F031032E3
:101CC800013343EA023222E703AC434641460E227F
:101CD80000943046FFF798FA009443460F22414695
:101CE8003046FFF7B7FAAEE700230DF10C090D22D5
:101CF8001946CDF800903046FFF786FA2846FFF7D8
:101D08008BFE0206039C4FF002070BD500F07F0004
:101D1800B840044428460394FFF77EFE030607F103
:101D28000707F3D400FA07F204F5017422440023EC
:101D38000392CDF800900D2219463046FFF78AFA33
:101D48009DE600BF10B5C26C536884B04FF0030C19
:101D580008321C0208461B0E01A9019402928DF854
:101D68000CC08DF80D30FFF783FE04B010BD00BF26
:101D780008B5FFF77BFE806C08BD00BF08B5FFF70C
:101D880075FEC06CC379023300EB830008BD00BF49
:101D9800704700BF08B5034B834200D008BD02F06E
:101DA80065FDFBE73402002072B6FEE700B595B08A
:101DB8003422002107A803F0FDFB002302930393BC
:101DC8000493059306930093214A116C41F08051C6
:101DD8001164126C02F080520092009A01931D4A1D
:101DE800116841F440411160126802F440420192C6
:101DF800019A0222079201210A9110210B910D925A
:101E08000E9308230F93B4231093119212921392F6
:101E180007A800F0BBFFA0B901F036FD98B90F2361
:101E2800029302230393002304934FF4A0530593D2
:101E38000693052102A800F03FFE30B915B05DF801
:101E480004FBFFF7B1FFFFF7AFFFFFF7ADFF00BFE0
:101E5800003802400070004008B501F0F5FDFFF7BA
:101E6800A5FF00F013F800F0BBF900F075F800F0DA
:101E7800E1F902F085FC02F0FBFC034801F024FEC6
:101E880002F002FDFEE700BF340200202DE9F04118
:101E980088B000240394049405940694079400944D
:101EA800294B1A6B42F004021A631A6B02F00402FF
:101EB8000092009A01941A6B42F001021A631A6B9D
:101EC80002F001020192019A02941A6B42F0020296
:101ED8001A631B6B03F002030293029BDFF8748002
:101EE80022463021404601F063FA184F22464FF44B
:101EF8004A51384601F05CFA154E22464FF4E85133
:101F0800304601F055FA30230393012504950594D2
:101F1800069403A9404601F05BF94FF44A53039332
:101F280004950594069403A9384601F051F94FF435
:101F3800E853039304950594069403A9304601F0E9
:101F480047F908B0BDE8F0810038024000040240BB
:101F5800000802400000024000B585B0002300934D
:101F68000193029303935D485D4A026043604FF01A
:101F78000072826001220261027680F82030C3621A
:101F880058498162C3600C23C36180F830204261E4
:101F980000F0D4FA00287AD10E230093012301938C
:101FA800029369464D4800F0B1FC002872D107231E
:101FB8000093022301936946484800F0A7FC0028D3
:101FC8006BD10D230093032301936946434800F026
:101FD8009DFC002864D106230093042301936946DD
:101FE8003E4800F093FC00285DD10C2300930523A4
:101FF8000193032302936946384800F087FC0028C0
:1020080054D109230093062301936946334800F00D
:102018007DFC00284DD10A230093072301936946CC
:102028002E4800F073FC002846D10B2300930823A8
:1020380001936946294800F069FC00283FD1022332
:102048000093092301936946244800F05FFC0028A7
:1020580038D1032300930A23019369461F4800F0EF
:1020680055FC90BB0F2300930B23019369461B4833
:1020780000F04CFC60BB082300930C2301936946D5
:10208800164800F043FC30BB05B05DF804FBFFF7D1
:102098008BFE81E7FFF788FE89E7FFF785FE90E76B
:1020A800FFF782FE97E7FFF77FFE9EE7FFF77CFECC
:1020B800A7E7FFF779FEAEE7FFF776FEB5E7FFF78C
:1020C80073FEBCE7FFF770FEC3E7FFF76DFEC9E7D5
:1020D800FFF76AFECFE7FFF767FED5E7DC000020D1
:1020E800002001400100000F70B58AB0002305935D
:1020F8000693079308930993026803F1804303F555
:1021080090339A4201D00AB070BD0446002501956B
:1021180003F58C335A6C42F480725A645A6C02F498
:1021280080720192019A02951A6B42F004021A63B6
:102138001A6B02F004020292029A03951A6B42F09B
:1021480001021A631A6B02F001020392039A0495C2
:102158001A6B42F002021A631B6B03F0020304932A
:10216800049B3F2305930326069605A9174801F00B
:102178002FF8CC2305930696079505A9144801F076
:1021880027F805960696079505A9124801F020F844
:102198001148124B036045608560C5604FF4806349
:1021A80003614FF4006343614FF4005383614FF4BC
:1021B8008073C3610562456201F080F918B9064B66
:1021C800A3639C639FE7FFF7EFFDF8E70008024071
:1021D80000000240000402407C000020106402401D
:1021E80010B582B000240194114B1A6B42F480029E
:1021F8001A631B6B03F480030193019B224621465B
:10220800382001F0D3FB382001F0E0FB22462146BC
:10221800392001F0CBFB392001F0D8FB22462146BA
:10222800452001F0C3FB452001F0D0FB02B010BDF2
:102238000038024008B50A480A4B03604FF461337E
:10224800436000238360C36003610C2242618361A1
:10225800C36101F004FF00B908BDFFF7A5FDFBE766
:10226800E40100200014014030B589B00023039335
:1022780004930593069307930268354B9A4201D05D
:1022880009B030BD04460025019503F592335A6C18
:1022980042F020025A645A6C02F020020192019A1C
:1022A80002951A6B42F004021A631B6B03F00403D5
:1022B8000293029BC02303930223049303230693F0
:1022C8000823079303A9234800F082FF2248234BE1
:1022D80003604FF0206343608560C5604FF48063FE
:1022E8000361456185614FF48073C361056245628E
:1022F80001F0E4F828BB184BE3639C631848194BBA
:1023080003604FF020634360402383600023C36071
:102318004FF480620261436183614FF48072C2614D
:102328000362436201F0CAF870B90D4BA3639C6362
:1023380000221146472001F039FB472001F046FBF7
:102348009EE7FFF731FDD6E7FFF72EFDEDE700BF6B
:102358000014014000080240840100202864024063
:1023680024010020A0640240FEE7FEE7FEE7FEE746
:10237800FEE770477047704708B501F07FFB08BD5E
:1023880008B5024801F0E8FB08BD00BF3402002090
:1023980008B5024801F08AF908BD00BF7C0000209A
:1023A80008B5024801F082F908BD00BF8401002089
:1023B80008B5024801F07AF908BD00BF24010020E1
:1023C80008B5024801F09AFF08BD00BFE4010020EB
:1023D80082B0002100910B4B5A6C42F480425A643F
:1023E8005A6C02F480420092009A01911A6C42F0F1
:1023F80080521A641B6C03F080530193019B02B056
:10240800704700BF003802404A4B5A6822F44032F5
:102418005A605A6841680A435A600268536823F44C
:102428008073536002685368016943EA012353606B
:102438000268536823F040735360026853688168E8
:102448000B4353600268936823F400639360026847
:102458009368C1680B439360826A374B9A4257D09E
:102468000268936823F07063936002689368816AD6
:102478000B4393600268936823F0405393600268AB
:102488009368C16A0B4393600268936823F0020360
:10249800936002689368017E43EA4103936090F871
:1024A8002030002B3FD00268536843F40063536028
:1024B8000268536823F46043536001684B68426ABA
:1024C800013A43EA42334B600268D36A23F470034B
:1024D800D3620168CB6AC269013A43EA0253CB620C
:1024E8000268936823F4007393600268936890F815
:1024F800301043EA412393600268936823F48063B1
:10250800936002689368416943EA81239360704746
:102518000268936823F0706393600268936823F0FD
:1025280040539360B0E70268536823F40063536034
:10253800CAE700BF002301400100000F38B310B5FF
:102548000446036C43B1236C13F0100F0BD0012029
:10255800002384F83C3010BDFFF7C6FD00236364F8
:1025680084F83C30EFE7236C23F4885323F002030C
:1025780043F0020323642046FFF746FF002060640F
:10258800236C23F0030343F001032364E0E70120F5
:102598007047000082B00023019390F83C30012B73
:1025A80000F08980012380F83C3003689A6812F0B3
:1025B800010F13D19A6842F001029A60414B1B68DF
:1025C800414AA2FB03239B0C03EB4303019302E064
:1025D800019B013B0193019B002BF9D10268936891
:1025E80013F0010F5CD0036C23F4E06323F00103C4
:1025F80043F480730364536813F4806F05D0036C4D
:1026080023F4405343F480530364036C13F4805F52
:102618001BD0436C23F006034364002380F83C304E
:102628006FF022031360294B5B6813F01F0F27D14B
:102638000368274A934211D002F58072934207D06B
:10264800244A934214D0002033E000234364E4E793
:1026580002F50072526812F01F0FF1D19A6812F059
:10266800405F2AD19A6842F080429A60002020E0B8
:1026780002F58072526812F0100FEFD0002018E0B7
:102688000368134A934201D0002012E09A6812F0BE
:10269800405F14D19A6842F080429A60002008E0B6
:1026A800036C43F010030364436C43F00103436479
:1026B800002002B070470220FBE70020F9E7002065
:1026C800F7E700BF0800002083DE1B43002301401A
:1026D800002001400022014010B582B013460022BC
:1026E800019290F83C20012A00F0AE8004460122B5
:1026F80080F83C200268906810F0010F13D19068B0
:1027080040F001009060534A1068534AA2FB002031
:10271800800C00EB4000019002E001980138019024
:1027280001980028F9D12268906810F4807F03D0BE
:10273800906820F4807090602268906810F0010F13
:1027480077D0206C20F4E06020F0010040F4807025
:102758002064526812F4806F05D0226C22F4405233
:1027680042F480522264226C12F4805F36D0626C8C
:1027780022F006026264002284F83C20A26B3748EB
:10278800D063A26B36481064A26B3648D0642268C6
:102798006FF0220010602068426842F08062426058
:1027A8002068826842F48072826020680A4600F1DC
:1027B8004C01A06B00F0E8FE2B4B5B6813F01F0F79
:1027C80027D12368294A934211D002F58072934297
:1027D80007D0274A934214D0002033E000226264D5
:1027E800C9E702F50072526812F01F0FF1D19A681A
:1027F80012F0405F2AD19A6842F080429A60002025
:1028080020E002F58072526812F0100FEFD000201D
:1028180018E02368154A934201D0002012E09A6814
:1028280012F0405F14D19A6842F080429A6000200A
:1028380008E0236C43F010032364636C43F0010346
:102848006364002002B010BD0220FBE70020F9E716
:102858000020F7E70800002083DE1B43A3280008B8
:10286800812800088D28000800230140002001402D
:10287800002201407047704708B5806BFFF7FBFFE7
:1028880008BD704708B5806B40230364436C43F070
:1028980004034364FFF7F5FF08BD08B50346806BE2
:1028A800026C12F0500F25D1036C43F400730364DB
:1028B80003689A6812F0405F19D1027EBAB9DA6AE1
:1028C80012F4700F03D09A6812F4806F0FD15A680F
:1028D80022F020025A60036C23F480730364036CB3
:1028E80013F4805F03D1036C43F001030364FFF723
:1028F800C1FF08BD026C12F0100F04D1826BD26CBC
:1029080018469047F5E7FFF7BCFFF2E730B482B00E
:102918000022019290F83C20012A00F0C080034672
:10292800012280F83C200A68092A40D90468E06836
:1029380092B202EB42021E3A4FF0070C0CFA02F276
:1029480020EA0202E2601C68E0680A8802EB4202A0
:102958001E3A8D6805FA02F20243E2604A68062AC6
:102968003CD81C68606B02EB8202053A4FF01F0CE2
:102978000CFA02F220EA020262631C68606B4A6881
:1029880002EB8202053AB1F800C00CFA02F20243E7
:1029980062631868434A904250D01868414A90428E
:1029A80059D0002083F83C0002B030BC704704685E
:1029B800206992B202EB42024FF0070C0CFA02F2C5
:1029C80020EA020222611C6820690A8802EB42029E
:1029D8008D6805FA02F202432261BFE70C2A16D875
:1029E8001D68286B02EB8202233A1F2404FA02F2C4
:1029F80020EA02022A631D68286B4A6802EB8202F9
:102A0800233A0C8804FA02F202432A63C1E71D68DC
:102A1800E86A02EB8202413A1F2404FA02F220EA31
:102A28000202EA621D68E86A4A6802EB8202413AD9
:102A38000C8804FA02F20243EA62AAE70A68122A38
:102A4800ABD1194A506820F400005060506840F437
:102A580080005060A1E70A681448824201D0112A18
:102A68009FD1114A506820F480005060506840F4AB
:102A78000000506009680D4A914292D10C4A1268D0
:102A88000C49A1FB0212920C02EB82025200019245
:102A9800019A002A85D0019A013A0192F8E70220AA
:102AA80082E700BF0020014000230140120000100F
:102AB8000800002083DE1B43002800F09B8070B5CF
:102AC8000D4604464F4B1B6803F00F038B4208D298
:102AD800CBB24C4A1370136803F00F038B4240F0DB
:102AE8008B80236813F0020F17D013F0040F04D063
:102AF800454A936843F4E0539360236813F0080F42
:102B080004D0414A936843F4604393603E4A936813
:102B180023F0F003A1680B439360236813F0010FBF
:102B280032D06368012B21D09A1E012A25D9364A52
:102B3800126812F0020F61D033498A6822F003024A
:102B480013438B6000F0A6FF06462F4B9B6803F0EB
:102B58000C036268B3EB820F16D000F09BFF801B5A
:102B680041F288339842F0D9032042E0264A12689D
:102B780012F4003FE0D101203BE0234A126812F032
:102B8800007FD9D1012034E01E4B1B6803F00F03EE
:102B9800AB4207D9EAB21B4B1A701B6803F00F034C
:102BA800AB422DD1236813F0040F06D0164A936860
:102BB80023F4E053E1680B439360236813F0080F94
:102BC80007D0114A936823F46043216943EAC1039B
:102BD800936000F047F80C4B9B68C3F303130B4A50
:102BE800D35CD8400A4B18600A4B186800F006FFFF
:102BF800002070BD012070470120FAE70120F8E7A6
:102C08000120F6E7003C024000380240C85800089E
:102C18000800002004000020014B1868704700BF1E
:102C28000800002008B5FFF7F7FF044B9B68C3F3C3
:102C38008223034AD35CD84008BD00BF0038024055
:102C4800C058000808B5FFF7E7FF044B9B68C3F3BB
:102C58004233034AD35CD84008BD00BF0038024065
:102C6800C058000808B5464B9B6803F00C03082BB6
:102C780007D00C2B45D0042B01D0424808BD424850
:102C8800FCE73F4B5A6802F03F025B6813F4800F81
:102C980012D03B4B5968C1F388113B480023A1FB74
:102CA8000001FDF773FF364B5B68C3F30143013343
:102CB8005B00B0FBF3F0E1E7314B5868C0F38810D4
:102CC8004FEA401CBCEB000C6EEB0E0E4FEA8E1365
:102CD80043EA9C634FEA8C11B1EB0C0163EB0E03E2
:102CE800DB0043EA5173C90011EB000C43F1000308
:102CF800990200234FEA8C2041EA9C51FDF746FFD8
:102D0800D1E71F4B5A6802F03F025B6813F4800F4B
:102D180010D01B4B5968C1F388111B480023A1FB35
:102D28000001FDF733FF164B5B68C3F30273B0FB7A
:102D3800F3F0A3E7124B5868C0F388104FEA401C21
:102D4800BCEB000C6EEB0E0E4FEA8E1343EA9C634D
:102D58004FEA8C11B1EB0C0163EB0E03DB0043EA85
:102D68005173C90011EB000C43F1000399020023D1
:102D78004FEA8C2041EA9C51FDF708FFD3E700BFDA
:102D8800003802400024F40040787D01002800F05B
:102D9800018270B582B00446036813F0010F41D078
:102DA800994B9B6803F00C03042B32D0964B9B681D
:102DB80003F00C03082B27D0934B9B6803F00C03FC
:102DC8000C2B59D06368B3F5803F5BD0B3F5A02FC7
:102DD8005ED08D4B1A6822F480321A601A6822F489
:102DE80080221A606368002B5CD000F053FE054611
:102DF800854B1B6813F4003F14D100F04BFE401BB9
:102E08006428F5D90320CCE17F4B5B6813F4800F6D
:102E1800D2D07D4B1B6813F4003F03D06368002BAE
:102E280000F0BA81236813F0020F60D0764B9B68DC
:102E380013F00C0F4AD0744B9B6803F00C03082B5B
:102E48003FD0714B9B6803F00C030C2B69D0E368EF
:102E5800002B75D06D4B01221A6000F01BFE054651
:102E6800694B1B6813F0020F61D100F013FE401B81
:102E78000228F5D9032094E1634B5B6813F4800FB3
:102E8800A0D0C6E7604A136843F480331360A9E70B
:102E98005D4B1A6842F480221A601A6842F4803244
:102EA8001A609FE700F0F6FD0546574B1B6813F4C0
:102EB800003FB7D000F0EEFD401B6428F5D9032091
:102EC8006FE1514B5B6813F4800FBAD14E4B1B680E
:102ED80013F0020F03D0E368012B40F05F814A4AE8
:102EE800136823F0F803216943EAC10313602368D8
:102EF80013F0080F49D06369002B33D0434B0122EC
:102F0800C3F8802E00F0C6FD05463F4B5B6F13F0FB
:102F1800020F3AD100F0BEFD401B0228F5D903206C
:102F28003FE1394B5B6813F4800F90D1CEE7364A06
:102F3800136823F0F803216943EAC1031360D6E755
:102F4800324B00221A6000F0A5FD05462E4B1B6887
:102F580013F0020FCBD000F09DFD401B0228F5D9DD
:102F680003201EE1294B0022C3F8802E00F092FDB9
:102F78000546254B5B6F13F0020F06D000F08AFD63
:102F8800401B0228F5D903200BE1236813F0040F36
:102F980076D01D4B1B6C13F0805F33D10023019357
:102FA800194B1A6C42F080521A641B6C03F0805360
:102FB8000193019B0125164B1B6813F4807F29D0D0
:102FC800A368012B3AD0052B3ED00F4B1A6F22F085
:102FD80001021A671A6F22F004021A67A368002B0D
:102FE8003CD000F057FD0646074B1B6F13F0020F4D
:102FF80045D100F04FFD801B41F288339842F3D948
:103008000320CEE00025D6E7003802400000474202
:10301800007000406B4A136843F48073136000F03B
:1030280039FD0646674B1B6813F4807FC8D100F052
:1030380031FD801B0228F5D90320B2E0624A136FE4
:1030480043F001031367C9E75F4B1A6F42F00402AC
:103058001A671A6F42F001021A67BFE700F01AFDFB
:103068000646594B1B6F13F0020F08D000F012FDF3
:10307800801B41F288339842F3D9032091E0EDB9DF
:10308800A369002B00F08C804F4A926802F00C0272
:10309800082A54D0022B17D04C4B00221A6600F095
:1030A800F9FC0446484B1B6813F0007F45D000F03C
:1030B800F1FC001B0228F5D9032072E0424A136C88
:1030C80023F080531364DBE7404B00221A6600F0BC
:1030D800E1FC05463C4B1B6813F0007F06D000F06E
:1030E800D9FC401B0228F5D903205AE0E369226A7B
:1030F8001343626A43EA8213A26A5208013A43EA16
:103108000243E26A43EA0263226B43EA02732E4AED
:1031180053602E4B01221A6600F0BCFC04462A4B71
:103128001B6813F0007F06D100F0B4FC001B0228D6
:10313800F5D9032035E0002033E0002031E0012BF1
:1031480031D0214B5B6803F48001E26991422CD1B4
:1031580003F03F02216A8A4229D1616A47F6C072A8
:103168001A40B2EB811F24D103F44031A26A5208FD
:10317800013AB1EB024F1ED103F07062E16AB2EB83
:10318800016F1AD103F0E043226BB3EB027F16D133
:10319800002006E001207047012002E0012000E045
:1031A800002002B070BD0120FBE70120F9E70120F3
:1031B800F7E70120F5E70120F3E70120F1E7012017
:1031C800EFE700BF007000400038024000004742AF
:1031D80000230F2B00F2E38070B582B065E08568AC
:1031E8004FEA430E032404FA0EF425EA0405CC68DA
:1031F80004FA0EF42C438460446824EA02044A6802
:10320800C2F300129A40224342605CE0DC080834B2
:1032180050F8242003F00705AD004FF00F0E0EFA0A
:1032280005FE22EA0E0E0A69AA4042EA0E0240F89A
:1032380024205CE0062200E0002202FA0EF22A4373
:103248000234574D45F82420564A94686FEA0C0218
:1032580024EA0C054E6816F4801F01D04CEA0405D8
:10326800504CA560E46802EA04054E6816F4001F95
:1032780001D04CEA04054B4CE560646802EA040599
:103288004E6816F4003F01D04CEA0405454C6560D1
:10329800246822404D6815F4803F01D04CEA0402AE
:1032A800404C226001330F2B77D801229A400C68DA
:1032B80004EA020C32EA0404F4D14C6804F0030472
:1032C800013C012C8BD94A6802F00302032A09D079
:1032D800C4685D000322AA4024EA02048A68AA405E
:1032E8002243C2604A6802F00302022A8ED00468B0
:1032F8004FEA430E032202FA0EF224EA02044A6855
:1033080002F0030202FA0EF2224302604A6812F443
:10331800403FC7D000220192234A546C44F48044B1
:103328005464526C02F480420192019A9C08A51CD4
:103338001B4A52F8255003F0030E4FEA8E0E0F2257
:1033480002FA0EF225EA0205184A90423FF474AFD9
:1033580002F58062904216D002F58062904214D045
:1033680002F58062904212D002F58062904210D03D
:1033780002F5806290420ED002F5806290423FF4DE
:1033880059AF072259E7012257E7022255E70322DE
:1033980053E7042251E705224FE702B070BD70479A
:1033A80000380140003C0140003802400000024063
:1033B8000AB18161704709048161704730B40568BA
:1033C8002C6824F480242C60046863608368402B94
:1033D80005D0036899600368DA6030BC70470368F9
:1033E8009A600368D960F8E710B40368D9B2103955
:1033F8000C4AA2FB014212090B4CA25CC2655F2970
:1034080009D923F47F7323F0030304338365806DA4
:103418005DF8044B704723F47F7323F0030383653F
:10342800F5E700BFABAAAAAAB8580008836A826960
:1034380092B9012B0AD0022B02D00BB100207047A1
:10344800C36A13F0807F28D100207047C36AB3F1A4
:10345800C07F24D000207047B2F5005F09D0022B4E
:1034680025D9032B25D1C36A13F0807F23D10020EF
:103478007047032B03D8DFE803F01404140A002074
:103488007047C36A13F0807F0DD100207047C36A6C
:10349800B3F1C07F09D00020704701207047012098
:1034A80070470120704701207047012070470120B4
:1034B80070470020704701207047000070B504462F
:1034C80000F0E8FA002C5BD00546022384F835307A
:1034D800002384F834302268136823F00103136052
:1034E80023681A6812F0010F0AD000F0D3FA431BC0
:1034F800052BF5D920236365032084F8350070BDBA
:103508001A68204911406268A0680243E0680243D3
:103518002069024360690243A0690243E0690243EB
:10352800206A02430A43616A04291ED01A60266889
:10353800756925F00705636A1D43042B07D1A36A43
:103548001D43E36A1BB12046FFF770FF90B9756110
:103558002046FFF749FFE26D3F2393408360002038
:103568006065012384F83530C9E7E16A206B0143BF
:103578000A43DBE740236365012084F83500BEE792
:103588000120BCE73F8010F038B50446856D90F8FF
:10359800340001282BD0012084F8340094F8350039
:1035A800C0B2012804D0002384F83430022038BD8A
:1035B800022084F83500002060652046FFF7FEFEF3
:1035C800E26D3F239340AB602268136843F0160313
:1035D8001360236C23B12268136843F00803136057
:1035E8002268136843F0010313600020DFE702201C
:1035F800DDE770B50446866D00F04CFA94F8353076
:10360800DBB2022B06D080236365002384F83430B4
:10361800012070BD05462268136823F01603136065
:103628002268536923F080035361236CE3B1226855
:10363800136823F0080313602268136823F001035A
:10364800136023681B6813F0010F11D000F022FAF1
:10365800431B052BF5D920236365032084F8350027
:10366800002384F83430D4E7A36C002BDFD1E3E7E0
:10367800E26D3F239340B360012384F83530002086
:1036880084F83400C5E790F83530DBB2022B03D05C
:103698008023436501207047052380F83530026890
:1036A800136823F00103136000207047F0B583B05E
:1036B800044600230193724B1D68724BA3FB05352A
:1036C800AD0A876D3E68C26D08239340334210D01F
:1036D80003681A6812F0040F0BD01A6822F004026B
:1036E8001A60C26D08239340BB60436D43F0010329
:1036F8004365E26D01239340334209D02268526941
:1037080012F0800F04D0BB60636D43F00203636561
:10371800E26D04239340334209D02268126812F004
:10372800020F04D0BB60636D43F004036365E26D70
:1037380010239340334224D02268126812F0080FF5
:103748001FD0BB6023681A6812F4802F0DD01B6845
:1037580013F4002F04D1236C9BB12046984710E046
:10376800A36C73B1204698470BE01A6812F4807F67
:1037780003D11A6822F008021A60236C0BB12046A4
:103788009847E26D20239340334255D0226812684F
:1037980012F0100F50D0BB6094F83530DBB2052B17
:1037A8000ED023681A6812F4802F33D01B6813F4E4
:1037B800002F2AD1636C002B3ED0204698473BE06F
:1037C8002268136823F0160313602268536923F0F4
:1037D80080035361236CA3B12268136823F00803A4
:1037E8001360E26D3F239340BB60012384F83530BA
:1037F800002384F83430236D002B3FD020469847AF
:103808003CE0A36C002BE7D1EBE7E36BA3B12046C8
:10381800984711E01A6812F4807F09D11A6822F0DB
:1038280010021A60012384F83530002384F83430FC
:10383800E36B0BB120469847636DFBB1636D13F0E2
:10384800010F17D0052384F835302268136823F058
:1038580001031360019B01330193AB4204D8236831
:103868001B6813F0010FF5D1012384F835300023CC
:1038780084F83430E36C0BB12046984703B0F0BDB0
:1038880008000020B5814E1B10B582B000230193BB
:10389800194B1A6C42F080521A641B6C03F0805367
:1038A8000193019B154B01221A6400F0F3F80446BA
:1038B800134B5B6813F4803F08D100F0EBF8001B52
:1038C800B0F57A7FF4D9032002B010BD0B4B01226A
:1038D8005A6400F0DFF80446094B5B6813F4003FB4
:1038E80007D100F0D7F8001BB0F57A7FF4D9032090
:1038F800EAE70020E8E700BF0038024000000E4277
:1039080000700040002807DB00F01F024009012377
:103918009340024A42F82030704700BF00E100E0BF
:10392800002808DB0901C9B200F1604000F56140D8
:1039380080F80013704700F00F000901C9B2014B6D
:103948001954704714ED00E000B500F00700C0F10D
:10395800070CBCF1040F28BF4FF0040C031D062B05
:103968000FD9C31E4FF0FF3E0EFA0CF021EA0001FA
:1039780099400EFA03FE22EA0E0241EA02005DF8BF
:1039880004FB0023EEE70000074AD36823F4E06352
:103998001B041B0C000200F4E060034343F0BF6308
:1039A80043F40033D360704700ED00E010B50446DF
:1039B800054BD868C0F30220FFF7C6FF0146204632
:1039C800FFF7AEFF10BD00BF00ED00E008B5FFF740
:1039D80099FF08BD0138B0F1807F0BD24FF0E0238A
:1039E8005861054AF02182F82310002098610722C7
:1039F8001A6170470120704700ED00E010B50446D9
:103A08000E4B1A784FF47A73B3FBF2F30C4A106832
:103A1800B0FBF3F0FFF7DEFF68B90F2C01D90120E6
:103A28000AE0002221464FF0FF30FFF7BFFF054BA9
:103A38001C60002000E0012010BD00BF0000002035
:103A4800080000200400002008B50B4B1A6842F457
:103A580000721A601A6842F480621A601A6842F4A6
:103A680080721A600320FFF78FFF0F20FFF7C6FF51
:103A7800FEF7AEFC002008BD003C0240034A116876
:103A8800034B1B780B441360704700BF2C020020C7
:103A980000000020014B1868704700BF2C0200206E
:103AA80038B50446FFF7F6FF0546B4F1FF3F02D0EC
:103AB800044B1B781C44FFF7EDFF401BA042FAD3D0
:103AC80038BD00BF0000002090F83D30DBB2012B6C
:103AD80037D1022380F83D300268D36843F00103F0
:103AE800D3600368194A934220D0B3F1804F1DD0A8
:103AF800A2F57C42934219D002F58062934215D018
:103B080002F58062934211D002F5784293420DD0BB
:103B180002F57052934209D0A2F59432934205D02F
:103B28001A6842F001021A60002070479A6802F091
:103B38000702062A07D01A6842F001021A6000201C
:103B48007047012070470020704700BF0000014007
:103B5800704770477047704770B504460368DE6861
:103B68001D6915F0020F10D016F0020F0DD06FF07E
:103B780002021A610123037703689B6913F0030F9C
:103B88005ED0FFF7E6FF0023237715F0040F12D06D
:103B980016F0040F0FD023686FF004021A61022395
:103BA800237723689B6913F4407F4FD02046FFF7A3
:103BB800D0FF0023237715F0080F12D016F0080F56
:103BC8000FD023686FF008021A6104232377236853
:103BD800DB6913F0030F40D02046FFF7BAFF00233C
:103BE800237715F0100F12D016F0100F0FD023689E
:103BF8006FF010021A61082323772368DB6913F436
:103C0800407F31D02046FFF7A4FF0023237715F02B
:103C1800010F02D016F0010F2DD115F0800F02D040
:103C280016F0800F2FD115F0400F02D016F0400F7C
:103C380031D115F0200F02D016F0200F33D170BD0E
:103C4800FFF786FF2046FFF785FF9CE72046FFF732
:103C58007FFF2046FFF77EFFABE72046FFF778FFA0
:103C68002046FFF777FFBAE72046FFF771FF2046A7
:103C7800FFF770FFC9E723686FF001021A61204659
:103C8800FEF788F8C9E723686FF080021A612046BA
:103C980000F0ABF8C7E723686FF040021A612046CE
:103CA800FFF759FFC5E723686FF020021A61204625
:103CB80000F09AF8C3E700000368344A904212D033
:103CC800B0F1804F0FD0A2F57C4290420BD002F5A4
:103CD8008062904207D002F58062904203D002F5DC
:103CE8007842904203D123F070034A681343274A6D
:103CF80090422AD0B0F1804F27D0A2F57C42904262
:103D080023D002F5806290421FD002F58062904273
:103D18001BD002F57842904217D002F570529042BB
:103D280013D002F5806290420FD002F58062904273
:103D38000BD0A2F59832904207D002F580629042EB
:103D480003D002F58062904203D123F44073CA681D
:103D5800134323F080034A69134303608B68C362EB
:103D68000B688362094B984203D003F5806398423D
:103D780001D10B69036301234361036913F0010F48
:103D880003D0036923F00103036170470000014079
:103D980040B310B5044690F83D30F3B1022384F8DF
:103DA8003D30214651F8040BFFF786FF012384F8C4
:103DB800463084F83E3084F83F3084F8403084F848
:103DC800413084F8423084F8433084F8443084F831
:103DD800453084F83D30002010BD80F83C3000F0BC
:103DE800E7FCDBE70120704770477047026802F183
:103DF8000C0353E8003F23F0C0030C3242E80031C3
:103E08000029F3D1202380F841307047026802F17D
:103E18000C0353E8003F23F490730C3242E800315E
:103E28000029F3D1026802F1140353E8003F23F09C
:103E38000103143242E800310029F3D1036B012B4E
:103E480005D0202380F842300023036370470268BE
:103E580002F10C0353E8003F23F010030C3242E850
:103E680000310029F3D1ECE790F84130DBB2212B87
:103E780001D0022070478368B3F5805F17D0036ACA
:103E88005A1C02621A7803685A60C38C9BB2013BC1
:103E98009BB2C3844BB90268D36823F08003D36014
:103EA8000268D36843F04003D36000207047036979
:103EB800002BE4D1036A1B880268C3F3080353602C
:103EC800036A02330362E0E710B504460268136927
:103ED80023F44053C1680B431361836802691A4392
:103EE80043691A43C3691A430168CB6823F416432C
:103EF80023F00C031343CB600268536923F4407327
:103F080081690B4353610368314A934206D002F535
:103F18008062934202D0FEF785FE01E0FEF792FE32
:103F2800E369B3F5004F29D00021031849411B1854
:103F380041F10001C90041EA5371DB0018186368B8
:103F48004FEA83024FEA937341F10001FCF71EFE2A
:103F5800204AA2FB00314909642303FB11031B011A
:103F68003233A2FB03235B0903F0F00202EB0112D8
:103F780003F00F03216813448B6010BD002302185F
:103F880043EB0301121841F10001C90041EA5271E3
:103F9800D200101841F10001626892185B41FCF7E9
:103FA800F5FD0C4AA2FB00314909642303FB110308
:103FB800DB003233A2FB03235B095A0002F4F872D8
:103FC80002EB011203F00703216813448B60D4E766
:103FD800001001401F85EB512DE9F04383B00546E1
:103FE8000E4617469946DDF828802B681C6836EA85
:103FF80004040CBF01240024BC4228D1B8F1FF3FBF
:10400800F3D0FFF747FDA0EB0900404523D8B8F1EE
:10401800000F22D02B68DA6812F0040FE5D0802E4A
:10402800E3D0402EE1D01A6812F0080FDDD000244A
:1040380001941A6801925B680193019B2846FFF777
:10404800E5FE08236B6485F84040012000E000206D
:1040580003B0BDE8F0830320FAE70320F8E760B374
:1040680010B5044690F8413013B3242384F8413046
:104078002268D36823F40053D3602046FFF724FF57
:104088002268136923F4904313612268536923F06B
:104098002A0353612268D36843F40053D360002095
:1040A8006064202384F8413084F84230606310BD96
:1040B80080F84030FEF7D8F8D7E7012070472DE99F
:1040C800F04182B01E4690F84130DBB2202B56D129
:1040D80004460D469046002955D00AB901204FE004
:1040E80000234364212380F84130FFF7D3FC0746BF
:1040F800A4F82480A4F82680A368B3F5805F02D0D2
:104108004FF0000814E023692BB34FF000080FE0CC
:10411800202384F84130032032E038F8023B22683B
:10412800C3F308035360E28C92B2013A92B2E2847C
:10413800E38C9BB293B100963B4600228021204637
:10414800FFF74AFF0028E3D1002DE6D015F8012B30
:1041580023685A60E7E7A8460025E9E700963B464A
:10416800002240212046FFF737FF18B9202384F8A2
:10417800413005E0202384F84130032000E002208C
:1041880002B0BDE8F0810120FAE7704708B5016880
:10419800CA6822F04002CA60202280F84120FFF756
:1041A800F4FF002008BD70477047704710B5846B56
:1041B80023685A6994F84130DBB2212B10D0236868
:1041C8005A6902F0400294F84230DBB2222B11D037
:1041D800636C43F0100363642046FFF7E6FF10BDED
:1041E80002F08002002AEAD00023E3842046FFF789
:1041F800FDFDE4E7002AEBD00023E3852046FFF726
:1042080005FEE5E708B5806B0023C385C384FFF787
:10421800CCFF08BD704790F84230DBB2222B69D141
:104228008368B3F5805F4FD0826AB3F5805F04D0AE
:10423800002B56D10369002B53D103685B681370B8
:10424800836A01338362C38D9BB2013B9BB2C385F2
:10425800002B51D100B583B00268D36823F0200346
:10426800D3600268D36823F48073D360026853690B
:1042780023F001035361202380F842300023436375
:10428800036B012B33D100230363026802F10C0393
:1042980053E8003F23F010030C3242E800310029B4
:1042A800F3D103681A6812F0100F06D000220192A9
:1042B8001A6801925B680193019B818DFFF7AAFF41
:1042C800002003B05DF804FB0269002AACD1826AC1
:1042D80003685B68C3F308031380836A023383624D
:1042E800B1E703685B6803F07F031370A8E7FFF783
:1042F8005AFFE5E7022070470020704710B582B0EA
:10430800044602681368D068516913F00F0F09D189
:1043180013F0200F0CD010F0200F09D02046FFF723
:104328007AFF16E011F0010115D110F4907F12D137
:10433800216B012979D013F0800F03D010F0800F82
:1043480040F0148113F0400F03D010F0400F40F0FC
:10435800118102B010BD13F0010F06D010F4807F58
:1043680003D0626C42F00102626413F0040F04D0BF
:1043780019B1626C42F00202626413F0020F04D0B9
:1043880019B1626C42F00402626413F0080F07D09E
:1043980010F0200F00D119B1626C42F0080262647B
:1043A800626C002AD5D013F0200F02D010F0200F35
:1043B80029D123685B6903F04003626C12F0080F8F
:1043C80000D163B32046FFF721FD23685B6913F032
:1043D800400F20D0226802F1140353E8003F23F075
:1043E8004003143242E800310029F3D1E36B73B182
:1043F800624A1A65E06BFFF746F90028A9D0E06B1E
:10440800036D9847A5E72046FFF705FFD1E720464B
:10441800FFF7CBFE9DE72046FFF7C7FE99E720464A
:10442800FFF7C3FE0023636493E713F0100F82D0F5
:1044380010F0100F3FF47FAF00230193136801932E
:1044480053680193019B536913F0400F52D0E26BFC
:1044580013685B689BB2002B3FF47BAFA18D994238
:104468007FF677AFE385D369B3F5807F37D02268CD
:1044780002F10C0353E8003F23F480730C3242E846
:1044880000310029F3D1226802F1140353E8003FF8
:1044980023F00103143242E800310029F3D12268E5
:1044A80002F1140353E8003F23F04003143242E8BA
:1044B80000310029F3D1202384F8423000232363FC
:1044C800226802F10C0353E8003F23F010030C327A
:1044D80042E800310029F3D1E06BFFF78AF80223A4
:1044E8006363A18DE38D9BB2C91A89B22046FFF799
:1044F80091FE2EE7A18DE38D9BB2C91A89B2E38D97
:104508009BB2002B3FF425AF00293FF422AF22686D
:1045180002F10C0353E8003F23F490730C3242E895
:1045280000300028F3D1226802F1140353E8003F59
:1045380023F00103143242E800300028F3D120238D
:1045480084F8423000232363226802F10C0353E805
:10455800003F23F010030C3242E800300028F3D16A
:10456800022363632046FFF755FEF2E62046FFF775
:104578007BFCEEE62046FFF709FEEAE60D4200085E
:1045880008B5806B01234363036B012B02D0FFF74F
:104598000BFE08BD818D4908FFF73CFEF9E708B519
:1045A8000346806B1B681B6813F4807F2BD10023A4
:1045B800C385026802F10C0353E8003F23F48073BB
:1045C8000C3242E800310029F3D1026802F11403E9
:1045D80053E8003F23F00103143242E80031002978
:1045E800F3D1026802F1140353E8003F23F04003BB
:1045F800143242E800310029F3D1202380F84230F8
:10460800036B012B07D000234363036B012B0FD0EF
:10461800FFF7C9FD08BD026802F10C0353E8003F2B
:1046280023F010030C3242E800310029F3D1EAE705
:10463800818DFFF7EFFDEDE730B583B004461346F3
:104648008162828500254564222280F84220C26B5F
:104658001F48D063E26B1F481064E26B1E48D064A9
:10466800E26B156520680A46011DE06BFEF78CFFBA
:10467800019523681A6801925B680193019B23697D
:104688005BB1226802F10C0353E8003F43F48073E6
:104698000C3242E800310029F3D1226802F11403F8
:1046A80053E8003F43F00103143242E80031002987
:1046B800F3D1226802F1140353E8003F43F04003AA
:1046C800143242E800310029F3D1002003B030BD94
:1046D800A745000889450008B541000808B590F8C5
:1046E8004230DBB2202B08D149B10AB9012008BDFC
:1046F80000230363FFF7A0FFF9E70220F7E7012093
:10470800F5E70000034AD2F8883043F47003C2F892
:104718008830704700ED00E010B503460C4A0D499B
:104728000D48006840B10C4800680344521A93428F
:1047380006D8094A136010BD0748084C0460F2E720
:1047480000F040FF0C2303604FF0FF30F3E700BF99
:10475800000002200004000030020020F0120020B7
:104768000120704708B500F02DFF162303604FF0B5
:10477800FF3008BD08B54FF0FF31FFF7F3FFFEE744
:1047880008B50948094B036042F227334360002308
:1047980083600122C26003618361FFF7F9FA00B9FF
:1047A80008BDFDF701FBFBE734020020004401408F
:1047B80002680E4B9A4200D0704700B583B00021C2
:1047C800019103F574435A6C42F400325A645B6CED
:1047D80003F400330193019B0A461920FFF7E6F81A
:1047E8001920FFF7F3F803B05DF804FB004401401B
:1047F800DFF834D0FFF786FF0C480D490D4A002337
:1048080002E0D458C4500433C4188C42F9D30A4A7D
:104818000A4C002301E013600432A242FBD300F0EB
:10482800D7FEFDF719FB70470000022000000020AA
:104838005C0000207C5A000860000020EC12002078
:10484800FEE70000012800D0704708B54FF6FF7357
:10485800994200D008BD034800F06CFA024800F005
:10486800F7F8F7E7A00200209C020020704700003C
:1048780010B5044C204600F00FFB04F6B85000F0C9
:104888002BFE10BDA002002010B54CE0344800F00B
:104898001AFE344B1979344A116059795160997963
:1048A8009160D979D160B3F91210304A1180597DDD
:1048B8002F4A1170D97D2F4A1170197E2E4A117016
:1048C800997D2E4A11701A7D2D4B1A702D4800F0D3
:1048D800EDF880B22C4B1880C72810D8214B012244
:1048E800198CD869FEF764FD264800F0DFF8C72860
:1048F800FAD91C4B0022198CD869FEF759FD2148BA
:1049080000F0D4F807EE900AF8EE677A9FED1F7A68
:1049180067EE877AF7EE006A86EEA77ABDEEC77A69
:104928001B4B83ED007A174800F0A2F80D4C204687
:1049380000F0E4FA04F1800000F016F9204600F0D7
:1049480025FB237C002BA1D004F6B854204600F0A8
:10495800B2FD204600F09FFB204600F0E1FC98E7FE
:1049680058100020A00200208402002082020020AB
:104978007F0200207D0200207C0200207E020020B1
:10498800800200209C02002098020020BD37863556
:104998009402002008B54FF6FF710120FFF752FF7F
:1049A80008BD10B5044680F8291307EE901AF8EEF2
:1049B800E77AB7EE007AC7EE277A17EE900AFBF788
:1049C80083FDC4E9CC0110BDF8B5054610EE100A08
:1049D80095F8283395F82963B34202D3002385F864
:1049E800283395F82873FBF76FFD05EBC703C3E978
:1049F800000100220023C5E9C82300240BE005EBD1
:104A0800C403D3E90023D5E9C801FBF7FFFBC5E9D7
:104A1800C8010134E4B2A642F1D8D5E9CC23D5E9DE
:104A2800C801FBF7A9FDC5E9C801013785F8287356
:104A3800F8BD90EDC80B704701E000F5B47010F1B7
:104A4800B40FFADB01E0A0F5B470B428FBDC7047C2
:104A5800064AD2F8FC3043F08073C2F8FC30A2F565
:104A68005D42136843F001031360704700ED00E0F6
:104A7800014B5B6803607047001000E038B50A4BD3
:104A88005A680068101AFBF7FDFC04460D46FEF74D
:104A9800E9F8FBF7F7FC02460B4620462946FBF7E8
:104AA80095FE41EC100B38BD001000E008B52DED67
:104AB800028B0D4B5B6802689B1A07EE903AB8EEC2
:104AC800678AFEF7CFF807EE100AB8EE477AC8EE05
:104AD800077A9FED067A67EE877AFCEEE77A17EE9B
:104AE800900ABDEC028B08BD001000E00024744958
:104AF800074B5A68074B1B680749A1FB03139B0C1C
:104B080003FB00F0024B5B689B1A8342FAD37047A1
:104B1800001000E00800002083DE1B43F8B50646BD
:104B2800174641600F4B1B68436300F1440503249B
:104B380004E02846FFF78CFF013C0435002CF8DA26
:104B4800376000240AE04FF44E7004FB00F0583040
:104B58000A213044FFF725FF0134E4B2032CF2D9CF
:104B68003046F8BDB45800082DE9F843044600253E
:104B780011E0264496F8380096F834301844FBF7CC
:104B880091FC00225A4BFBF7F7FCFBF78FFF86F8E6
:104B980030000135EDB2032D15D82E46631993F870
:104BA8003820236859195B5D9A4202D2621982F84B
:104BB8003830A31993F834200B789A42D9D9A2191E
:104BC80082F83430D5E700263FE005F1100704EB02
:104BD800870704373846FFF751FFAB1C04EBC303C4
:104BE80083ED000B3846FFF743FF46E04FF44E775E
:104BF80005FB07F75837274440464946FBF776FF39
:104C080000EE100A3846FFF7DFFE3846FFF711FFBF
:104C180051EC100BAB1C04EBC30383ED000B00221B
:104C2800344BFBF7A9FC02460B4600203249FBF740
:104C3800CDFD6719FBF73AFF387341E0254495F835
:104C48003C3085F840300136F6B2032E47D8354659
:104C5800A319002283F83C202268925D93F8303033
:104C68009A4203D9A319012283F83C20631993F8C7
:104C78003C2093F840309A42A7D105F1100004EB8C
:104C880080000430FFF7FAFE51EC100B16A3D3E9AD
:104C98000023FBF701FF30B1AB1C04EBC30300207A
:104CA8000021C3E90001AB1C04EBC303D3E900896D
:104CB8000022002340464946FBF7EEFE002895D126
:104CC800A91C04EBC10100220023D1E90001FBF774
:104CD800BBFE0028B2D0631900221A73AEE7BDE804
:104CE800F88300BFAFF300809A9999999999B93FD1
:104CF8000000E03F000010400000F03F0844007B47
:104D080070470246B0F80CC00368DB6B1B685B6831
:104D18009BB2ACEB03039BB24189994208D043682C
:104D2800585C013191FBFCF30CFB13115181704766
:104D3800002070472DE9F0438DB00446534DC561FE
:104D48004FF48061018400222846FEF731FB65623A
:104D58004FF40061218500222846FEF729FBE56211
:104D68004FF480572786002239462846FEF720FB55
:104D780004F1340965634FF48076268700223146B2
:104D88002846FEF715FBA5F58065E5638021A4F8A4
:104D9800401000222846FEF70BFB65644FF40071B3
:104DA800A4F8481000222846FEF702FBDFF8E4804A
:104DB800C4F84C801021A4F8501000224046FEF799
:104DC800F7FAC4F854802021A4F85810002240466D
:104DD800FEF7EEFAE565A4F8607000223946284629
:104DE800FEF7E6FA65664FF40051A4F86810002251
:104DF8002846FEF7DDFA264BE366304600F0CCFC89
:104E080020670023A4F87430A4F87630A4F87860FA
:104E180084F87A302246494604F18000FFF77EFE86
:104E280004F10F030B9304F10E030A9304F10D032D
:104E3800099304F10C03089304F10B03079304F19D
:104E48000A03069304F10903059304F10803049384
:104E580004F16403039304F15C03029304F1540323
:104E6800019304F14C03009304F1440304F13C0260
:104E7800494604F6B85000F0EFF804F6E460FFF78E
:104E8800E7FD20460DB0BDE8F08300BF00080240F2
:104E9800E40100200000024038B504460122018EDA
:104EA800C06AFEF785FA134D2846FDF773FB0C22FE
:104EB80011492846FDF710FC002206E00E4B33F896
:104EC8001230002BFAD00132D2B20B2AF6D90025C3
:104ED80084F87A50B4F87820216FE06EFFF7FEFB73
:104EE8006420FEF7DDFD2A46218EE06AFEF760FAAF
:104EF80038BD00BFDC0000208811002038B504460A
:104F0800214B1A8802705A8842709A888270DA880F
:104F1800C2701A8902725A8942729A898272DA892F
:104F2800C2721A8A02735A8A42739A8A8273DB8A15
:104F3800C373B0F9B83D438290F8BB3D437590F810
:104F4800BC3DC37590F8BD3D037600F6B85000F03F
:104F5800ABFAA07594F8BA3D237504F180050021D9
:104F68002846FFF7CBFE207101212846FFF7C6FE31
:104F7800607102212846FFF7C1FEA071032128466F
:104F8800FFF7BCFEE07138BD8811002030B583B052
:104F9800044600F6E4652846FFF788FDB0F5A67FCD
:104FA80046D9FF238DF8003023798DF801306379D5
:104FB8008DF80230A3798DF80330E3798DF8043049
:104FC800227DA37DDB0043EA02135BB2627D43EAE4
:104FD80082035BB2E27D43EA42035BB294F9182094
:104FE80013438DF80530B4F91200FBF75BFA002281
:104FF800174BFBF7C1FA0022164BFBF707F9FBF733
:1050080055FD8DF80600AA238DF807306423082281
:105018006946E06EFFF753F82846FFF729FD07E0D9
:1050280004F16C00FFF76DFE003818BF01202074F2
:10503800B4F87830E26ED26B1268526892B29B1A5A
:105048009BB2B4F876209342EAD103B030BD00BFDA
:105058000000E03F008056408160C2600361009B11
:105068004361019B8361029BC361039B036200232D
:1050780080F84430049B4362059B8362069BC362AD
:10508800079B0363089B4363099B83630A9BC36372
:105098000B9B0364704710B5044690F84430D3B9AD
:1050A800426A1178D0F8082191420ED90122027182
:1050B800A26A1178D4F80C21914209D901226271AF
:1050C800013384F84430002318E100220271EFE72D
:1050D80000226271F4E7013B032BF4D8DFE813F0F8
:1050E800040046008800C900C36A1B78C0F8A030D5
:1050F800036B1B78C0F89430436B1B78C0F884307E
:10510800836B1B784367C36B1B780365036C1B7841
:10511800C365C368012299881868FEF749F92369AD
:10512800002299881868FEF743F963690122998873
:105138001868FEF73DF9A369002299881868FEF7F8
:1051480037F9E369012299881868FEF731F9236A6B
:10515800002299881868FEF72BF90320FFF7C8FC8E
:1051680094F84430013384F84430ACE7C36A1B78C0
:10517800C0F89C30036B1B78C0F88830436B1B78F1
:10518800C0F88030836B1B788366C36B1B784365DC
:10519800036C1B788364C368002299881868FEF73B
:1051A80007F92369012299881868FEF701F96369EC
:1051B800002299881868FEF7FBF8A36901229988EC
:1051C8001868FEF7F5F8E369002299881868FEF771
:1051D800EFF8236A012299881868FEF7E9F8032096
:1051E800FFF786FC94F84430013384F844306AE7CA
:1051F800C36A1B78C0F89830036B1B78C0F89030EE
:10520800436B1B78C367836B1B780367C36B1B787F
:105218000366036C1B788365C36801229988186844
:10522800FEF7C6F82369012299881868FEF7C0F8C6
:105238006369012299881868FEF7BAF8A369012200
:1052480099881868FEF7B4F8E36901229988186804
:10525800FEF7AEF8236A012299881868FEF7A8F8C5
:105268000320FFF745FC94F84430013384F84430B8
:1052780029E7C36A1B78C0F8A430036B1B78C0F811
:105288008C30436B1B788367836B1B78C366C36B57
:105298001B784366036C1B78C364C3680022998833
:1052A8001868FEF785F82369002299881868FEF7C0
:1052B8007FF86369002299881868FEF779F8A3696E
:1052C800002299881868FEF773F8E3690022998824
:1052D8001868FEF76DF8236A002299881868FEF7A7
:1052E80067F80320FFF704FC002384F84430EAE65B
:1052F800E218002182F8131101339BB2172B0ED844
:1053080003F1120254F8221003F12A0254F8222061
:105318009142EDD9E218012182F81311ECE710BD92
:105328002DE9F84300AF0446002380F82B3109E04B
:1053380094F82B21E11891F813110A4484F82B21D1
:105348000133DBB2172BF3D994F82B31002B00F083
:105358009B806D46073303F4FC73ADEB030D684681
:1053680000231A4601E00133DBB2172B08D8E118F5
:1053780091F813110029F6D083540132D2B2F2E722
:1053880094F82B31073303F4FC73ADEB030D694636
:10539800002308E05A1C825C10F803C0A2EB0C0240
:1053A800CA540133DBB294F82B21013A9342F1DB62
:1053B8000378865C9B1BDBB218338B544FF0000ECE
:1053C80084F802E0734601E00133DBB294F82B2144
:1053D8009A4207D994F802C0CA5C9445F4D2A270E4
:1053E8009E46F1E710F80E60A078FBF75BF8002204
:1053F8002A4BFBF7C1F8804689463046FBF752F83E
:1054080042464B46FAF702FFFBF770FB06EE900A9E
:10541800B3EE087AC6EE877A9FED217A67EE877A2F
:105428009FED207A77EE877AFDEEE77A17EE900AFD
:10543800FFF702FB00B22080A3780C2B02D9C3F13E
:105448001803A37094F812318BB1B4F91031C31A50
:10545800002BB8BF5B421AB2B42A02DDC3F5B4739D
:105468001AB2782A03DDE37883F00103E370A4F825
:10547800100194F82B31003B18BF012384F8123136
:10548800AD46BD46BDE8F8830023E370A3702380D2
:10549800A4F8103184F81231F3E700BF0000E03FB0
:1054A8000000B4430000344390F82B310BB90020BE
:1054B80070470120704708B58368002299881868EA
:1054C800FDF776FF08BD08B583680122998818683A
:1054D800FDF76EFF08BD000038B50446FFF7EBFF87
:1054E8000A20FEF7DDFA0023C4F80831C4F80C31AD
:1054F80006E003F12A02002144F8221001339BB28E
:10550800172BF6D9002510E003F12A0154F82120C1
:1055180003F1120054F82000024444F8212001331A
:105528009BB2172BF0D90135ADB241F287339D42BA
:1055380012D82046FFF7AFFDD4F80831626A127816
:105548001344C4F80831D4F80C31A26A1278134411
:10555800C4F80C310023E4E7D4F808311449A1FB5E
:1055680003231A0BC4F80821D4F80C31A1FB031348
:105578001B0BC4F80C310332C4F808210333C4F8F8
:105588000C3100220EE002F12A0154F821300848BB
:10559800A0FB03031B0B44F82130033344F82130EC
:1055A800013292B2172AEED92046FFF78CFF38BD98
:1055B8005917B7D102440346934200D1704703F804
:1055C800011BF9E7014B1868704700BF0C00002069
:1055D80070B50D4D0D4C641BA4100026A64209D1D0
:1055E8000B4D0C4C00F056F9641BA4100026A64283
:1055F80005D170BD55F8043B98470136EEE755F8DC
:10560800043B98470136F2E7705A0008705A0008C0
:10561800705A0008785A00087047704770B50F4EE6
:105628000C463168054611B900F0A6F830602146ED
:10563800284600F0A1F8431C03D14FF0FF34204660
:1056480070BDC41C24F00304A042F8D0211A2846D7
:1056580000F092F80130F2D1EFE700BFDC12002031
:105668002DE9F843CD1C25F0030508350C2D38BF6E
:105678000C25002D064601DBA94204D90C23336012
:105688000020BDE8F883DFF8D48000F069F8D8F886
:1056980000301C4644BB29463046FFF7BFFF431C79
:1056A800044658D1D8F800402746002F43D1002C93
:1056B8004BD023683946304604EB030900F05CF808
:1056C800814542D121686D1A29463046FFF7A6FF69
:1056D80001303AD023682B442360D8F800305A6848
:1056E80062BBC8F800700FE02268521B20D40B2A56
:1056F80017D96119A342256018BF5960636808BFAC
:10570800C8F8001062514B60304600F02FF804F1E1
:105718000B00231D20F00700C21A1CBF1B1AA35040
:10572800AFE76268A3420CBFC8F800205A60EBE7F5
:1057380023466468AEE73C467F68B6E71A465B686E
:10574800A342FBD100235360DEE70C2333603046CD
:1057580000F00CF894E70560D6E700BFE0120020DF
:105768000148FFF759BF00BFD81200200148FFF7D2
:1057780054BF00BFD812002038B5064D0023044698
:1057880008462B60FEF7C8FF431C02D12B6803B103
:10579800236038BDE412002000F000B8012838BFAB
:1057A800012010B50446204600F01AF800B110BDDB
:1057B80000F006F808B900F00BF88047F3E700009E
:1057C800024B1868BFF35B8F704700BFE8120020D8
:1057D80008B5062000F034F80120FEF7CBFF0000E2
:1057E800024B01461868FFF73BBF00BF0C000020C2
:1057F8001F2938B505460C4604D9162303604FF017
:10580800FF3038BDC26B12B152F821304BB928466F
:1058180000F030F8224601462846BDE8384000F03E
:1058280017B8012B0AD0591C03D116230360012095
:10583800E7E7002142F82410204698470020E0E7D7
:10584800024B01461868FFF7D3BF00BF0C000020C9
:1058580038B5074D00230446084611462B60FEF76D
:1058680081FF431C02D12B6803B1236038BD00BF00
:10587800E4120020FEF774BF0A44914200F1FF339E
:1058880000D1704710B511F8014B03F8014F914250
:10589800F9D110BDF8B500BFF8BC08BC9E467047EA
:0C58A800F8B500BFF8BC08BC9E46704775
:1058B400FFFFFFFF00061016000610160000000090
:1058C40001020304000000000000000001020304C0
:0458D40006070809B2
:1058D80080C90181008408B100000000B1970181EE
:1058E800B0B0AD080000000008B10181B0B000847C
:1058F8000000000008B10181B0B000840000000081
:1059080008B10181B0B000840000000008B1018135
:08591800B0B0008400000000A3
:10592000A4B2FF7F01000000F8B5FF7FB0A902809C
:1059300084B6FF7FB0B0A880D4B6FF7F010000001E
:10594000E0B6FF7FB0B0AA8014B7FF7FAE71B2801F
:10595000E0B7FF7F01000000DCB7FF7FAB3F38807E
:105960003CB8FF7F0100000044B8FF7FB0B0AA80C0
:1059700080B8FF7F010000002CB9FF7FAA0DB28024
:10598000A8B9FF7FB0AF088038BCFF7F01000000DE
:105990003CBCFF7FAD3F0280DCBEFF7F010000000A
:1059A000B8C0FF7F00840480CCC0FF7F01000000EE
:1059B000C8C0FF7FB0AD048094C3FF7FB0A8038050
:1059C000B8C3FF7F44FFFF7FBCC3FF7F48FFFF7F5B
:1059D000C8C3FF7F01000000A0EEFF7FB0B0A88029
:1059E000BCEFFF7F010000009CF0FF7FA908B180A1
:1059F000C4F0FF7FE4FEFF7F00F1FF7F01000000A5
:105A000024F1FF7FAB08B18068F1FF7FAD08B18062
:105A1000F4F2FF7F0100000024F3FF7FB0AD0C80A3
:105A200080F4FF7FA908B1806CF5FF7FB0A90280E8
:105A300030F6FF7F0100000066F6FF7FB0B0A8805F
:105A4000E8F8FF7FA0FEFF7F68FAFF7F01000000FB
:105A50006EFAFF7F9CFEFF7F76FAFF7FA0FEFF7F3E
:105A600080FAFF7FA908B18054FBFF7F010000008E
:085A7000ED0100089D4900084A
:045A7800C901000858
:105A7C0001000000100000000024F40010000020C1
:105A8C0000000000A011002008120020701200205D
:105A9C0000000000000000000000000000000000FA
:105AAC0000000000000000000000000000000000EA
:105ABC0000000000000000000000000000000000DA
