:020000040800F2
:10000000000002209D230008A50A0008A70A000896
:10001000A90A0008AB0A0008AD0A000800000000A9
:10002000000000000000000000000000AF0A00080F
:10003000B10A000800000000B30A0008B50A000871
:10004000ED230008ED230008ED230008ED23000850
:10005000ED230008ED230008ED230008ED23000840
:10006000ED230008ED230008ED230008ED23000830
:10007000ED230008ED230008ED230008ED23000820
:10008000ED230008ED230008ED230008ED23000810
:10009000ED230008ED230008ED230008ED23000800
:1000A000ED230008ED230008ED230008ED230008F0
:1000B000ED230008ED230008ED230008ED230008E0
:1000C000ED230008ED230008ED230008ED230008D0
:1000D000ED230008ED230008ED230008ED230008C0
:1000E000ED230008ED230008ED230008ED230008B0
:1000F000ED230008ED230008ED230008ED230008A0
:10010000ED230008ED230008ED230008ED2300088F
:10011000ED230008ED230008ED230008ED2300087F
:10012000BD0A0008CD0A0008ED230008ED230008F1
:10013000ED2300080000000000000000ED2300088F
:10014000ED230008ED230008ED230008ED2300084F
:10015000ED230008DD0A0008ED230008ED0A000881
:10016000ED230008ED230008ED230008ED2300082F
:10017000ED230008ED230008ED2300080000000037
:1001800000000000ED230008000000000000000057
:10019000ED2300080000000000000000ED2300082F
:1001A000000000000000000000000000ED23000837
:1001B000ED230008ED230008ED230008ED230008DF
:0401C000ED23000823
:1001C40010B5054C237833B9044B13B10448AFF38D
:1001D40000800123237010BD0C00002000000000EB
:1001E400B824000808B5034B1BB103490348AFF317
:1001F400008008BD0000000010000020B8240008A2
:1002040053B94AB9002908BF00281CBF4FF0FF3179
:100214004FF0FF3000F06AB9ADF1080C6DE904CE7F
:1002240000F006F8DDF804E0DDE9022304B07047CD
:100234002DE9F047089D0C46002B4ED194468C4581
:100244008646B2FA82F262D94AB1C2F120039140E1
:1002540020FA03F30CFA02FC194300FA02FE4FEAF7
:100264001C471FFA8CF6B1FBF7F44FEA1E4307FB59
:10027400141143EA014304FB06F199420AD91CEB29
:10028400030304F1FF3080F01281994240F20F81A0
:10029400023C6344591A1FFA8EF3B1FBF7F007FBD3
:1002A400101143EA014300FB06F69E420AD91CEBF7
:1002B400030300F1FF3180F0FC809E4240F2F9809C
:1002C400634402389B1B40EA044000211DB1D34023
:1002D4000022C5E90032BDE8F0878B4205D90DB193
:1002E400C5E9000100210846F5E7B3FA83F10029C6
:1002F40046D1A34202D39042C0F0F080861A64EB48
:1003040003030120002DE6D0C5E90063E3E7002ADA
:1003140040F09080A1EB0C044FEA1C481FFA8CF7C4
:100324000121B4FBF8F64FEA1E4308FB164443EAE6
:10033400044307FB06F0984208D91CEB030306F1BB
:10034400FF3402D2984200F2CD8026461C1A1FFACE
:100354008EF3B4FBF8F008FB104443EA044300FBBB
:1003640007F79F4208D91CEB030300F1FF3402D2C4
:100374009F4200F2B0802046DB1B40EA0640A5E71E
:10038400C1F120068B4022FA06F71F4320FA06FC2F
:1003940004FA01F343EA0C03F44000FA01F8380CC0
:1003A4004FEA1349B4FBF0FE1FFA87FC00FB1E441E
:1003B40049EA04440EFB0CF9A14502FA01F20AD9F8
:1003C4003C190EF1FF3A80F08480A14540F281800F
:1003D400AEF1020E3C44A4EB09041FFA83F9B4FB0A
:1003E400F0F300FB134449EA044403FB0CFCA4456A
:1003F40007D93C1903F1FF3067D2A44565D9023B04
:100404003C4443EA0E40A0FB0293A4EB0C049C4240
:10041400CE469C4651D34ED055B1B8EB0E0364EB97
:100424000C0404FA06F6CB401E43CC40C5E9006434
:10043400002150E7C2F1200320FA03F10CFA02FC78
:1004440024FA03F394400C434FEA1C4800FA02FEDA
:100454001FFA8CF7B3FBF8F008FB1031230C43EAC6
:10046400014300FB07F1994208D91CEB030300F197
:10047400FF362CD299422AD9023863445B1AA4B2BB
:10048400B3FBF8F108FB113344EA034401FB07F31F
:10049400A34208D91CEB040401F1FF3613D2A34292
:1004A40011D902396444E41A41EA004139E70446A7
:1004B400F0E6084606E7C845AED2B9EB020E63EB98
:1004C400070C0138A8E73146EDE7034699E73046C3
:1004D400D4E7D6467FE7634402384DE70646234611
:1004E40008460FE7023E634430E700BF704700BF91
:1004F40072B6FEE700B595B03422002107A801F0DA
:10050400ACFF002302930393049305930693009393
:10051400214A116C41F080511164126C02F0805236
:100524000092009A01931D4A116841F44041116000
:10053400126802F440420192019A022207920121B8
:100544000A9110210B910D920E9308230F93B4235B
:10055400109311921292139207A800F0EFFDA0B924
:1005640001F020FB98B90F23029302230393002385
:1005740004934FF4A05305930693052102A800F0B9
:1005840073FC30B915B05DF804FBFFF7B1FFFFF75A
:10059400AFFFFFF7ADFF00BF00380240007000401E
:1005A40008B501F0DFFBFFF7A5FF00F00BF800F042
:1005B400B3F900F06DF800F0D9F901F045FF01F04E
:1005C40044FFFEE72DE9F04188B00024039404942D
:1005D4000594069407940094294B1A6B42F0040284
:1005E4001A631A6B02F004020092009A01941A6BC7
:1005F40042F001021A631A6B02F001020192019A9D
:1006040002941A6B42F002021A631B6B03F002039A
:100614000293029BDFF8748022463021404601F0A9
:100624009FF8184F22464FF44A51384601F098F883
:10063400154E22464FF4E851304601F091F830232C
:100644000393012504950594069403A9404600F0FC
:1006540097FF4FF44A53039304950594069403A912
:10066400384600F08DFF4FF4E85303930495059446
:10067400069403A9304600F083FF08B0BDE8F0817A
:10068400003802400004024000080240000002401A
:1006940000B585B0002300930193029303935D4852
:1006A4005D4A026043604FF0007282600122026181
:1006B400027680F82030C36258498162C3600C23FB
:1006C400C36180F83020426100F0CCFA002879D16F
:1006D4000E230093012301930323029369464D489B
:1006E40000F0ECFA002870D1072300930223019351
:1006F4006946484800F0E2FA002869D10D230093C6
:10070400032301936946434800F0D8FA002862D1D4
:10071400062300930423019369463E4800F0CEFA71
:1007240000285BD10C2300930523019369463948C3
:1007340000F0C4FA002854D109230093062301933E
:100744006946344800F0BAFA00284DD10A230093D0
:100754000723019369462F4800F0B0FA002846D1D8
:100764000B2300930823019369462A4800F0A6FA54
:1007740000283FD1022300930923019369462548A9
:1007840000F09CFA002838D1032300930A23019334
:100794006946204800F092FA90BB0F2300930B2384
:1007A400019369461B4800F089FA60BB0823009353
:1007B4000C2301936946174800F080FA30BB05B05A
:1007C4005DF804FBFFF794FE82E7FFF791FE8BE7E9
:1007D400FFF78EFE92E7FFF78BFE99E7FFF788FE9F
:1007E400A0E7FFF785FEA7E7FFF782FEAEE7FFF776
:1007F4007FFEB5E7FFF77CFEBCE7FFF779FEC3E7B2
:10080400FFF776FEC9E7FFF773FECFE7FFF770FE49
:10081400D5E700BF88000020002001400100000F40
:1008240070B58AB000230593069307930893099340
:10083400026803F1804303F590339A4201D00AB071
:1008440070BD04460025019503F58C335A6C42F4BF
:1008540080725A645A6C02F480720192019A029571
:100864001A6B42F004021A631A6B02F00402029239
:10087400029A03951A6B42F001021A631A6B02F092
:1008840001020392039A04951A6B42F002021A635E
:100894001B6B03F002030493049B3F23059303267D
:1008A400069605A9174800F06BFECC23059306961F
:1008B400079505A9144800F063FE0596069607956A
:1008C40005A9124800F05CFE1148124B0360456014
:1008D4008560C5604FF4806303614FF40063436136
:1008E4004FF4005383614FF48073C3610562456222
:1008F40000F0A6FF18B9064BA3639C639FE7FFF7BC
:10090400F7FDF8E70008024000000240000402403E
:10091400280000201064024010B582B00024019425
:10092400114B1A6B42F480021A631B6B03F48003AD
:100934000193019B22462146382001F0C5F9382055
:1009440001F0D2F922462146392001F0BDF93920BF
:1009540001F0CAF922462146452001F0B5F94520A7
:1009640001F0C2F902B010BD0038024008B50A48CF
:100974000A4B03604FF46133436000238360C36018
:1009840003610C2242618361C36101F0FDFA00B985
:1009940008BDFFF7ADFDFBE7900100200014014006
:1009A40030B589B00023039304930593069307930A
:1009B4000268354B9A4201D009B030BD0446002587
:1009C400019503F592335A6C42F020025A645A6C32
:1009D40002F020020192019A02951A6B42F004027D
:1009E4001A631B6B03F004030293029BC02303935B
:1009F40002230493032306930823079303A923489C
:100A040000F0BEFD2248234B03604FF02063436097
:100A14008560C5604FF480630361456185614FF46F
:100A24008073C3610562456200F00AFF28BB184B5E
:100A3400E3639C631848194B03604FF020634360E1
:100A4400402383600023C3604FF4806202614361EA
:100A540083614FF48072C2610362436200F0F0FE6E
:100A640070B90D4BA3639C6300221146472001F02B
:100A74002BF9472001F038F99EE7FFF739FDD6E757
:100A8400FFF736FDEDE700BF001401400008024007
:100A94003001002028640240D0000020A0640240FD
:100AA400FEE7FEE7FEE7FEE7FEE7704770477047A4
:100AB40008B501F071F908BD08B5024800F084FFDB
:100AC40008BD00BF2800002008B5024800F07CFFE4
:100AD40008BD00BF3001002008B5024800F074FFD3
:100AE40008BD00BFD000002008B5024801F008FB93
:100AF40008BD00BF9001002082B0002100910B4B83
:100B04005A6C42F480425A645A6C02F48042009255
:100B1400009A01911A6C42F080521A641B6C03F023
:100B240080530193019B02B0704700BF003802401C
:100B34004A4B5A6822F440325A605A6841680A4360
:100B44005A600268536823F48073536002685368E0
:100B5400016943EA012353600268536823F0407338
:100B640053600268536881680B435360026893685A
:100B740023F40063936002689368C1680B43936035
:100B8400826A374B9A4257D00268936823F07063A5
:100B9400936002689368816A0B4393600268936868
:100BA40023F04053936002689368C16A0B439360D7
:100BB4000268936823F00203936002689368017EDD
:100BC40043EA4103936090F82030002B3FD0026841
:100BD400536843F4006353600268536823F460432A
:100BE400536001684B68426A013A43EA42334B60FE
:100BF4000268D36A23F47003D3620168CB6AC269C2
:100C0400013A43EA0253CB620268936823F4007307
:100C140093600268936890F8301043EA412393602C
:100C24000268936823F4806393600268936841695F
:100C340043EA8123936070470268936823F07063EA
:100C440093600268936823F040539360B0E70268AE
:100C5400536823F400635360CAE700BF00230140D4
:100C64000100000F38B310B50446036C43B1236C84
:100C740013F0100F0BD00120002384F83C3010BD7A
:100C8400FFF7CEFD0023636484F83C30EFE7236C68
:100C940023F4885323F0020343F002032364204621
:100CA400FFF746FF00206064236C23F0030343F046
:100CB40001032364E0E701207047000030B482B0F0
:100CC4000022019290F83C20012A00F0C0800346E3
:100CD400012280F83C200A68092A40D90468E068A7
:100CE40092B202EB42021E3A4FF0070C0CFA02F2E7
:100CF40020EA0202E2601C68E0680A8802EB420211
:100D04001E3A8D6805FA02F20243E2604A68062A36
:100D14003CD81C68606B02EB8202053A4FF01F0C52
:100D24000CFA02F220EA020262631C68606B4A68F1
:100D340002EB8202053AB1F800C00CFA02F2024357
:100D440062631868434A904250D01868414A9042FE
:100D540059D0002083F83C0002B030BC70470468CE
:100D6400206992B202EB42024FF0070C0CFA02F235
:100D740020EA020222611C6820690A8802EB42020E
:100D84008D6805FA02F202432261BFE70C2A16D8E5
:100D94001D68286B02EB8202233A1F2404FA02F234
:100DA40020EA02022A631D68286B4A6802EB820269
:100DB400233A0C8804FA02F202432A63C1E71D684D
:100DC400E86A02EB8202413A1F2404FA02F220EAA2
:100DD4000202EA621D68E86A4A6802EB8202413A4A
:100DE4000C8804FA02F20243EA62AAE70A68122AA9
:100DF400ABD1194A506820F400005060506840F4A8
:100E040080005060A1E70A681448824201D0112A88
:100E14009FD1114A506820F480005060506840F41B
:100E24000000506009680D4A914292D10C4A126840
:100E34000C49A1FB0212920C02EB820252000192B5
:100E4400019A002A85D0019A013A0192F8E702201A
:100E540082E700BF0020014000230140120000107F
:100E64000800002083DE1B43002800F09B8070B53F
:100E74000D4604464F4B1B6803F00F038B4208D208
:100E8400CBB24C4A1370136803F00F038B4240F04B
:100E94008B80236813F0020F17D013F0040F04D0D3
:100EA400454A936843F4E0539360236813F0080FB2
:100EB40004D0414A936843F4604393603E4A936884
:100EC40023F0F003A1680B439360236813F0010F30
:100ED40032D06368012B21D09A1E012A25D9364AC3
:100EE400126812F0020F61D033498A6822F00302BB
:100EF40013438B6000F05CFF06462F4B9B6803F0A6
:100F04000C036268B3EB820F16D000F051FF801B14
:100F140041F288339842F0D9032042E0264A12680D
:100F240012F4003FE0D101203BE0234A126812F0A2
:100F3400007FD9D1012034E01E4B1B6803F00F035E
:100F4400AB4207D9EAB21B4B1A701B6803F00F03BC
:100F5400AB422DD1236813F0040F06D0164A9368D0
:100F640023F4E053E1680B439360236813F0080F04
:100F740007D0114A936823F46043216943EAC1030B
:100F8400936000F047F80C4B9B68C3F303130B4AC0
:100F9400D35CD8400A4B18600A4B186800F0BCFEBA
:100FA400002070BD012070470120FAE70120F8E716
:100FB4000120F6E7003C024000380240E02400082B
:100FC4000800002004000020014B1868704700BF8F
:100FD4000800002008B5FFF7F7FF044B9B68C3F334
:100FE4008223034AD35CD84008BD00BF00380240C6
:100FF400D824000808B5FFF7E7FF044B9B68C3F348
:101004004233034AD35CD84008BD00BF00380240D5
:10101400D824000808B5464B9B6803F00C03082B42
:1010240007D00C2B45D0042B01D0424808BD4248C0
:10103400FCE73F4B5A6802F03F025B6813F4800FF1
:1010440012D03B4B5968C1F388113B480023A1FBE4
:101054000001FFF7D5F8364B5B68C3F30143013356
:101064005B00B0FBF3F0E1E7314B5868C0F3881044
:101074004FEA401CBCEB000C6EEB0E0E4FEA8E13D5
:1010840043EA9C634FEA8C11B1EB0C0163EB0E0352
:10109400DB0043EA5173C90011EB000C43F1000378
:1010A400990200234FEA8C2041EA9C51FFF7A8F8EB
:1010B400D1E71F4B5A6802F03F025B6813F4800FBC
:1010C40010D01B4B5968C1F388111B480023A1FBA6
:1010D4000001FFF795F8164B5B68C3F30273B0FB8E
:1010E400F3F0A3E7124B5868C0F388104FEA401C92
:1010F400BCEB000C6EEB0E0E4FEA8E1343EA9C63BE
:101104004FEA8C11B1EB0C0163EB0E03DB0043EAF5
:101114005173C90011EB000C43F100039902002341
:101124004FEA8C2041EA9C51FFF76AF8D3E700BFED
:10113400003802400024F40040787D01002800F0CB
:10114400018270B582B00446036813F0010F41D0E8
:10115400994B9B6803F00C03042B32D0964B9B688D
:1011640003F00C03082B27D0934B9B6803F00C036C
:101174000C2B59D06368B3F5803F5BD0B3F5A02F37
:101184005ED08D4B1A6822F480321A601A6822F4F9
:1011940080221A606368002B5CD000F009FE0546CB
:1011A400854B1B6813F4003F14D100F001FE401B73
:1011B4006428F5D90320CCE17F4B5B6813F4800FDE
:1011C400D2D07D4B1B6813F4003F03D06368002B1F
:1011D40000F0BA81236813F0020F60D0764B9B684D
:1011E40013F00C0F4AD0744B9B6803F00C03082BCC
:1011F4003FD0714B9B6803F00C030C2B69D0E36860
:10120400002B75D06D4B01221A6000F0D1FD05460C
:10121400694B1B6813F0020F61D100F0C9FD401B3C
:101224000228F5D9032094E1634B5B6813F4800F23
:10123400A0D0C6E7604A136843F480331360A9E77B
:101244005D4B1A6842F480221A601A6842F48032B4
:101254001A609FE700F0ACFD0546574B1B6813F47A
:10126400003FB7D000F0A4FD401B6428F5D903204B
:101274006FE1514B5B6813F4800FBAD14E4B1B687E
:1012840013F0020F03D0E368012B40F05F814A4A58
:10129400136823F0F803216943EAC1031360236848
:1012A40013F0080F49D06369002B33D0434B01225C
:1012B400C3F8802E00F07CFD05463F4B5B6F13F0B6
:1012C400020F3AD100F074FD401B0228F5D9032027
:1012D4003FE1394B5B6813F4800F90D1CEE7364A77
:1012E400136823F0F803216943EAC1031360D6E7C6
:1012F400324B00221A6000F05BFD05462E4B1B6842
:1013040013F0020FCBD000F053FD401B0228F5D997
:1013140003201EE1294B0022C3F8802E00F048FD73
:101324000546254B5B6F13F0020F06D000F040FD1D
:10133400401B0228F5D903200BE1236813F0040FA6
:1013440076D01D4B1B6C13F0805F33D100230193C7
:10135400194B1A6C42F080521A641B6C03F08053D0
:101364000193019B0125164B1B6813F4807F29D040
:10137400A368012B3AD0052B3ED00F4B1A6F22F0F5
:1013840001021A671A6F22F004021A67A368002B7D
:101394003CD000F00DFD0646074B1B6F13F0020F07
:1013A40045D100F005FD801B41F288339842F3D902
:1013B4000320CEE00025D6E7003802400000474273
:1013C400007000406B4A136843F48073136000F0AC
:1013D400EFFC0646674B1B6813F4807FC8D100F00E
:1013E400E7FC801B0228F5D90320B2E0624A136FA0
:1013F40043F001031367C9E75F4B1A6F42F004021D
:101404001A671A6F42F001021A67BFE700F0D0FCB6
:101414000646594B1B6F13F0020F08D000F0C8FCAE
:10142400801B41F288339842F3D9032091E0EDB94F
:10143400A369002B00F08C804F4A926802F00C02E2
:10144400082A54D0022B17D04C4B00221A6600F005
:10145400AFFC0446484B1B6813F0007F45D000F0F6
:10146400A7FC001B0228F5D9032072E0424A136C42
:1014740023F080531364DBE7404B00221A6600F02C
:1014840097FC05463C4B1B6813F0007F06D000F028
:101494008FFC401B0228F5D903205AE0E369226A35
:1014A4001343626A43EA8213A26A5208013A43EA86
:1014B4000243E26A43EA0263226B43EA02732E4A5E
:1014C40053602E4B01221A6600F072FC04462A4B2C
:1014D4001B6813F0007F06D100F06AFC001B022891
:1014E400F5D9032035E0002033E0002031E0012B62
:1014F40031D0214B5B6803F48001E26991422CD125
:1015040003F03F02216A8A4229D1616A47F6C07218
:101514001A40B2EB811F24D103F44031A26A52086D
:10152400013AB1EB024F1ED103F07062E16AB2EBF3
:10153400016F1AD103F0E043226BB3EB027F16D1A3
:10154400002006E001207047012002E0012000E0B5
:10155400002002B070BD0120FBE70120F9E7012063
:10156400F7E70120F5E70120F3E70120F1E7012087
:10157400EFE700BF0070004000380240000047421F
:1015840000230F2B00F2E38070B582B065E085681C
:101594004FEA430E032404FA0EF425EA0405CC684A
:1015A40004FA0EF42C438460446824EA02044A6872
:1015B400C2F300129A40224342605CE0DC08083423
:1015C40050F8242003F00705AD004FF00F0E0EFA7B
:1015D40005FE22EA0E0E0A69AA4042EA0E0240F80B
:1015E40024205CE0062200E0002202FA0EF22A43E4
:1015F4000234574D45F82420564A94686FEA0C0289
:1016040024EA0C054E6816F4801F01D04CEA040548
:10161400504CA560E46802EA04054E6816F4001F05
:1016240001D04CEA04054B4CE560646802EA040509
:101634004E6816F4003F01D04CEA0405454C656041
:10164400246822404D6815F4803F01D04CEA04021E
:10165400404C226001330F2B77D801229A400C684A
:1016640004EA020C32EA0404F4D14C6804F00304E2
:10167400013C012C8BD94A6802F00302032A09D0E9
:10168400C4685D000322AA4024EA02048A68AA40CE
:101694002243C2604A6802F00302022A8ED0046820
:1016A4004FEA430E032202FA0EF224EA02044A68C5
:1016B40002F0030202FA0EF2224302604A6812F4B4
:1016C400403FC7D000220192234A546C44F4804422
:1016D4005464526C02F480420192019A9C08A51C45
:1016E4001B4A52F8255003F0030E4FEA8E0E0F22C8
:1016F40002FA0EF225EA0205184A90423FF474AF4A
:1017040002F58062904216D002F58062904214D0B5
:1017140002F58062904212D002F58062904210D0AD
:1017240002F5806290420ED002F5806290423FF44E
:1017340059AF072259E7012257E7022255E703224E
:1017440053E7042251E705224FE702B070BD70470A
:1017540000380140003C01400038024000000240D3
:101764000AB18161704709048161704710B403684C
:10177400D9B210390C4AA2FB014212090B4CA25CEB
:10178400C2655F2909D923F47F7323F0030304336B
:101794008365806D5DF8044B704723F47F7323F0F9
:1017A40003038365F5E700BFABAAAAAAD024000807
:1017B400836A826992B9012B0AD0022B02D00BB141
:1017C40000207047C36A13F0807F28D1002070473F
:1017D400C36AB3F1C07F24D000207047B2F5005F24
:1017E40009D0022B25D9032B25D1C36A13F0807F9E
:1017F40023D100207047032B03D8DFE803F014043F
:10180400140A00207047C36A13F0807F0DD10020B2
:101814007047C36AB3F1C07F09D00020704701202C
:101824007047012070470120704701207047012054
:101834007047012070470020704701207047000066
:1018440070B5044600F0B4FA002C5BD005460223C0
:1018540084F83530002384F834302268136823F088
:101864000103136023681A6812F0010F0AD000F014
:101874009FFA431B052BF5D920236365032084F8C5
:10188400350070BD1A68204911406268A06802439F
:10189400E06802432069024360690243A06902438D
:1018A400E0690243206A02430A43616A04291ED0A4
:1018B4001A602668756925F00705636A1D43042BC1
:1018C40007D1A36A1D43E36A1BB12046FFF770FFEB
:1018D40090B975612046FFF749FFE26D3F239340BD
:1018E400836000206065012384F83530C9E7E16A2C
:1018F400206B01430A43DBE740236365012084F83E
:101904003500BEE70120BCE73F8010F070B5044607
:10191400866D00F04DFA94F83530DBB2022B06D018
:1019240080236365002384F83430012070BD0546AC
:101934002268136823F0160313602268536923F0A6
:1019440080035361236CE3B12268136823F0080316
:1019540013602268136823F00103136023681B6873
:1019640013F0010F11D000F023FA431B052BF5D916
:1019740020236365032084F83500002384F8343081
:10198400D4E7A36C002BDFD1E3E7E26D3F23934060
:10199400B360012384F83530002084F83400C5E7AF
:1019A40090F83530DBB2022B03D08023436501204D
:1019B4007047052380F835300268136823F001036B
:1019C4001360002070470000F0B583B00446002384
:1019D4000193724B1D68724BA3FB0535AD0A876DED
:1019E4003E68C26D08239340334210D003681A68DE
:1019F40012F0040F0BD01A6822F004021A60C26DB0
:101A040008239340BB60436D43F001034365E26DDB
:101A140001239340334209D02268526912F0800FA7
:101A240004D0BB60636D43F002036365E26D04237D
:101A34009340334209D02268126812F0020F04D096
:101A4400BB60636D43F004036365E26D1023934050
:101A5400334224D02268126812F0080F1FD0BB60F2
:101A640023681A6812F4802F0DD01B6813F4002F1A
:101A740004D1236C9BB12046984710E0A36C73B14A
:101A8400204698470BE01A6812F4807F03D11A6845
:101A940022F008021A60236C0BB120469847E26DCD
:101AA40020239340334255D02268126812F0100F5D
:101AB40050D0BB6094F83530DBB2052B0ED02368D0
:101AC4001A6812F4802F33D01B6813F4002F2AD124
:101AD400636C002B3ED0204698473BE02268136895
:101AE40023F0160313602268536923F080035361C3
:101AF400236CA3B12268136823F008031360E26D1A
:101B04003F239340BB60012384F83530002384F8DD
:101B14003430236D002B3FD0204698473CE0A36C23
:101B2400002BE7D1EBE7E36BA3B12046984711E024
:101B34001A6812F4807F09D11A6822F010021A6020
:101B4400012384F83530002384F83430E36B0BB17F
:101B540020469847636DFBB1636D13F0010F17D0F6
:101B6400052384F835302268136823F001031360D9
:101B7400019B01330193AB4204D823681B6813F023
:101B8400010FF5D1012384F83530002384F8343073
:101B9400E36C0BB12046984703B0F0BD0800002069
:101BA400B5814E1B10B582B000230193194B1A6CFA
:101BB40042F080521A641B6C03F080530193019B22
:101BC400154B01221A6400F0F3F80446134B5B68CA
:101BD40013F4803F08D100F0EBF8001BB0F57A7FD6
:101BE400F4D9032002B010BD0B4B01225A6400F05B
:101BF400DFF80446094B5B6813F4003F07D100F09B
:101C0400D7F8001BB0F57A7FF4D90320EAE7002067
:101C1400E8E700BF0038024000000E4200700040B8
:101C2400002807DB00F01F02400901239340024A09
:101C340042F82030704700BF00E100E0002808DBD4
:101C44000901C9B200F1604000F5614080F8001359
:101C5400704700F00F000901C9B2014B19547047D5
:101C640014ED00E000B500F00700C0F1070CBCF172
:101C7400040F28BF4FF0040C031D062B0FD9C31EFD
:101C84004FF0FF3E0EFA0CF021EA000199400EFAE3
:101C940003FE22EA0E0241EA02005DF804FB00237F
:101CA400EEE70000074AD36823F4E0631B041B0C2F
:101CB400000200F4E060034343F0BF6343F40033E5
:101CC400D360704700ED00E010B50446054BD868BA
:101CD400C0F30220FFF7C6FF01462046FFF7AEFF20
:101CE40010BD00BF00ED00E008B5FFF799FF08BD87
:101CF4000138B0F1807F0BD24FF0E0235861054AE0
:101D0400F02182F823100020986107221A6170479D
:101D14000120704700ED00E010B504460E4B1A7820
:101D24004FF47A73B3FBF2F30C4A1068B0FBF3F090
:101D3400FFF7DEFF68B90F2C01D901200AE0002269
:101D440021464FF0FF30FFF7BFFF054B1C6000201A
:101D540000E0012010BD00BF0000002008000020AA
:101D64000400002008B50B4B1A6842F400721A6094
:101D74001A6842F480621A601A6842F480721A6027
:101D84000320FFF78FFF0F20FFF7C6FFFEF7B4FE17
:101D9400002008BD003C0240034A1168034B1B7835
:101DA4000B441360704700BFD801002000000020DE
:101DB400014B1868704700BFD8010020026802F187
:101DC4000C0353E8003F23F490730C3242E80031D3
:101DD4000029F3D1026802F1140353E8003F23F011
:101DE4000103143242E800310029F3D1036B012BC3
:101DF40005D0202380F84230002303637047026833
:101E040002F10C0353E8003F23F010030C3242E8C4
:101E140000310029F3D1ECE790F84130DBB2212BFB
:101E240001D0022070478368B3F5805F17D0036A3E
:101E34005A1C02621A7803685A60C38C9BB2013B35
:101E44009BB2C3844BB90268D36823F08003D36088
:101E54000268D36843F04003D360002070470369ED
:101E6400002BE4D1036A1B880268C3F308035360A0
:101E7400036A02330362E0E710B50446026813699B
:101E840023F44053C1680B431361836802691A4306
:101E940043691A43C3691A430168CB6823F41643A0
:101EA40023F00C031343CB600268536923F440739B
:101EB40081690B4353610368314A934206D002F5AA
:101EC4008062934202D0FFF785F801E0FFF792F8B1
:101ED400E369B3F5004F29D00021031849411B18C9
:101EE40041F10001C90041EA5371DB00181863682D
:101EF4004FEA83024FEA937341F10001FEF780F940
:101F0400204AA2FB00314909642303FB11031B018E
:101F14003233A2FB03235B0903F0F00202EB01124C
:101F240003F00F03216813448B6010BD00230218D3
:101F340043EB0301121841F10001C90041EA527157
:101F4400D200101841F10001626892185B41FEF75B
:101F540057F90C4AA2FB00314909642303FB11031E
:101F6400DB003233A2FB03235B095A0002F4F8724C
:101F740002EB011203F00703216813448B60D4E7DA
:101F8400001001401F85EB5160B310B5044690F872
:101F9400413013B3242384F841302268D36823F4F6
:101FA4000053D3602046FFF767FF2268136923F4C8
:101FB400904313612268536923F02A035361226812
:101FC400D36843F40053D36000206064202384F872
:101FD400413084F84230606310BD80F84030FEF731
:101FE400DFFCD7E701207047704708B50168CA686D
:101FF40022F04002CA60202280F84120FFF7F4FF5B
:10200400002008BD7047704708B5806B0023C38566
:10201400C384FFF7F8FF08BD704790F84230DBB285
:10202400222B69D18368B3F5805F4FD0826AB3F500
:10203400805F04D0002B56D10369002B53D1036871
:102044005B681370836A01338362C38D9BB2013B67
:102054009BB2C385002B51D100B583B00268D3680D
:1020640023F02003D3600268D36823F48073D36021
:102074000268536923F001035361202380F842303E
:1020840000234363036B012B33D1002303630268F2
:1020940002F10C0353E8003F23F010030C3242E832
:1020A40000310029F3D103681A6812F0100F06D02A
:1020B400002201921A6801925B680193019B818D51
:1020C400FFF7AAFF002003B05DF804FB0269002AB1
:1020D400ACD1826A03685B68C3F308031380836A24
:1020E40002338362B1E703685B6803F07F03137014
:1020F400A8E7FFF787FFE5E7022070470020704755
:1021040010B582B0044602681368D068516913F0B0
:102114000F0F09D113F0200F0CD010F0200F09D0AD
:102124002046FFF77AFF16E011F0010115D110F4F3
:10213400907F12D1216B012979D013F0800F03D045
:1021440010F0800F40F0148113F0400F03D010F012
:10215400400F40F0118102B010BD13F0010F06D002
:1021640010F4807F03D0626C42F00102626413F0C9
:10217400040F04D019B1626C42F00202626413F0DD
:10218400020F04D019B1626C42F00402626413F0CD
:10219400080F07D010F0200F00D119B1626C42F083
:1021A40008026264626C002AD5D013F0200F02D0BA
:1021B40010F0200F29D123685B6903F04003626C9F
:1021C40012F0080F00D163B32046FFF7F7FD236830
:1021D4005B6913F0400F20D0226802F1140353E826
:1021E400003F23F04003143242E800310029F3D1C8
:1021F400E36B73B1624A1A65E06BFFF7D1FB002809
:10220400A9D0E06B036D9847A5E72046FFF705FFCB
:10221400D1E72046FFF7F7FE9DE72046FFF7F3FEE0
:1022240099E72046FFF7EFFE0023636493E713F07A
:10223400100F82D010F0100F3FF47FAF00230193F2
:102244001368019353680193019B536913F0400F82
:1022540052D0E26B13685B689BB2002B3FF47BAFF8
:10226400A18D99427FF677AFE385D369B3F5807F7B
:1022740037D0226802F10C0353E8003F23F4807343
:102284000C3242E800310029F3D1226802F1140330
:1022940053E8003F23F00103143242E800310029DF
:1022A400F3D1226802F1140353E8003F23F0400302
:1022B400143242E800310029F3D1202384F842305B
:1022C40000232363226802F10C0353E8003F23F048
:1022D40010030C3242E800310029F3D1E06BFFF720
:1022E40015FB02236363A18DE38D9BB2C91A89B2E6
:1022F4002046FFF791FE2EE7A18DE38D9BB2C91A0C
:1023040089B2E38D9BB2002B3FF425AF00293FF443
:1023140022AF226802F10C0353E8003F23F49073C8
:102324000C3242E800300028F3D1226802F1140391
:1023340053E8003F23F00103143242E80030002840
:10234400F3D1202384F8423000232363226802F16E
:102354000C0353E8003F23F010030C3242E8003032
:102364000028F3D1022363632046FFF755FEF2E60B
:102374002046FFF751FDEEE62046FFF736FEEAE67B
:102384000D200008034AD2F8883043F47003C2F8E1
:102394008830704700ED00E0DFF834D0FFF7F2FF3B
:1023A4000C480D490D4A002302E0D458C4500433AC
:1023B400C4188C42F9D30A4A0A4C002301E0136082
:1023C4000432A242FBD300F051F8FEF7E9F870475B
:1023D40000000220000000200C000020042500085A
:1023E4000C000020F4010020FEE70000012800D0CA
:1023F40070474FF6FF739942FAD110B50E4B0F4C4C
:102404001C604FF48061998000222046FFF7A8F9F0
:102414000B4B1C604FF40061998000222046FFF7AB
:102424009FF9084B1C604FF480519980002220468C
:10243400FFF796F910BD00BFEC0100200008024030
:10244400E4010020DC0100207047FEE708B54FF6E8
:10245400FF710120FFF7CAFF08BD024403469342FF
:1024640000D1704703F8011BF9E7000070B50D4D6A
:102474000D4C641BA4100026A64209D10B4D0C4C34
:1024840000F018F8641BA4100026A64205D170BD04
:1024940055F8043B98470136EEE755F8043B984756
:1024A4000136F2E7F8240008F8240008F8240008AC
:1024B40000250008F8B500BFF8BC08BC9E4670476C
:0C24C400F8B500BFF8BC08BC9E4670478D
:1024D000000610160006101600000000010203049A
:1024E00000000000000000000102030406070809C4
:0824F00044DDFF7F0100000044
:0824F800E9010008512400086D
:04250000C501000809
:0C25040001000000100000000024F400A2
:040000050800239D2F
:00000001FF
